{"abi":[{"type":"constructor","inputs":[{"name":"_usdcAddress","type":"address","internalType":"address"},{"name":"_usdyAddress","type":"address","internalType":"address"},{"name":"_mockSwap","type":"address","internalType":"address"},{"name":"_admin","type":"address","internalType":"address"}],"stateMutability":"nonpayable"},{"type":"fallback","stateMutability":"payable"},{"type":"receive","stateMutability":"payable"},{"type":"function","name":"admin","inputs":[],"outputs":[{"name":"","type":"address","internalType":"address"}],"stateMutability":"view"},{"type":"function","name":"allocateFunds","inputs":[{"name":"user","type":"address","internalType":"address"},{"name":"amount","type":"uint256","internalType":"uint256"},{"name":"strategy","type":"address","internalType":"address"}],"outputs":[],"stateMutability":"nonpayable"},{"type":"function","name":"approvedStrategies","inputs":[{"name":"","type":"address","internalType":"address"}],"outputs":[{"name":"","type":"bool","internalType":"bool"}],"stateMutability":"view"},{"type":"function","name":"deposit","inputs":[{"name":"amount","type":"uint256","internalType":"uint256"}],"outputs":[],"stateMutability":"nonpayable"},{"type":"function","name":"getTotalValueLocked","inputs":[],"outputs":[{"name":"","type":"uint256","internalType":"uint256"}],"stateMutability":"view"},{"type":"function","name":"getUserDeposits","inputs":[],"outputs":[{"name":"","type":"uint256","internalType":"uint256"}],"stateMutability":"view"},{"type":"function","name":"mockSwap","inputs":[],"outputs":[{"name":"","type":"address","internalType":"address"}],"stateMutability":"view"},{"type":"function","name":"setApprovedStrategy","inputs":[{"name":"strategy","type":"address","internalType":"address"},{"name":"approved","type":"bool","internalType":"bool"}],"outputs":[],"stateMutability":"nonpayable"},{"type":"function","name":"swapUSDYtoUSDC","inputs":[{"name":"amount","type":"uint256","internalType":"uint256"}],"outputs":[],"stateMutability":"nonpayable"},{"type":"function","name":"totalValueLocked","inputs":[],"outputs":[{"name":"","type":"uint256","internalType":"uint256"}],"stateMutability":"view"},{"type":"function","name":"usdc","inputs":[],"outputs":[{"name":"","type":"address","internalType":"contract IERC20"}],"stateMutability":"view"},{"type":"function","name":"usdy","inputs":[],"outputs":[{"name":"","type":"address","internalType":"contract IERC20"}],"stateMutability":"view"},{"type":"function","name":"userDeposits","inputs":[{"name":"","type":"address","internalType":"address"}],"outputs":[{"name":"","type":"uint256","internalType":"uint256"}],"stateMutability":"view"},{"type":"function","name":"withdraw","inputs":[{"name":"amount","type":"uint256","internalType":"uint256"}],"outputs":[],"stateMutability":"nonpayable"},{"type":"event","name":"DepositSuccessful","inputs":[{"name":"user","type":"address","indexed":true,"internalType":"address"},{"name":"amount","type":"uint256","indexed":false,"internalType":"uint256"}],"anonymous":false},{"type":"event","name":"FundsAllocated","inputs":[{"name":"user","type":"address","indexed":true,"internalType":"address"},{"name":"strategy","type":"address","indexed":false,"internalType":"address"},{"name":"amount","type":"uint256","indexed":false,"internalType":"uint256"}],"anonymous":false},{"type":"event","name":"StrategyApprovalUpdated","inputs":[{"name":"strategy","type":"address","indexed":false,"internalType":"address"},{"name":"approved","type":"bool","indexed":false,"internalType":"bool"}],"anonymous":false},{"type":"event","name":"WithdrawalSuccessful","inputs":[{"name":"user","type":"address","indexed":true,"internalType":"address"},{"name":"amount","type":"uint256","indexed":false,"internalType":"uint256"}],"anonymous":false},{"type":"error","name":"NotAdmin","inputs":[]}],"bytecode":{"object":"0x608060405234801562000010575f80fd5b50604051620014f2380380620014f2833981016040819052620000339162000208565b60015f556001600160a01b038416620000935760405162461bcd60e51b815260206004820152601460248201527f496e76616c69642055534443206164647265737300000000000000000000000060448201526064015b60405180910390fd5b6001600160a01b038316620000eb5760405162461bcd60e51b815260206004820152601460248201527f496e76616c69642055534459206164647265737300000000000000000000000060448201526064016200008a565b6001600160a01b038216620001435760405162461bcd60e51b815260206004820152601860248201527f496e76616c6964204d6f636b537761702061646472657373000000000000000060448201526064016200008a565b6001600160a01b0381166200019b5760405162461bcd60e51b815260206004820152601560248201527f496e76616c69642061646d696e2061646472657373000000000000000000000060448201526064016200008a565b600580546001600160a01b03199081166001600160a01b0393841617909155600380548216958316959095179094556004805485169382169390931790925560068054909316911617905562000262565b80516001600160a01b038116811462000203575f80fd5b919050565b5f805f80608085870312156200021c575f80fd5b6200022785620001ec565b93506200023760208601620001ec565b92506200024760408601620001ec565b91506200025760608601620001ec565b905092959194509250565b61128280620002705f395ff3fe6080604052600436106100e0575f3560e01c8063b26025aa1161007e578063dd46f9d511610058578063dd46f9d51461030a578063ec18154e14610329578063f851a4401461033e578063fa45c7321461035d57610132565b8063b26025aa14610299578063b6b55f25146102ad578063c613aec0146102cc57610132565b80633e413bee116100ba5780633e413bee1461020457806350181e861461023b578063949519441461025a57806398d506e91461027a57610132565b80630ba36dcd1461018657806312a7bd4c146101c45780632e1a7d4d146101e557610132565b366101325760405162461bcd60e51b815260206004820152601960248201527f5661756c7420646f6573206e6f7420616363657074204554480000000000000060448201526064015b60405180910390fd5b60405162461bcd60e51b815260206004820152602360248201527f46616c6c6261636b3a205661756c7420646f6573206e6f74206163636570742060448201526208aa8960eb1b6064820152608401610129565b348015610191575f80fd5b506101b16101a03660046110b9565b60016020525f908152604090205481565b6040519081526020015b60405180910390f35b3480156101cf575f80fd5b506101e36101de3660046110e6565b61037c565b005b3480156101f0575f80fd5b506101e36101ff36600461111b565b61045f565b34801561020f575f80fd5b50600354610223906001600160a01b031681565b6040516001600160a01b0390911681526020016101bb565b348015610246575f80fd5b50600654610223906001600160a01b031681565b348015610265575f80fd5b50335f908152600160205260409020546101b1565b348015610285575f80fd5b50600454610223906001600160a01b031681565b3480156102a4575f80fd5b506002546101b1565b3480156102b8575f80fd5b506101e36102c736600461111b565b61054f565b3480156102d7575f80fd5b506102fa6102e63660046110b9565b60076020525f908152604090205460ff1681565b60405190151581526020016101bb565b348015610315575f80fd5b506101e3610324366004611132565b610723565b348015610334575f80fd5b506101b160025481565b348015610349575f80fd5b50600554610223906001600160a01b031681565b348015610368575f80fd5b506101e361037736600461111b565b610abc565b6005546001600160a01b031633146103a757604051637bfa4b9f60e01b815260040160405180910390fd5b6001600160a01b0382166103fd5760405162461bcd60e51b815260206004820152601860248201527f496e76616c6964207374726174656779206164647265737300000000000000006044820152606401610129565b6001600160a01b0382165f81815260076020908152604091829020805460ff19168515159081179091558251938452908301527fad6dbebee1460bc7dc438c3201e2ebf7fbb594750b1cc49795d929a8f28d8775910160405180910390a15050565b610467610c36565b335f908152600160205260409020548111156104bc5760405162461bcd60e51b8152602060048201526014602482015273496e73756666696369656e742062616c616e636560601b6044820152606401610129565b335f90815260016020526040812080548392906104da90849061117f565b925050819055508060025f8282546104f2919061117f565b909155505060035461050e906001600160a01b03163383610c8d565b60405181815233907ff4f855c53853d0277a9ff688aadbfe4cb795ca1d5af41704b62cb539f89939ec9060200160405180910390a261054c60015f55565b50565b610557610c36565b5f81116105a65760405162461bcd60e51b815260206004820181905260248201527f416d6f756e74206d7573742062652067726561746572207468616e207a65726f6044820152606401610129565b6004546105be906001600160a01b0316333084610cf0565b6004805460065460405163095ea7b360e01b81526001600160a01b039182169381019390935260248301849052169063095ea7b3906044016020604051808303815f875af1158015610612573d5f803e3d5ffd5b505050506040513d601f19601f820116820180604052508101906106369190611198565b50600654604051637d22e39960e11b8152600481018390525f916001600160a01b03169063fa45c732906024015b6020604051808303815f875af1158015610680573d5f803e3d5ffd5b505050506040513d601f19601f820116820180604052508101906106a491906111b3565b335f908152600160205260408120805492935083929091906106c79084906111ca565b925050819055508060025f8282546106df91906111ca565b909155505060405181815233907fb3ef81558ed1a50072a492984535a009da8b129c749500b387f1e5f4886bdde59060200160405180910390a25061054c60015f55565b6005546001600160a01b0316331461074e57604051637bfa4b9f60e01b815260040160405180910390fd5b610756610c36565b6001600160a01b0383165f908152600160205260409020548211156107b45760405162461bcd60e51b8152602060048201526014602482015273496e73756666696369656e742062616c616e636560601b6044820152606401610129565b6001600160a01b0381165f9081526007602052604090205460ff166108135760405162461bcd60e51b815260206004820152601560248201527414dd1c985d1959de481b9bdd08185c1c1c9bdd9959605a1b6044820152606401610129565b803b63ffffffff81166108685760405162461bcd60e51b815260206004820152601b60248201527f5374726174656779206d757374206265206120636f6e747261637400000000006044820152606401610129565b6001600160a01b0384165f908152600160205260408120805485929061088f90849061117f565b925050819055508260025f8282546108a7919061117f565b909155505060035460405163095ea7b360e01b81526001600160a01b0384811660048301525f602483015290911690819063095ea7b3906044016020604051808303815f875af11580156108fd573d5f803e3d5ffd5b505050506040513d601f19601f820116820180604052508101906109219190611198565b61095c5760405162461bcd60e51b815260206004820152600c60248201526b14995cd95d0819985a5b195960a21b6044820152606401610129565b60405163095ea7b360e01b81526001600160a01b0384811660048301526024820186905282169063095ea7b3906044016020604051808303815f875af11580156109a8573d5f803e3d5ffd5b505050506040513d601f19601f820116820180604052508101906109cc9190611198565b610a095760405162461bcd60e51b815260206004820152600e60248201526d105c1c1c9bdd994819985a5b195960921b6044820152606401610129565b604051631dc4ddc360e11b81526001600160a01b03868116600483015260248201869052841690633b89bb86906044015f604051808303815f87803b158015610a50575f80fd5b505af1158015610a62573d5f803e3d5ffd5b5050604080516001600160a01b03878116825260208201899052891693507f5aabe59a94326cbf612b52ddc5ffd665415ed13728203f670d72f07d6dd5db9492500160405180910390a25050610ab760015f55565b505050565b610ac4610c36565b5f8111610b135760405162461bcd60e51b815260206004820152601d60248201527f416d6f756e74206d7573742062652067726561746572207468616e20300000006044820152606401610129565b600480546040516370a0823160e01b8152339281019290925282916001600160a01b03909116906370a0823190602401602060405180830381865afa158015610b5e573d5f803e3d5ffd5b505050506040513d601f19601f82011682018060405250810190610b8291906111b3565b1015610bd05760405162461bcd60e51b815260206004820152601960248201527f496e73756666696369656e7420555344592062616c616e6365000000000000006044820152606401610129565b600454610be8906001600160a01b0316333084610cf0565b600654600454610c05916001600160a01b03918216911683610d2e565b600654604051637d22e39960e11b8152600481018390525f916001600160a01b03169063fa45c73290602401610664565b60025f5403610c875760405162461bcd60e51b815260206004820152601f60248201527f5265656e7472616e637947756172643a207265656e7472616e742063616c6c006044820152606401610129565b60025f55565b6040516001600160a01b038316602482015260448101829052610ab790849063a9059cbb60e01b906064015b60408051601f198184030181529190526020810180516001600160e01b03166001600160e01b031990931692909217909152610e41565b6040516001600160a01b0380851660248301528316604482015260648101829052610d289085906323b872dd60e01b90608401610cb9565b50505050565b801580610da65750604051636eb1769f60e11b81523060048201526001600160a01b03838116602483015284169063dd62ed3e90604401602060405180830381865afa158015610d80573d5f803e3d5ffd5b505050506040513d601f19601f82011682018060405250810190610da491906111b3565b155b610e115760405162461bcd60e51b815260206004820152603660248201527f5361666545524332303a20617070726f76652066726f6d206e6f6e2d7a65726f60448201527520746f206e6f6e2d7a65726f20616c6c6f77616e636560501b6064820152608401610129565b6040516001600160a01b038316602482015260448101829052610ab790849063095ea7b360e01b90606401610cb9565b5f610e95826040518060400160405280602081526020017f5361666545524332303a206c6f772d6c6576656c2063616c6c206661696c6564815250856001600160a01b0316610f149092919063ffffffff16565b905080515f1480610eb5575080806020019051810190610eb59190611198565b610ab75760405162461bcd60e51b815260206004820152602a60248201527f5361666545524332303a204552433230206f7065726174696f6e20646964206e6044820152691bdd081cdd58d8d9595960b21b6064820152608401610129565b6060610f2284845f85610f2a565b949350505050565b606082471015610f8b5760405162461bcd60e51b815260206004820152602660248201527f416464726573733a20696e73756666696369656e742062616c616e636520666f6044820152651c8818d85b1b60d21b6064820152608401610129565b5f80866001600160a01b03168587604051610fa691906111ff565b5f6040518083038185875af1925050503d805f8114610fe0576040519150601f19603f3d011682016040523d82523d5f602084013e610fe5565b606091505b5091509150610ff687838387611001565b979650505050505050565b6060831561106f5782515f03611068576001600160a01b0385163b6110685760405162461bcd60e51b815260206004820152601d60248201527f416464726573733a2063616c6c20746f206e6f6e2d636f6e74726163740000006044820152606401610129565b5081610f22565b610f2283838151156110845781518083602001fd5b8060405162461bcd60e51b8152600401610129919061121a565b80356001600160a01b03811681146110b4575f80fd5b919050565b5f602082840312156110c9575f80fd5b6110d28261109e565b9392505050565b801515811461054c575f80fd5b5f80604083850312156110f7575f80fd5b6111008361109e565b91506020830135611110816110d9565b809150509250929050565b5f6020828403121561112b575f80fd5b5035919050565b5f805f60608486031215611144575f80fd5b61114d8461109e565b9250602084013591506111626040850161109e565b90509250925092565b634e487b7160e01b5f52601160045260245ffd5b818103818111156111925761119261116b565b92915050565b5f602082840312156111a8575f80fd5b81516110d2816110d9565b5f602082840312156111c3575f80fd5b5051919050565b808201808211156111925761119261116b565b5f5b838110156111f75781810151838201526020016111df565b50505f910152565b5f82516112108184602087016111dd565b9190910192915050565b602081525f82518060208401526112388160408501602087016111dd565b601f01601f1916919091016040019291505056fea26469706673582212206e446aa5c9664b92ede061d6229527cf9e96f66a95424a9eca996392e075da8b64736f6c63430008140033","linkReferences":{}},"methodIdentifiers":{"admin()":"f851a440","allocateFunds(address,uint256,address)":"dd46f9d5","approvedStrategies(address)":"c613aec0","deposit(uint256)":"b6b55f25","getTotalValueLocked()":"b26025aa","getUserDeposits()":"94951944","mockSwap()":"50181e86","setApprovedStrategy(address,bool)":"12a7bd4c","swapUSDYtoUSDC(uint256)":"fa45c732","totalValueLocked()":"ec18154e","usdc()":"3e413bee","usdy()":"98d506e9","userDeposits(address)":"0ba36dcd","withdraw(uint256)":"2e1a7d4d"},"id":33}