{"abi":[{"type":"constructor","inputs":[{"name":"_usdcAddress","type":"address","internalType":"address"},{"name":"_admin","type":"address","internalType":"address"}],"stateMutability":"nonpayable"},{"type":"fallback","stateMutability":"payable"},{"type":"receive","stateMutability":"payable"},{"type":"function","name":"admin","inputs":[],"outputs":[{"name":"","type":"address","internalType":"address"}],"stateMutability":"view"},{"type":"function","name":"allocateFunds","inputs":[{"name":"user","type":"address","internalType":"address"},{"name":"amount","type":"uint256","internalType":"uint256"},{"name":"strategy","type":"address","internalType":"address"}],"outputs":[],"stateMutability":"nonpayable"},{"type":"function","name":"approvedStrategies","inputs":[{"name":"","type":"address","internalType":"address"}],"outputs":[{"name":"","type":"bool","internalType":"bool"}],"stateMutability":"view"},{"type":"function","name":"deposit","inputs":[{"name":"amount","type":"uint256","internalType":"uint256"}],"outputs":[],"stateMutability":"nonpayable"},{"type":"function","name":"getTotalValueLocked","inputs":[],"outputs":[{"name":"","type":"uint256","internalType":"uint256"}],"stateMutability":"view"},{"type":"function","name":"getUserDeposits","inputs":[],"outputs":[{"name":"","type":"uint256","internalType":"uint256"}],"stateMutability":"view"},{"type":"function","name":"setApprovedStrategy","inputs":[{"name":"strategy","type":"address","internalType":"address"},{"name":"approved","type":"bool","internalType":"bool"}],"outputs":[],"stateMutability":"nonpayable"},{"type":"function","name":"totalValueLocked","inputs":[],"outputs":[{"name":"","type":"uint256","internalType":"uint256"}],"stateMutability":"view"},{"type":"function","name":"usdc","inputs":[],"outputs":[{"name":"","type":"address","internalType":"contract IERC20"}],"stateMutability":"view"},{"type":"function","name":"userDeposits","inputs":[{"name":"","type":"address","internalType":"address"}],"outputs":[{"name":"","type":"uint256","internalType":"uint256"}],"stateMutability":"view"},{"type":"function","name":"withdraw","inputs":[{"name":"amount","type":"uint256","internalType":"uint256"}],"outputs":[],"stateMutability":"nonpayable"},{"type":"event","name":"DepositSuccessful","inputs":[{"name":"user","type":"address","indexed":true,"internalType":"address"},{"name":"amount","type":"uint256","indexed":false,"internalType":"uint256"}],"anonymous":false},{"type":"event","name":"FundsAllocated","inputs":[{"name":"user","type":"address","indexed":true,"internalType":"address"},{"name":"strategy","type":"address","indexed":false,"internalType":"address"},{"name":"amount","type":"uint256","indexed":false,"internalType":"uint256"}],"anonymous":false},{"type":"event","name":"StrategyApprovalUpdated","inputs":[{"name":"strategy","type":"address","indexed":false,"internalType":"address"},{"name":"approved","type":"bool","indexed":false,"internalType":"bool"}],"anonymous":false},{"type":"event","name":"WithdrawalSuccessful","inputs":[{"name":"user","type":"address","indexed":true,"internalType":"address"},{"name":"amount","type":"uint256","indexed":false,"internalType":"uint256"}],"anonymous":false},{"type":"error","name":"NotAdmin","inputs":[]}],"bytecode":{"object":"0x608060405234801561000f575f5ffd5b50604051611f34380380611f34833981810160405281019061003191906101f9565b60015f819055505f73ffffffffffffffffffffffffffffffffffffffff168273ffffffffffffffffffffffffffffffffffffffff16036100a6576040517f08c379a000000000000000000000000000000000000000000000000000000000815260040161009d90610291565b60405180910390fd5b5f73ffffffffffffffffffffffffffffffffffffffff168173ffffffffffffffffffffffffffffffffffffffff1603610114576040517f08c379a000000000000000000000000000000000000000000000000000000000815260040161010b906102f9565b60405180910390fd5b8060045f6101000a81548173ffffffffffffffffffffffffffffffffffffffff021916908373ffffffffffffffffffffffffffffffffffffffff1602179055508160035f6101000a81548173ffffffffffffffffffffffffffffffffffffffff021916908373ffffffffffffffffffffffffffffffffffffffff1602179055505050610317565b5f5ffd5b5f73ffffffffffffffffffffffffffffffffffffffff82169050919050565b5f6101c88261019f565b9050919050565b6101d8816101be565b81146101e2575f5ffd5b50565b5f815190506101f3816101cf565b92915050565b5f5f6040838503121561020f5761020e61019b565b5b5f61021c858286016101e5565b925050602061022d858286016101e5565b9150509250929050565b5f82825260208201905092915050565b7f496e76616c6964205553444320616464726573730000000000000000000000005f82015250565b5f61027b601483610237565b915061028682610247565b602082019050919050565b5f6020820190508181035f8301526102a88161026f565b9050919050565b7f496e76616c69642061646d696e206164647265737300000000000000000000005f82015250565b5f6102e3601583610237565b91506102ee826102af565b602082019050919050565b5f6020820190508181035f830152610310816102d7565b9050919050565b611c10806103245f395ff3fe60806040526004361061009f575f3560e01c8063b26025aa11610063578063b26025aa146101fa578063b6b55f2514610224578063c613aec01461024c578063dd46f9d514610288578063ec18154e146102b0578063f851a440146102da576100df565b80630ba36dcd1461011a57806312a7bd4c146101565780632e1a7d4d1461017e5780633e413bee146101a657806394951944146101d0576100df565b366100df576040517f08c379a00000000000000000000000000000000000000000000000000000000081526004016100d690611145565b60405180910390fd5b6040517f08c379a0000000000000000000000000000000000000000000000000000000008152600401610111906111d3565b60405180910390fd5b348015610125575f5ffd5b50610140600480360381019061013b919061124f565b610304565b60405161014d9190611292565b60405180910390f35b348015610161575f5ffd5b5061017c600480360381019061017791906112e0565b610319565b005b348015610189575f5ffd5b506101a4600480360381019061019f9190611348565b61049e565b005b3480156101b1575f5ffd5b506101ba610636565b6040516101c791906113ce565b60405180910390f35b3480156101db575f5ffd5b506101e461065b565b6040516101f19190611292565b60405180910390f35b348015610205575f5ffd5b5061020e61069f565b60405161021b9190611292565b60405180910390f35b34801561022f575f5ffd5b5061024a60048036038101906102459190611348565b6106a8565b005b348015610257575f5ffd5b50610272600480360381019061026d919061124f565b610804565b60405161027f91906113f6565b60405180910390f35b348015610293575f5ffd5b506102ae60048036038101906102a9919061140f565b610821565b005b3480156102bb575f5ffd5b506102c4610cd0565b6040516102d19190611292565b60405180910390f35b3480156102e5575f5ffd5b506102ee610cd6565b6040516102fb919061146e565b60405180910390f35b6001602052805f5260405f205f915090505481565b60045f9054906101000a900473ffffffffffffffffffffffffffffffffffffffff1673ffffffffffffffffffffffffffffffffffffffff163373ffffffffffffffffffffffffffffffffffffffff161461039f576040517f7bfa4b9f00000000000000000000000000000000000000000000000000000000815260040160405180910390fd5b5f73ffffffffffffffffffffffffffffffffffffffff168273ffffffffffffffffffffffffffffffffffffffff160361040d576040517f08c379a0000000000000000000000000000000000000000000000000000000008152600401610404906114d1565b60405180910390fd5b8060055f8473ffffffffffffffffffffffffffffffffffffffff1673ffffffffffffffffffffffffffffffffffffffff1681526020019081526020015f205f6101000a81548160ff0219169083151502179055507fad6dbebee1460bc7dc438c3201e2ebf7fbb594750b1cc49795d929a8f28d877582826040516104929291906114ef565b60405180910390a15050565b6104a6610cfb565b8060015f3373ffffffffffffffffffffffffffffffffffffffff1673ffffffffffffffffffffffffffffffffffffffff1681526020019081526020015f20541015610526576040517f08c379a000000000000000000000000000000000000000000000000000000000815260040161051d90611560565b60405180910390fd5b8060015f3373ffffffffffffffffffffffffffffffffffffffff1673ffffffffffffffffffffffffffffffffffffffff1681526020019081526020015f205f82825461057291906115ab565b925050819055508060025f82825461058a91906115ab565b925050819055506105dd338260035f9054906101000a900473ffffffffffffffffffffffffffffffffffffffff1673ffffffffffffffffffffffffffffffffffffffff16610d489092919063ffffffff16565b3373ffffffffffffffffffffffffffffffffffffffff167ff4f855c53853d0277a9ff688aadbfe4cb795ca1d5af41704b62cb539f89939ec826040516106239190611292565b60405180910390a2610633610dce565b50565b60035f9054906101000a900473ffffffffffffffffffffffffffffffffffffffff1681565b5f60015f3373ffffffffffffffffffffffffffffffffffffffff1673ffffffffffffffffffffffffffffffffffffffff1681526020019081526020015f2054905090565b5f600254905090565b6106b0610cfb565b5f81116106f2576040517f08c379a00000000000000000000000000000000000000000000000000000000081526004016106e990611628565b60405180910390fd5b8060015f3373ffffffffffffffffffffffffffffffffffffffff1673ffffffffffffffffffffffffffffffffffffffff1681526020019081526020015f205f82825461073e9190611646565b925050819055508060025f8282546107569190611646565b925050819055506107ab33308360035f9054906101000a900473ffffffffffffffffffffffffffffffffffffffff1673ffffffffffffffffffffffffffffffffffffffff16610dd7909392919063ffffffff16565b3373ffffffffffffffffffffffffffffffffffffffff167fb3ef81558ed1a50072a492984535a009da8b129c749500b387f1e5f4886bdde5826040516107f19190611292565b60405180910390a2610801610dce565b50565b6005602052805f5260405f205f915054906101000a900460ff1681565b60045f9054906101000a900473ffffffffffffffffffffffffffffffffffffffff1673ffffffffffffffffffffffffffffffffffffffff163373ffffffffffffffffffffffffffffffffffffffff16146108a7576040517f7bfa4b9f00000000000000000000000000000000000000000000000000000000815260040160405180910390fd5b6108af610cfb565b8160015f8573ffffffffffffffffffffffffffffffffffffffff1673ffffffffffffffffffffffffffffffffffffffff1681526020019081526020015f2054101561092f576040517f08c379a000000000000000000000000000000000000000000000000000000000815260040161092690611560565b60405180910390fd5b60055f8273ffffffffffffffffffffffffffffffffffffffff1673ffffffffffffffffffffffffffffffffffffffff1681526020019081526020015f205f9054906101000a900460ff166109b8576040517f08c379a00000000000000000000000000000000000000000000000000000000081526004016109af906116c3565b60405180910390fd5b5f813b90505f8163ffffffff1611610a05576040517f08c379a00000000000000000000000000000000000000000000000000000000081526004016109fc9061172b565b60405180910390fd5b8260015f8673ffffffffffffffffffffffffffffffffffffffff1673ffffffffffffffffffffffffffffffffffffffff1681526020019081526020015f205f828254610a5191906115ab565b925050819055508260025f828254610a6991906115ab565b925050819055505f60035f9054906101000a900473ffffffffffffffffffffffffffffffffffffffff1690508073ffffffffffffffffffffffffffffffffffffffff1663095ea7b3845f6040518363ffffffff1660e01b8152600401610ad0929190611782565b6020604051808303815f875af1158015610aec573d5f5f3e3d5ffd5b505050506040513d601f19601f82011682018060405250810190610b1091906117bd565b610b4f576040517f08c379a0000000000000000000000000000000000000000000000000000000008152600401610b4690611832565b60405180910390fd5b8073ffffffffffffffffffffffffffffffffffffffff1663095ea7b384866040518363ffffffff1660e01b8152600401610b8a929190611850565b6020604051808303815f875af1158015610ba6573d5f5f3e3d5ffd5b505050506040513d601f19601f82011682018060405250810190610bca91906117bd565b610c09576040517f08c379a0000000000000000000000000000000000000000000000000000000008152600401610c00906118c1565b60405180910390fd5b8273ffffffffffffffffffffffffffffffffffffffff16633b89bb8686866040518363ffffffff1660e01b8152600401610c44929190611850565b5f604051808303815f87803b158015610c5b575f5ffd5b505af1158015610c6d573d5f5f3e3d5ffd5b505050508473ffffffffffffffffffffffffffffffffffffffff167f5aabe59a94326cbf612b52ddc5ffd665415ed13728203f670d72f07d6dd5db948486604051610cb9929190611850565b60405180910390a25050610ccb610dce565b505050565b60025481565b60045f9054906101000a900473ffffffffffffffffffffffffffffffffffffffff1681565b60025f5403610d3f576040517f08c379a0000000000000000000000000000000000000000000000000000000008152600401610d3690611929565b60405180910390fd5b60025f81905550565b610dc98363a9059cbb60e01b8484604051602401610d67929190611850565b604051602081830303815290604052907bffffffffffffffffffffffffffffffffffffffffffffffffffffffff19166020820180517bffffffffffffffffffffffffffffffffffffffffffffffffffffffff8381831617835250505050610e60565b505050565b60015f81905550565b610e5a846323b872dd60e01b858585604051602401610df893929190611947565b604051602081830303815290604052907bffffffffffffffffffffffffffffffffffffffffffffffffffffffff19166020820180517bffffffffffffffffffffffffffffffffffffffffffffffffffffffff8381831617835250505050610e60565b50505050565b5f610ec1826040518060400160405280602081526020017f5361666545524332303a206c6f772d6c6576656c2063616c6c206661696c65648152508573ffffffffffffffffffffffffffffffffffffffff16610f269092919063ffffffff16565b90505f81511480610ee2575080806020019051810190610ee191906117bd565b5b610f21576040517f08c379a0000000000000000000000000000000000000000000000000000000008152600401610f18906119ec565b60405180910390fd5b505050565b6060610f3484845f85610f3d565b90509392505050565b606082471015610f82576040517f08c379a0000000000000000000000000000000000000000000000000000000008152600401610f7990611a7a565b60405180910390fd5b5f5f8673ffffffffffffffffffffffffffffffffffffffff168587604051610faa9190611aea565b5f6040518083038185875af1925050503d805f8114610fe4576040519150601f19603f3d011682016040523d82523d5f602084013e610fe9565b606091505b5091509150610ffa87838387611006565b92505050949350505050565b60608315611067575f83510361105f5761101f8561107a565b61105e576040517f08c379a000000000000000000000000000000000000000000000000000000000815260040161105590611b4a565b60405180910390fd5b5b829050611072565b611071838361109c565b5b949350505050565b5f5f8273ffffffffffffffffffffffffffffffffffffffff163b119050919050565b5f825111156110ae5781518083602001fd5b806040517f08c379a00000000000000000000000000000000000000000000000000000000081526004016110e29190611bba565b60405180910390fd5b5f82825260208201905092915050565b7f5661756c7420646f6573206e6f742061636365707420455448000000000000005f82015250565b5f61112f6019836110eb565b915061113a826110fb565b602082019050919050565b5f6020820190508181035f83015261115c81611123565b9050919050565b7f46616c6c6261636b3a205661756c7420646f6573206e6f7420616363657074205f8201527f4554480000000000000000000000000000000000000000000000000000000000602082015250565b5f6111bd6023836110eb565b91506111c882611163565b604082019050919050565b5f6020820190508181035f8301526111ea816111b1565b9050919050565b5f5ffd5b5f73ffffffffffffffffffffffffffffffffffffffff82169050919050565b5f61121e826111f5565b9050919050565b61122e81611214565b8114611238575f5ffd5b50565b5f8135905061124981611225565b92915050565b5f60208284031215611264576112636111f1565b5b5f6112718482850161123b565b91505092915050565b5f819050919050565b61128c8161127a565b82525050565b5f6020820190506112a55f830184611283565b92915050565b5f8115159050919050565b6112bf816112ab565b81146112c9575f5ffd5b50565b5f813590506112da816112b6565b92915050565b5f5f604083850312156112f6576112f56111f1565b5b5f6113038582860161123b565b9250506020611314858286016112cc565b9150509250929050565b6113278161127a565b8114611331575f5ffd5b50565b5f813590506113428161131e565b92915050565b5f6020828403121561135d5761135c6111f1565b5b5f61136a84828501611334565b91505092915050565b5f819050919050565b5f61139661139161138c846111f5565b611373565b6111f5565b9050919050565b5f6113a78261137c565b9050919050565b5f6113b88261139d565b9050919050565b6113c8816113ae565b82525050565b5f6020820190506113e15f8301846113bf565b92915050565b6113f0816112ab565b82525050565b5f6020820190506114095f8301846113e7565b92915050565b5f5f5f60608486031215611426576114256111f1565b5b5f6114338682870161123b565b935050602061144486828701611334565b92505060406114558682870161123b565b9150509250925092565b61146881611214565b82525050565b5f6020820190506114815f83018461145f565b92915050565b7f496e76616c6964207374726174656779206164647265737300000000000000005f82015250565b5f6114bb6018836110eb565b91506114c682611487565b602082019050919050565b5f6020820190508181035f8301526114e8816114af565b9050919050565b5f6040820190506115025f83018561145f565b61150f60208301846113e7565b9392505050565b7f496e73756666696369656e742062616c616e63650000000000000000000000005f82015250565b5f61154a6014836110eb565b915061155582611516565b602082019050919050565b5f6020820190508181035f8301526115778161153e565b9050919050565b7f4e487b71000000000000000000000000000000000000000000000000000000005f52601160045260245ffd5b5f6115b58261127a565b91506115c08361127a565b92508282039050818111156115d8576115d761157e565b5b92915050565b7f416d6f756e74206d7573742062652067726561746572207468616e207a65726f5f82015250565b5f6116126020836110eb565b915061161d826115de565b602082019050919050565b5f6020820190508181035f83015261163f81611606565b9050919050565b5f6116508261127a565b915061165b8361127a565b92508282019050808211156116735761167261157e565b5b92915050565b7f5374726174656779206e6f7420617070726f76656400000000000000000000005f82015250565b5f6116ad6015836110eb565b91506116b882611679565b602082019050919050565b5f6020820190508181035f8301526116da816116a1565b9050919050565b7f5374726174656779206d757374206265206120636f6e747261637400000000005f82015250565b5f611715601b836110eb565b9150611720826116e1565b602082019050919050565b5f6020820190508181035f83015261174281611709565b9050919050565b5f819050919050565b5f61176c61176761176284611749565b611373565b61127a565b9050919050565b61177c81611752565b82525050565b5f6040820190506117955f83018561145f565b6117a26020830184611773565b9392505050565b5f815190506117b7816112b6565b92915050565b5f602082840312156117d2576117d16111f1565b5b5f6117df848285016117a9565b91505092915050565b7f5265736574206661696c656400000000000000000000000000000000000000005f82015250565b5f61181c600c836110eb565b9150611827826117e8565b602082019050919050565b5f6020820190508181035f83015261184981611810565b9050919050565b5f6040820190506118635f83018561145f565b6118706020830184611283565b9392505050565b7f417070726f7665206661696c65640000000000000000000000000000000000005f82015250565b5f6118ab600e836110eb565b91506118b682611877565b602082019050919050565b5f6020820190508181035f8301526118d88161189f565b9050919050565b7f5265656e7472616e637947756172643a207265656e7472616e742063616c6c005f82015250565b5f611913601f836110eb565b915061191e826118df565b602082019050919050565b5f6020820190508181035f83015261194081611907565b9050919050565b5f60608201905061195a5f83018661145f565b611967602083018561145f565b6119746040830184611283565b949350505050565b7f5361666545524332303a204552433230206f7065726174696f6e20646964206e5f8201527f6f74207375636365656400000000000000000000000000000000000000000000602082015250565b5f6119d6602a836110eb565b91506119e18261197c565b604082019050919050565b5f6020820190508181035f830152611a03816119ca565b9050919050565b7f416464726573733a20696e73756666696369656e742062616c616e636520666f5f8201527f722063616c6c0000000000000000000000000000000000000000000000000000602082015250565b5f611a646026836110eb565b9150611a6f82611a0a565b604082019050919050565b5f6020820190508181035f830152611a9181611a58565b9050919050565b5f81519050919050565b5f81905092915050565b8281835e5f83830152505050565b5f611ac482611a98565b611ace8185611aa2565b9350611ade818560208601611aac565b80840191505092915050565b5f611af58284611aba565b915081905092915050565b7f416464726573733a2063616c6c20746f206e6f6e2d636f6e74726163740000005f82015250565b5f611b34601d836110eb565b9150611b3f82611b00565b602082019050919050565b5f6020820190508181035f830152611b6181611b28565b9050919050565b5f81519050919050565b5f601f19601f8301169050919050565b5f611b8c82611b68565b611b9681856110eb565b9350611ba6818560208601611aac565b611baf81611b72565b840191505092915050565b5f6020820190508181035f830152611bd28184611b82565b90509291505056fea26469706673582212200790e28b58a3a61141efb6f177712f6f326c5338df80f4ed21734f319fc8ce2264736f6c634300081c0033","linkReferences":{}},"methodIdentifiers":{"admin()":"f851a440","allocateFunds(address,uint256,address)":"dd46f9d5","approvedStrategies(address)":"c613aec0","deposit(uint256)":"b6b55f25","getTotalValueLocked()":"b26025aa","getUserDeposits()":"94951944","setApprovedStrategy(address,bool)":"12a7bd4c","totalValueLocked()":"ec18154e","usdc()":"3e413bee","userDeposits(address)":"0ba36dcd","withdraw(uint256)":"2e1a7d4d"},"id":10}