{"abi":[{"type":"constructor","inputs":[{"name":"_usdcAddress","type":"address","internalType":"address"},{"name":"_admin","type":"address","internalType":"address"}],"stateMutability":"nonpayable"},{"type":"fallback","stateMutability":"payable"},{"type":"receive","stateMutability":"payable"},{"type":"function","name":"acceptAdminOwnership","inputs":[],"outputs":[],"stateMutability":"nonpayable"},{"type":"function","name":"admin","inputs":[],"outputs":[{"name":"","type":"address","internalType":"address"}],"stateMutability":"view"},{"type":"function","name":"allocateFunds","inputs":[{"name":"user","type":"address","internalType":"address"},{"name":"amount","type":"uint256","internalType":"uint256"},{"name":"strategy","type":"address","internalType":"address"}],"outputs":[],"stateMutability":"nonpayable"},{"type":"function","name":"approvedStrategies","inputs":[{"name":"","type":"address","internalType":"address"}],"outputs":[{"name":"","type":"bool","internalType":"bool"}],"stateMutability":"view"},{"type":"function","name":"chainlink_Admin","inputs":[],"outputs":[{"name":"","type":"address","internalType":"address"}],"stateMutability":"view"},{"type":"function","name":"deposit","inputs":[{"name":"amount","type":"uint256","internalType":"uint256"}],"outputs":[],"stateMutability":"nonpayable"},{"type":"function","name":"getTotalValueLocked","inputs":[],"outputs":[{"name":"","type":"uint256","internalType":"uint256"}],"stateMutability":"view"},{"type":"function","name":"getUserDeposits","inputs":[],"outputs":[{"name":"","type":"uint256","internalType":"uint256"}],"stateMutability":"view"},{"type":"function","name":"pause","inputs":[],"outputs":[],"stateMutability":"nonpayable"},{"type":"function","name":"paused","inputs":[],"outputs":[{"name":"","type":"bool","internalType":"bool"}],"stateMutability":"view"},{"type":"function","name":"pendingAdmin","inputs":[],"outputs":[{"name":"","type":"address","internalType":"address"}],"stateMutability":"view"},{"type":"function","name":"recoverERC20","inputs":[{"name":"tokenAddress","type":"address","internalType":"contract IERC20"},{"name":"amount","type":"uint256","internalType":"uint256"}],"outputs":[],"stateMutability":"nonpayable"},{"type":"function","name":"setApprovedStrategy","inputs":[{"name":"strategy","type":"address","internalType":"address"},{"name":"approved","type":"bool","internalType":"bool"}],"outputs":[],"stateMutability":"nonpayable"},{"type":"function","name":"setChainlinkAdmin","inputs":[{"name":"_admin","type":"address","internalType":"address"}],"outputs":[],"stateMutability":"nonpayable"},{"type":"function","name":"totalValueLocked","inputs":[],"outputs":[{"name":"","type":"uint256","internalType":"uint256"}],"stateMutability":"view"},{"type":"function","name":"transferAdminOwnership","inputs":[{"name":"newAdmin","type":"address","internalType":"address"}],"outputs":[],"stateMutability":"nonpayable"},{"type":"function","name":"unpause","inputs":[],"outputs":[],"stateMutability":"nonpayable"},{"type":"function","name":"usdc","inputs":[],"outputs":[{"name":"","type":"address","internalType":"contract IERC20"}],"stateMutability":"view"},{"type":"function","name":"userDeposits","inputs":[{"name":"","type":"address","internalType":"address"}],"outputs":[{"name":"","type":"uint256","internalType":"uint256"}],"stateMutability":"view"},{"type":"function","name":"withdraw","inputs":[{"name":"amount","type":"uint256","internalType":"uint256"}],"outputs":[],"stateMutability":"nonpayable"},{"type":"event","name":"AdminTransferAccepted","inputs":[{"name":"newAdmin","type":"address","indexed":true,"internalType":"address"}],"anonymous":false},{"type":"event","name":"AdminTransferProposed","inputs":[{"name":"newAdmin","type":"address","indexed":true,"internalType":"address"}],"anonymous":false},{"type":"event","name":"DepositSuccessful","inputs":[{"name":"user","type":"address","indexed":true,"internalType":"address"},{"name":"amount","type":"uint256","indexed":false,"internalType":"uint256"}],"anonymous":false},{"type":"event","name":"FundsAllocated","inputs":[{"name":"user","type":"address","indexed":true,"internalType":"address"},{"name":"strategy","type":"address","indexed":true,"internalType":"address"},{"name":"amount","type":"uint256","indexed":false,"internalType":"uint256"}],"anonymous":false},{"type":"event","name":"Paused","inputs":[{"name":"account","type":"address","indexed":false,"internalType":"address"}],"anonymous":false},{"type":"event","name":"StrategyApprovalUpdated","inputs":[{"name":"strategy","type":"address","indexed":true,"internalType":"address"},{"name":"approved","type":"bool","indexed":false,"internalType":"bool"}],"anonymous":false},{"type":"event","name":"TokensRecovered","inputs":[{"name":"tokenAddress","type":"address","indexed":true,"internalType":"address"},{"name":"recipient","type":"address","indexed":true,"internalType":"address"},{"name":"amount","type":"uint256","indexed":false,"internalType":"uint256"}],"anonymous":false},{"type":"event","name":"Unpaused","inputs":[{"name":"account","type":"address","indexed":false,"internalType":"address"}],"anonymous":false},{"type":"event","name":"WithdrawalSuccessful","inputs":[{"name":"user","type":"address","indexed":true,"internalType":"address"},{"name":"amount","type":"uint256","indexed":false,"internalType":"uint256"}],"anonymous":false},{"type":"error","name":"NotAdmin","inputs":[]},{"type":"error","name":"NotChainlinkAdmin","inputs":[]}],"bytecode":{"object":"0x60a03461015757601f61128538819003918201601f19168301916001600160401b0383118484101761015b57808492604094855283398101031261015757610052602061004b8361016f565b920161016f565b60015f819055805460ff191690556001600160a01b03909116908115610112576001600160a01b03169081156100cd57608052600480546001600160a01b03191691909117905560405161110190816101848239608051818181610298015281816105640152818161063c015281816109f60152610ac30152f35b60405162461bcd60e51b815260206004820152601560248201527f496e76616c69642061646d696e206164647265737300000000000000000000006044820152606490fd5b60405162461bcd60e51b815260206004820152601460248201527f496e76616c6964205553444320616464726573730000000000000000000000006044820152606490fd5b5f80fd5b634e487b7160e01b5f52604160045260245ffd5b51906001600160a01b03821682036101575756fe60808060405260043610156100ac575b5036156100675760405162461bcd60e51b815260206004820152602360248201527f46616c6c6261636b3a205661756c7420646f6573206e6f74206163636570742060448201526208aa8960eb1b6064820152608490fd5b60405162461bcd60e51b815260206004820152601960248201527f5661756c7420646f6573206e6f742061636365707420455448000000000000006044820152606490fd5b5f905f3560e01c90816308a80ff514610c54575080630ba36dcd14610c1c57806312a7bd4c14610b415780632678224714610b195780632e1a7d4d14610a4d5780633577ce6314610a255780633e413bee146109e15780633f4ba83a146109445780635c975abb14610922578063645b0ed5146108785780638456cb59146108165780638980f11f146105fe57806394951944146105d7578063b26025aa146105ba578063b6b55f25146104d7578063c613aec01461049a578063d40797891461043e578063dd46f9d5146101d9578063ec18154e146101bb5763f851a4400361000f57346101b857806003193601126101b8576004546040516001600160a01b039091168152602090f35b80fd5b50346101b857806003193601126101b8576020600354604051908152f35b5034610350576060366003190112610350576101f3610d0a565b6044356001600160a01b0381169160243590838303610350576005546001600160a01b0316330361042f57610226610e56565b61022e610e12565b81156103d65760018060a01b03811692835f5260026020526102568360405f20541015610d6b565b845f52600760205260ff60405f205416156103995763ffffffff813b161561035457826102bc91855f52600260205260405f20610294838254610dae565b90557f0000000000000000000000000000000000000000000000000000000000000000610eaa565b833b1561035057604051631dc4ddc360e11b81526001600160a01b03919091166004820152602481018290525f8160448183885af180156103455761032f575b5060207f5aabe59a94326cbf612b52ddc5ffd665415ed13728203f670d72f07d6dd5db9491604051908152a36001815580f35b61033c9194505f90610dcf565b5f9260206102fc565b6040513d5f823e3d90fd5b5f80fd5b60405162461bcd60e51b815260206004820152601b60248201527f5374726174656779206d757374206265206120636f6e747261637400000000006044820152606490fd5b60405162461bcd60e51b815260206004820152601560248201527414dd1c985d1959de481b9bdd08185c1c1c9bdd9959605a1b6044820152606490fd5b60405162461bcd60e51b815260206004820152602b60248201527f416c6c6f636174696f6e20616d6f756e74206d7573742062652067726561746560448201526a72207468616e207a65726f60a81b6064820152608490fd5b6355e2cf4360e11b5f5260045ffd5b3461035057602036600319011261035057610457610d0a565b6004546001600160a01b0316330361048b57600580546001600160a01b0319166001600160a01b0392909216919091179055005b637bfa4b9f60e01b5f5260045ffd5b34610350576020366003190112610350576001600160a01b036104bb610d0a565b165f526007602052602060ff60405f2054166040519015158152f35b34610350576020366003190112610350576004356104f3610e56565b6104fb610e12565b610506811515610d20565b335f52600260205260405f2061051d828254610e05565b905561052b81600354610e05565b6003556105886040516323b872dd60e01b602082015233602482015230604482015282606482015260648152610562608482610dcf565b7f0000000000000000000000000000000000000000000000000000000000000000610eed565b6040519081527fb3ef81558ed1a50072a492984535a009da8b129c749500b387f1e5f4886bdde560203392a260015f55005b34610350575f366003190112610350576020600354604051908152f35b34610350575f36600319011261035057335f526002602052602060405f2054604051908152f35b34610350576040366003190112610350576004356001600160a01b038116808203610350576024359160018060a01b03600454169081330361048b577f00000000000000000000000000000000000000000000000000000000000000006001600160a01b031683146107d157831561077a576040516370a0823160e01b8152306004820152602081602481875afa80156103455785915f91610745575b50106106e7576106ac918491610eaa565b6004546040519283526001600160a01b0316917f401f439d865a766757ec78675925bd67198d5e78805aa41691b34b5d6a6cbbe690602090a3005b60405162461bcd60e51b815260206004820152603060248201527f496e73756666696369656e7420746f6b656e2062616c616e636520696e20566160448201526f756c7420666f72207265636f7665727960801b6064820152608490fd5b9150506020813d602011610772575b8161076160209383610dcf565b81010312610350578490518661069b565b3d9150610754565b60405162461bcd60e51b815260206004820152602960248201527f5265636f7665727920616d6f756e74206d7573742062652067726561746572206044820152687468616e207a65726f60b81b6064820152608490fd5b60405162461bcd60e51b815260206004820152601f60248201527f43616e6e6f74207265636f76657220555344433a206d61696e206173736574006044820152606490fd5b34610350575f366003190112610350576004546001600160a01b0316330361048b57610840610e12565b600160ff19815416176001557f62e78cea01bee320cd4e420270b5ea74000d11b0c9f74754ebdbfc544b05a2586020604051338152a1005b34610350575f366003190112610350576006546001600160a01b03811690338290036108dd57600480546001600160a01b03199081168417909155166006557f24a7c28d8edc5ccd4ef428ebc1dce34762fe38b7fdcca1f3f20c818f04deb1565f80a2005b60405162461bcd60e51b815260206004820152601d60248201527f596f7520617265206e6f74207468652070656e64696e672061646d696e0000006044820152606490fd5b34610350575f36600319011261035057602060ff600154166040519015158152f35b34610350575f366003190112610350576004546001600160a01b0316330361048b5760015460ff8116156109a55760ff19166001557f5db9ee0a495bf2e6ff9c91a7834c1ba4fdd244a5e8aa4e537bd38aeae4b073aa6020604051338152a1005b60405162461bcd60e51b815260206004820152601460248201527314185d5cd8589b194e881b9bdd081c185d5cd95960621b6044820152606490fd5b34610350575f366003190112610350576040517f00000000000000000000000000000000000000000000000000000000000000006001600160a01b03168152602090f35b34610350575f366003190112610350576005546040516001600160a01b039091168152602090f35b3461035057602036600319011261035057600435610a69610e56565b610a71610e12565b610a7c811515610d20565b335f526002602052610a948160405f20541015610d6b565b335f52600260205260405f20610aab828254610dae565b9055610ab981600354610dae565b600355610ae781337f0000000000000000000000000000000000000000000000000000000000000000610eaa565b6040519081527ff4f855c53853d0277a9ff688aadbfe4cb795ca1d5af41704b62cb539f89939ec60203392a260015f55005b34610350575f366003190112610350576006546040516001600160a01b039091168152602090f35b3461035057604036600319011261035057610b5a610d0a565b60243590811515809203610350576004546001600160a01b0316330361048b57610b82610e12565b6001600160a01b0316908115610bd75760207fad6dbebee1460bc7dc438c3201e2ebf7fbb594750b1cc49795d929a8f28d877591835f526007825260405f2060ff1981541660ff8316179055604051908152a2005b60405162461bcd60e51b815260206004820152601860248201527f496e76616c6964207374726174656779206164647265737300000000000000006044820152606490fd5b34610350576020366003190112610350576001600160a01b03610c3d610d0a565b165f526002602052602060405f2054604051908152f35b3461035057602036600319011261035057610c6d610d0a565b6004546001600160a01b0316330361048b576001600160a01b0316908115610cc85750600680546001600160a01b031916821790557fd3695f12c05bea129b5971fed99014a4efd003a3a8b45d6952b74fbd31d85d8a5f80a2005b62461bcd60e51b815260206004820181905260248201527f4e65772061646d696e2063616e6e6f74206265207a65726f20616464726573736044820152606490fd5b600435906001600160a01b038216820361035057565b15610d2757565b606460405162461bcd60e51b815260206004820152602060248201527f416d6f756e74206d7573742062652067726561746572207468616e207a65726f6044820152fd5b15610d7257565b60405162461bcd60e51b8152602060048201526014602482015273496e73756666696369656e742062616c616e636560601b6044820152606490fd5b91908203918211610dbb57565b634e487b7160e01b5f52601160045260245ffd5b90601f8019910116810190811067ffffffffffffffff821117610df157604052565b634e487b7160e01b5f52604160045260245ffd5b91908201809211610dbb57565b60ff60015416610e1e57565b60405162461bcd60e51b815260206004820152601060248201526f14185d5cd8589b194e881c185d5cd95960821b6044820152606490fd5b60025f5414610e655760025f55565b60405162461bcd60e51b815260206004820152601f60248201527f5265656e7472616e637947756172643a207265656e7472616e742063616c6c006044820152606490fd5b60405163a9059cbb60e01b60208201526001600160a01b03929092166024830152604480830193909352918152610eeb91610ee6606483610dcf565b610eed565b565b60018060a01b0316905f8060405192610f07604085610dcf565b602084527f5361666545524332303a206c6f772d6c6576656c2063616c6c206661696c6564602085015260208151910182865af13d1561100e573d9067ffffffffffffffff8211610df157604051610f7d949092610f6f601f8201601f191660200185610dcf565b83523d5f602085013e611017565b8051908115918215610feb575b505015610f9357565b60405162461bcd60e51b815260206004820152602a60248201527f5361666545524332303a204552433230206f7065726174696f6e20646964206e6044820152691bdd081cdd58d8d9595960b21b6064820152608490fd5b819250906020918101031261035057602001518015158103610350575f80610f8a565b91610f7d926060915b91929015611079575081511561102b575090565b3b156110345790565b60405162461bcd60e51b815260206004820152601d60248201527f416464726573733a2063616c6c20746f206e6f6e2d636f6e74726163740000006044820152606490fd5b82519091501561108c5750805190602001fd5b604460209160405192839162461bcd60e51b83528160048401528051918291826024860152018484015e5f828201840152601f01601f19168101030190fdfea26469706673582212206cf7586aa56b30de5082a1a09b8d4838769bc88288057984c8d15bda1ac2e07264736f6c634300081c0033","linkReferences":{}},"methodIdentifiers":{"acceptAdminOwnership()":"645b0ed5","admin()":"f851a440","allocateFunds(address,uint256,address)":"dd46f9d5","approvedStrategies(address)":"c613aec0","chainlink_Admin()":"3577ce63","deposit(uint256)":"b6b55f25","getTotalValueLocked()":"b26025aa","getUserDeposits()":"94951944","pause()":"8456cb59","paused()":"5c975abb","pendingAdmin()":"26782247","recoverERC20(address,uint256)":"8980f11f","setApprovedStrategy(address,bool)":"12a7bd4c","setChainlinkAdmin(address)":"d4079789","totalValueLocked()":"ec18154e","transferAdminOwnership(address)":"08a80ff5","unpause()":"3f4ba83a","usdc()":"3e413bee","userDeposits(address)":"0ba36dcd","withdraw(uint256)":"2e1a7d4d"},"id":35}