{"abi":[{"type":"constructor","inputs":[{"name":"_usdcAddress","type":"address","internalType":"address"},{"name":"_usdyAddress","type":"address","internalType":"address"},{"name":"_mockSwap","type":"address","internalType":"address"},{"name":"_admin","type":"address","internalType":"address"},{"name":"_chainlink_Admin","type":"address","internalType":"address"}],"stateMutability":"nonpayable"},{"type":"fallback","stateMutability":"payable"},{"type":"receive","stateMutability":"payable"},{"type":"function","name":"acceptAdminOwnership","inputs":[],"outputs":[],"stateMutability":"nonpayable"},{"type":"function","name":"admin","inputs":[],"outputs":[{"name":"","type":"address","internalType":"address"}],"stateMutability":"view"},{"type":"function","name":"allocateFunds","inputs":[{"name":"user","type":"address","internalType":"address"},{"name":"amount","type":"uint256","internalType":"uint256"},{"name":"strategy","type":"address","internalType":"address"}],"outputs":[],"stateMutability":"nonpayable"},{"type":"function","name":"approvedStrategies","inputs":[{"name":"","type":"address","internalType":"address"}],"outputs":[{"name":"","type":"bool","internalType":"bool"}],"stateMutability":"view"},{"type":"function","name":"chainlink_Admin","inputs":[],"outputs":[{"name":"","type":"address","internalType":"address"}],"stateMutability":"view"},{"type":"function","name":"deposit","inputs":[{"name":"amount","type":"uint256","internalType":"uint256"}],"outputs":[],"stateMutability":"nonpayable"},{"type":"function","name":"getTotalValueLocked","inputs":[],"outputs":[{"name":"","type":"uint256","internalType":"uint256"}],"stateMutability":"view"},{"type":"function","name":"getUserDeposits","inputs":[],"outputs":[{"name":"","type":"uint256","internalType":"uint256"}],"stateMutability":"view"},{"type":"function","name":"mockSwap","inputs":[],"outputs":[{"name":"","type":"address","internalType":"address"}],"stateMutability":"view"},{"type":"function","name":"pause","inputs":[],"outputs":[],"stateMutability":"nonpayable"},{"type":"function","name":"paused","inputs":[],"outputs":[{"name":"","type":"bool","internalType":"bool"}],"stateMutability":"view"},{"type":"function","name":"pendingAdmin","inputs":[],"outputs":[{"name":"","type":"address","internalType":"address"}],"stateMutability":"view"},{"type":"function","name":"recoverERC20","inputs":[{"name":"tokenAddress","type":"address","internalType":"contract IERC20"},{"name":"amount","type":"uint256","internalType":"uint256"}],"outputs":[],"stateMutability":"nonpayable"},{"type":"function","name":"setApprovedStrategy","inputs":[{"name":"strategy","type":"address","internalType":"address"},{"name":"approved","type":"bool","internalType":"bool"}],"outputs":[],"stateMutability":"nonpayable"},{"type":"function","name":"swapUSDYtoUSDC","inputs":[{"name":"amount","type":"uint256","internalType":"uint256"}],"outputs":[],"stateMutability":"nonpayable"},{"type":"function","name":"totalValueLocked","inputs":[],"outputs":[{"name":"","type":"uint256","internalType":"uint256"}],"stateMutability":"view"},{"type":"function","name":"transferAdminOwnership","inputs":[{"name":"newAdmin","type":"address","internalType":"address"}],"outputs":[],"stateMutability":"nonpayable"},{"type":"function","name":"unpause","inputs":[],"outputs":[],"stateMutability":"nonpayable"},{"type":"function","name":"usdc","inputs":[],"outputs":[{"name":"","type":"address","internalType":"contract IERC20"}],"stateMutability":"view"},{"type":"function","name":"usdy","inputs":[],"outputs":[{"name":"","type":"address","internalType":"contract IERC20"}],"stateMutability":"view"},{"type":"function","name":"userDeposits","inputs":[{"name":"","type":"address","internalType":"address"}],"outputs":[{"name":"","type":"uint256","internalType":"uint256"}],"stateMutability":"view"},{"type":"function","name":"withdraw","inputs":[{"name":"amount","type":"uint256","internalType":"uint256"}],"outputs":[],"stateMutability":"nonpayable"},{"type":"event","name":"AdminTransferAccepted","inputs":[{"name":"newAdmin","type":"address","indexed":true,"internalType":"address"}],"anonymous":false},{"type":"event","name":"AdminTransferProposed","inputs":[{"name":"newAdmin","type":"address","indexed":true,"internalType":"address"}],"anonymous":false},{"type":"event","name":"DepositSuccessful","inputs":[{"name":"user","type":"address","indexed":true,"internalType":"address"},{"name":"amount","type":"uint256","indexed":false,"internalType":"uint256"}],"anonymous":false},{"type":"event","name":"FundsAllocated","inputs":[{"name":"user","type":"address","indexed":true,"internalType":"address"},{"name":"strategy","type":"address","indexed":true,"internalType":"address"},{"name":"amount","type":"uint256","indexed":false,"internalType":"uint256"}],"anonymous":false},{"type":"event","name":"Paused","inputs":[{"name":"account","type":"address","indexed":false,"internalType":"address"}],"anonymous":false},{"type":"event","name":"StrategyApprovalUpdated","inputs":[{"name":"strategy","type":"address","indexed":true,"internalType":"address"},{"name":"approved","type":"bool","indexed":false,"internalType":"bool"}],"anonymous":false},{"type":"event","name":"TokensRecovered","inputs":[{"name":"tokenAddress","type":"address","indexed":true,"internalType":"address"},{"name":"recipient","type":"address","indexed":true,"internalType":"address"},{"name":"amount","type":"uint256","indexed":false,"internalType":"uint256"}],"anonymous":false},{"type":"event","name":"Unpaused","inputs":[{"name":"account","type":"address","indexed":false,"internalType":"address"}],"anonymous":false},{"type":"event","name":"WithdrawalSuccessful","inputs":[{"name":"user","type":"address","indexed":true,"internalType":"address"},{"name":"amount","type":"uint256","indexed":false,"internalType":"uint256"}],"anonymous":false},{"type":"error","name":"NotAdmin","inputs":[]},{"type":"error","name":"NotChainlinkAdmin","inputs":[]}],"bytecode":{"object":"0x60e0346102b557601f61189538819003918201601f19168301916001600160401b038311848410176102b95780849260a0946040528339810103126102b557610047816102cd565b610053602083016102cd565b91610060604082016102cd565b906100796080610072606084016102cd565b92016102cd565b60015f819055805460ff191690556001600160a01b03909316938415610270576001600160a01b031690811561022b576001600160a01b038316156101e6576001600160a01b03169283156101a1576001600160a01b031693841561015c5760805260a05260c05260018060a01b0319600454161760045560018060a01b031960055416176005556040516115b390816102e28239608051818181610690015281816108ce015281816109ea01528181610e6c0152610f39015260a0518181816101e7015281816109560152610a1a015260c0518181816102700152610d8b0152f35b60405162461bcd60e51b815260206004820152601f60248201527f496e76616c696420436861696e6c696e6b2041646d696e2061646472657373006044820152606490fd5b60405162461bcd60e51b815260206004820152601560248201527f496e76616c69642061646d696e206164647265737300000000000000000000006044820152606490fd5b60405162461bcd60e51b815260206004820152601860248201527f496e76616c6964204d6f636b53776170206164647265737300000000000000006044820152606490fd5b60405162461bcd60e51b815260206004820152601460248201527f496e76616c6964205553445920616464726573730000000000000000000000006044820152606490fd5b60405162461bcd60e51b815260206004820152601460248201527f496e76616c6964205553444320616464726573730000000000000000000000006044820152606490fd5b5f80fd5b634e487b7160e01b5f52604160045260245ffd5b51906001600160a01b03821682036102b55756fe60808060405260043610156100ac575b5036156100675760405162461bcd60e51b815260206004820152602360248201527f46616c6c6261636b3a205661756c7420646f6573206e6f74206163636570742060448201526208aa8960eb1b6064820152608490fd5b60405162461bcd60e51b815260206004820152601960248201527f5661756c7420646f6573206e6f742061636365707420455448000000000000006044820152606490fd5b5f905f3560e01c90816308a80ff5146110ca575080630ba36dcd1461109257806312a7bd4c14610fb75780632678224714610f8f5780632e1a7d4d14610ec35780633577ce6314610e9b5780633e413bee14610e575780633f4ba83a14610dba57806350181e8614610d765780635c975abb14610d54578063645b0ed514610caa5780638456cb5914610c485780638980f11f146109ac578063949519441461098557806398d506e914610941578063b26025aa14610924578063b6b55f251461086f578063c613aec014610832578063dd46f9d5146105d1578063ec18154e146105b3578063f851a4401461058a5763fa45c7320361000f5734610587576020366003190112610587576004356101c26112cc565b6101ca611288565b80159081610542576040516370a0823160e01b81523360048201527f000000000000000000000000000000000000000000000000000000000000000091906001600160a01b03831690602081602481855afa80156104bd578391879161050d575b50106104c85761023d8230338661135b565b64e8d4a5100082049333865260026020526040862061025d86825461127b565b905561026b8560035461127b565b6003557f0000000000000000000000000000000000000000000000000000000000000000915f9115610445575b50156103e15760246020926102f187956040519063095ea7b360e01b878301526102ec826102de868989840160209093929193604081019460018060a01b031681520152565b03601f198101845283611245565b61139f565b604051637d22e39960e11b815260048101919091529384928391906001600160a01b03165af180156103d6578291849161039d575b500361035f576040519081527fb3ef81558ed1a50072a492984535a009da8b129c749500b387f1e5f4886bdde560203392a26001815580f35b60405162461bcd60e51b8152602060048201526016602482015275155b995e1c1958dd1959081cddd85c081bdd5d1c1d5d60521b6044820152606490fd5b9150506020813d6020116103ce575b816103b960209383611245565b810103126103ca578190515f610326565b5f80fd5b3d91506103ac565b6040513d85823e3d90fd5b60405162461bcd60e51b815260206004820152603660248201527f5361666545524332303a20617070726f76652066726f6d206e6f6e2d7a65726f60448201527520746f206e6f6e2d7a65726f20616c6c6f77616e636560501b6064820152608490fd5b604051636eb1769f60e11b81523060048201526001600160a01b03841660248201529150602090829060449082905afa9081156104bd57869161048b575b50155f610298565b90506020813d6020116104b5575b816104a660209383611245565b810103126103ca57515f610483565b3d9150610499565b6040513d88823e3d90fd5b60405162461bcd60e51b815260206004820152601960248201527f496e73756666696369656e7420555344592062616c616e6365000000000000006044820152606490fd5b9150506020813d60201161053a575b8161052960209383611245565b810103126103ca578290515f61022b565b3d915061051c565b60405162461bcd60e51b815260206004820152601d60248201527f416d6f756e74206d7573742062652067726561746572207468616e20300000006044820152606490fd5b80fd5b50346105875780600319360112610587576004546040516001600160a01b039091168152602090f35b50346105875780600319360112610587576020600354604051908152f35b50346103ca5760603660031901126103ca576105eb611180565b6044356001600160a01b03811691602435908383036103ca576005546001600160a01b031633036108235761061e6112cc565b610626611288565b81156107ca5760018060a01b03811692835f52600260205261064e8360405f205410156111e1565b845f52600760205260ff60405f2054161561078d5763ffffffff813b161561074857826106b491855f52600260205260405f2061068c838254611224565b90557f0000000000000000000000000000000000000000000000000000000000000000611320565b833b156103ca57604051631dc4ddc360e11b81526001600160a01b03919091166004820152602481018290525f8160448183885af1801561073d57610727575b5060207f5aabe59a94326cbf612b52ddc5ffd665415ed13728203f670d72f07d6dd5db9491604051908152a36001815580f35b6107349194505f90611245565b5f9260206106f4565b6040513d5f823e3d90fd5b60405162461bcd60e51b815260206004820152601b60248201527f5374726174656779206d757374206265206120636f6e747261637400000000006044820152606490fd5b60405162461bcd60e51b815260206004820152601560248201527414dd1c985d1959de481b9bdd08185c1c1c9bdd9959605a1b6044820152606490fd5b60405162461bcd60e51b815260206004820152602b60248201527f416c6c6f636174696f6e20616d6f756e74206d7573742062652067726561746560448201526a72207468616e207a65726f60a81b6064820152608490fd5b6355e2cf4360e11b5f5260045ffd5b346103ca5760203660031901126103ca576001600160a01b03610853611180565b165f526007602052602060ff60405f2054166040519015158152f35b346103ca5760203660031901126103ca5760043561088b6112cc565b610893611288565b61089e811515611196565b335f52600260205260405f206108b582825461127b565b90556108c38160035461127b565b6003556108f28130337f000000000000000000000000000000000000000000000000000000000000000061135b565b6040519081527fb3ef81558ed1a50072a492984535a009da8b129c749500b387f1e5f4886bdde560203392a260015f55005b346103ca575f3660031901126103ca576020600354604051908152f35b346103ca575f3660031901126103ca576040517f00000000000000000000000000000000000000000000000000000000000000006001600160a01b03168152602090f35b346103ca575f3660031901126103ca57335f526002602052602060405f2054604051908152f35b346103ca5760403660031901126103ca576004356001600160a01b0381168082036103ca576024359160018060a01b036004541690813303610c39577f00000000000000000000000000000000000000000000000000000000000000006001600160a01b03168314610bf4577f00000000000000000000000000000000000000000000000000000000000000006001600160a01b03168314610baf578315610b58576040516370a0823160e01b8152306004820152602081602481875afa801561073d5785915f91610b23575b5010610ac557610a8a918491611320565b6004546040519283526001600160a01b0316917f401f439d865a766757ec78675925bd67198d5e78805aa41691b34b5d6a6cbbe690602090a3005b60405162461bcd60e51b815260206004820152603060248201527f496e73756666696369656e7420746f6b656e2062616c616e636520696e20566160448201526f756c7420666f72207265636f7665727960801b6064820152608490fd5b9150506020813d602011610b50575b81610b3f60209383611245565b810103126103ca5784905186610a79565b3d9150610b32565b60405162461bcd60e51b815260206004820152602960248201527f5265636f7665727920616d6f756e74206d7573742062652067726561746572206044820152687468616e207a65726f60b81b6064820152608490fd5b60405162461bcd60e51b815260206004820152601f60248201527f43616e6e6f74207265636f76657220555344593a206d61696e206173736574006044820152606490fd5b60405162461bcd60e51b815260206004820152601f60248201527f43616e6e6f74207265636f76657220555344433a206d61696e206173736574006044820152606490fd5b637bfa4b9f60e01b5f5260045ffd5b346103ca575f3660031901126103ca576004546001600160a01b03163303610c3957610c72611288565b600160ff19815416176001557f62e78cea01bee320cd4e420270b5ea74000d11b0c9f74754ebdbfc544b05a2586020604051338152a1005b346103ca575f3660031901126103ca576006546001600160a01b0381169033829003610d0f57600480546001600160a01b03199081168417909155166006557f24a7c28d8edc5ccd4ef428ebc1dce34762fe38b7fdcca1f3f20c818f04deb1565f80a2005b60405162461bcd60e51b815260206004820152601d60248201527f596f7520617265206e6f74207468652070656e64696e672061646d696e0000006044820152606490fd5b346103ca575f3660031901126103ca57602060ff600154166040519015158152f35b346103ca575f3660031901126103ca576040517f00000000000000000000000000000000000000000000000000000000000000006001600160a01b03168152602090f35b346103ca575f3660031901126103ca576004546001600160a01b03163303610c395760015460ff811615610e1b5760ff19166001557f5db9ee0a495bf2e6ff9c91a7834c1ba4fdd244a5e8aa4e537bd38aeae4b073aa6020604051338152a1005b60405162461bcd60e51b815260206004820152601460248201527314185d5cd8589b194e881b9bdd081c185d5cd95960621b6044820152606490fd5b346103ca575f3660031901126103ca576040517f00000000000000000000000000000000000000000000000000000000000000006001600160a01b03168152602090f35b346103ca575f3660031901126103ca576005546040516001600160a01b039091168152602090f35b346103ca5760203660031901126103ca57600435610edf6112cc565b610ee7611288565b610ef2811515611196565b335f526002602052610f0a8160405f205410156111e1565b335f52600260205260405f20610f21828254611224565b9055610f2f81600354611224565b600355610f5d81337f0000000000000000000000000000000000000000000000000000000000000000611320565b6040519081527ff4f855c53853d0277a9ff688aadbfe4cb795ca1d5af41704b62cb539f89939ec60203392a260015f55005b346103ca575f3660031901126103ca576006546040516001600160a01b039091168152602090f35b346103ca5760403660031901126103ca57610fd0611180565b602435908115158092036103ca576004546001600160a01b03163303610c3957610ff8611288565b6001600160a01b031690811561104d5760207fad6dbebee1460bc7dc438c3201e2ebf7fbb594750b1cc49795d929a8f28d877591835f526007825260405f2060ff1981541660ff8316179055604051908152a2005b60405162461bcd60e51b815260206004820152601860248201527f496e76616c6964207374726174656779206164647265737300000000000000006044820152606490fd5b346103ca5760203660031901126103ca576001600160a01b036110b3611180565b165f526002602052602060405f2054604051908152f35b346103ca5760203660031901126103ca576110e3611180565b6004546001600160a01b03163303610c39576001600160a01b031690811561113e5750600680546001600160a01b031916821790557fd3695f12c05bea129b5971fed99014a4efd003a3a8b45d6952b74fbd31d85d8a5f80a2005b62461bcd60e51b815260206004820181905260248201527f4e65772061646d696e2063616e6e6f74206265207a65726f20616464726573736044820152606490fd5b600435906001600160a01b03821682036103ca57565b1561119d57565b606460405162461bcd60e51b815260206004820152602060248201527f416d6f756e74206d7573742062652067726561746572207468616e207a65726f6044820152fd5b156111e857565b60405162461bcd60e51b8152602060048201526014602482015273496e73756666696369656e742062616c616e636560601b6044820152606490fd5b9190820391821161123157565b634e487b7160e01b5f52601160045260245ffd5b90601f8019910116810190811067ffffffffffffffff82111761126757604052565b634e487b7160e01b5f52604160045260245ffd5b9190820180921161123157565b60ff6001541661129457565b60405162461bcd60e51b815260206004820152601060248201526f14185d5cd8589b194e881c185d5cd95960821b6044820152606490fd5b60025f54146112db5760025f55565b60405162461bcd60e51b815260206004820152601f60248201527f5265656e7472616e637947756172643a207265656e7472616e742063616c6c006044820152606490fd5b60405163a9059cbb60e01b60208201526001600160a01b0390921660248301526044820192909252611359916102ec82606481016102de565b565b6040516323b872dd60e01b60208201526001600160a01b039283166024820152929091166044830152606480830193909352918152611359916102ec608483611245565b60018060a01b0316905f80604051926113b9604085611245565b602084527f5361666545524332303a206c6f772d6c6576656c2063616c6c206661696c6564602085015260208151910182865af13d156114c0573d9067ffffffffffffffff82116112675760405161142f949092611421601f8201601f191660200185611245565b83523d5f602085013e6114c9565b805190811591821561149d575b50501561144557565b60405162461bcd60e51b815260206004820152602a60248201527f5361666545524332303a204552433230206f7065726174696f6e20646964206e6044820152691bdd081cdd58d8d9595960b21b6064820152608490fd5b81925090602091810103126103ca576020015180151581036103ca575f8061143c565b9161142f926060915b9192901561152b57508151156114dd575090565b3b156114e65790565b60405162461bcd60e51b815260206004820152601d60248201527f416464726573733a2063616c6c20746f206e6f6e2d636f6e74726163740000006044820152606490fd5b82519091501561153e5750805190602001fd5b604460209160405192839162461bcd60e51b83528160048401528051918291826024860152018484015e5f828201840152601f01601f19168101030190fdfea264697066735822122084188e31c7e2992df8cd72cf42162f67822957892506ac7faa5a5b5ec59e79fe64736f6c634300081c0033","linkReferences":{}},"methodIdentifiers":{"acceptAdminOwnership()":"645b0ed5","admin()":"f851a440","allocateFunds(address,uint256,address)":"dd46f9d5","approvedStrategies(address)":"c613aec0","chainlink_Admin()":"3577ce63","deposit(uint256)":"b6b55f25","getTotalValueLocked()":"b26025aa","getUserDeposits()":"94951944","mockSwap()":"50181e86","pause()":"8456cb59","paused()":"5c975abb","pendingAdmin()":"26782247","recoverERC20(address,uint256)":"8980f11f","setApprovedStrategy(address,bool)":"12a7bd4c","swapUSDYtoUSDC(uint256)":"fa45c732","totalValueLocked()":"ec18154e","transferAdminOwnership(address)":"08a80ff5","unpause()":"3f4ba83a","usdc()":"3e413bee","usdy()":"98d506e9","userDeposits(address)":"0ba36dcd","withdraw(uint256)":"2e1a7d4d"},"id":33}