{"abi":[{"type":"constructor","inputs":[{"name":"_usdcAddress","type":"address","internalType":"address"},{"name":"_usdyAddress","type":"address","internalType":"address"},{"name":"_mockSwap","type":"address","internalType":"address"},{"name":"_admin","type":"address","internalType":"address"}],"stateMutability":"nonpayable"},{"type":"fallback","stateMutability":"payable"},{"type":"receive","stateMutability":"payable"},{"type":"function","name":"admin","inputs":[],"outputs":[{"name":"","type":"address","internalType":"address"}],"stateMutability":"view"},{"type":"function","name":"allocateFunds","inputs":[{"name":"user","type":"address","internalType":"address"},{"name":"amount","type":"uint256","internalType":"uint256"},{"name":"strategy","type":"address","internalType":"address"}],"outputs":[],"stateMutability":"nonpayable"},{"type":"function","name":"approvedStrategies","inputs":[{"name":"","type":"address","internalType":"address"}],"outputs":[{"name":"","type":"bool","internalType":"bool"}],"stateMutability":"view"},{"type":"function","name":"deposit","inputs":[{"name":"amount","type":"uint256","internalType":"uint256"}],"outputs":[],"stateMutability":"nonpayable"},{"type":"function","name":"getTotalValueLocked","inputs":[],"outputs":[{"name":"","type":"uint256","internalType":"uint256"}],"stateMutability":"view"},{"type":"function","name":"getUserDeposits","inputs":[],"outputs":[{"name":"","type":"uint256","internalType":"uint256"}],"stateMutability":"view"},{"type":"function","name":"mockSwap","inputs":[],"outputs":[{"name":"","type":"address","internalType":"address"}],"stateMutability":"view"},{"type":"function","name":"setApprovedStrategy","inputs":[{"name":"strategy","type":"address","internalType":"address"},{"name":"approved","type":"bool","internalType":"bool"}],"outputs":[],"stateMutability":"nonpayable"},{"type":"function","name":"swapUSDYtoUSDC","inputs":[{"name":"amount","type":"uint256","internalType":"uint256"}],"outputs":[],"stateMutability":"nonpayable"},{"type":"function","name":"totalValueLocked","inputs":[],"outputs":[{"name":"","type":"uint256","internalType":"uint256"}],"stateMutability":"view"},{"type":"function","name":"usdc","inputs":[],"outputs":[{"name":"","type":"address","internalType":"contract IERC20"}],"stateMutability":"view"},{"type":"function","name":"usdy","inputs":[],"outputs":[{"name":"","type":"address","internalType":"contract IERC20"}],"stateMutability":"view"},{"type":"function","name":"userDeposits","inputs":[{"name":"","type":"address","internalType":"address"}],"outputs":[{"name":"","type":"uint256","internalType":"uint256"}],"stateMutability":"view"},{"type":"function","name":"withdraw","inputs":[{"name":"amount","type":"uint256","internalType":"uint256"}],"outputs":[],"stateMutability":"nonpayable"},{"type":"event","name":"DepositSuccessful","inputs":[{"name":"user","type":"address","indexed":true,"internalType":"address"},{"name":"amount","type":"uint256","indexed":false,"internalType":"uint256"}],"anonymous":false},{"type":"event","name":"FundsAllocated","inputs":[{"name":"user","type":"address","indexed":true,"internalType":"address"},{"name":"strategy","type":"address","indexed":false,"internalType":"address"},{"name":"amount","type":"uint256","indexed":false,"internalType":"uint256"}],"anonymous":false},{"type":"event","name":"StrategyApprovalUpdated","inputs":[{"name":"strategy","type":"address","indexed":false,"internalType":"address"},{"name":"approved","type":"bool","indexed":false,"internalType":"bool"}],"anonymous":false},{"type":"event","name":"WithdrawalSuccessful","inputs":[{"name":"user","type":"address","indexed":true,"internalType":"address"},{"name":"amount","type":"uint256","indexed":false,"internalType":"uint256"}],"anonymous":false},{"type":"error","name":"NotAdmin","inputs":[]}],"bytecode":{"object":"0x608060405234801561000f575f5ffd5b50604051612a3c380380612a3c83398181016040528101906100319190610357565b60015f819055505f73ffffffffffffffffffffffffffffffffffffffff168473ffffffffffffffffffffffffffffffffffffffff16036100a6576040517f08c379a000000000000000000000000000000000000000000000000000000000815260040161009d90610415565b60405180910390fd5b5f73ffffffffffffffffffffffffffffffffffffffff168373ffffffffffffffffffffffffffffffffffffffff1603610114576040517f08c379a000000000000000000000000000000000000000000000000000000000815260040161010b9061047d565b60405180910390fd5b5f73ffffffffffffffffffffffffffffffffffffffff168273ffffffffffffffffffffffffffffffffffffffff1603610182576040517f08c379a0000000000000000000000000000000000000000000000000000000008152600401610179906104e5565b60405180910390fd5b5f73ffffffffffffffffffffffffffffffffffffffff168173ffffffffffffffffffffffffffffffffffffffff16036101f0576040517f08c379a00000000000000000000000000000000000000000000000000000000081526004016101e79061054d565b60405180910390fd5b8060055f6101000a81548173ffffffffffffffffffffffffffffffffffffffff021916908373ffffffffffffffffffffffffffffffffffffffff1602179055508360035f6101000a81548173ffffffffffffffffffffffffffffffffffffffff021916908373ffffffffffffffffffffffffffffffffffffffff1602179055508260045f6101000a81548173ffffffffffffffffffffffffffffffffffffffff021916908373ffffffffffffffffffffffffffffffffffffffff1602179055508160065f6101000a81548173ffffffffffffffffffffffffffffffffffffffff021916908373ffffffffffffffffffffffffffffffffffffffff1602179055505050505061056b565b5f5ffd5b5f73ffffffffffffffffffffffffffffffffffffffff82169050919050565b5f610326826102fd565b9050919050565b6103368161031c565b8114610340575f5ffd5b50565b5f815190506103518161032d565b92915050565b5f5f5f5f6080858703121561036f5761036e6102f9565b5b5f61037c87828801610343565b945050602061038d87828801610343565b935050604061039e87828801610343565b92505060606103af87828801610343565b91505092959194509250565b5f82825260208201905092915050565b7f496e76616c6964205553444320616464726573730000000000000000000000005f82015250565b5f6103ff6014836103bb565b915061040a826103cb565b602082019050919050565b5f6020820190508181035f83015261042c816103f3565b9050919050565b7f496e76616c6964205553445920616464726573730000000000000000000000005f82015250565b5f6104676014836103bb565b915061047282610433565b602082019050919050565b5f6020820190508181035f8301526104948161045b565b9050919050565b7f496e76616c6964204d6f636b53776170206164647265737300000000000000005f82015250565b5f6104cf6018836103bb565b91506104da8261049b565b602082019050919050565b5f6020820190508181035f8301526104fc816104c3565b9050919050565b7f496e76616c69642061646d696e206164647265737300000000000000000000005f82015250565b5f6105376015836103bb565b915061054282610503565b602082019050919050565b5f6020820190508181035f8301526105648161052b565b9050919050565b6124c4806105785f395ff3fe6080604052600436106100e0575f3560e01c8063b26025aa1161007e578063dd46f9d511610058578063dd46f9d51461031d578063ec18154e14610345578063f851a4401461036f578063fa45c7321461039957610120565b8063b26025aa1461028f578063b6b55f25146102b9578063c613aec0146102e157610120565b80633e413bee116100ba5780633e413bee146101e757806350181e8614610211578063949519441461023b57806398d506e91461026557610120565b80630ba36dcd1461015b57806312a7bd4c146101975780632e1a7d4d146101bf57610120565b36610120576040517f08c379a000000000000000000000000000000000000000000000000000000000815260040161011790611835565b60405180910390fd5b6040517f08c379a0000000000000000000000000000000000000000000000000000000008152600401610152906118c3565b60405180910390fd5b348015610166575f5ffd5b50610181600480360381019061017c919061193f565b6103c1565b60405161018e9190611982565b60405180910390f35b3480156101a2575f5ffd5b506101bd60048036038101906101b891906119d0565b6103d6565b005b3480156101ca575f5ffd5b506101e560048036038101906101e09190611a38565b61055b565b005b3480156101f2575f5ffd5b506101fb6106f3565b6040516102089190611abe565b60405180910390f35b34801561021c575f5ffd5b50610225610718565b6040516102329190611ae6565b60405180910390f35b348015610246575f5ffd5b5061024f61073d565b60405161025c9190611982565b60405180910390f35b348015610270575f5ffd5b50610279610781565b6040516102869190611abe565b60405180910390f35b34801561029a575f5ffd5b506102a36107a6565b6040516102b09190611982565b60405180910390f35b3480156102c4575f5ffd5b506102df60048036038101906102da9190611a38565b6107af565b005b3480156102ec575f5ffd5b506103076004803603810190610302919061193f565b610a67565b6040516103149190611b0e565b60405180910390f35b348015610328575f5ffd5b50610343600480360381019061033e9190611b27565b610a84565b005b348015610350575f5ffd5b50610359610f33565b6040516103669190611982565b60405180910390f35b34801561037a575f5ffd5b50610383610f39565b6040516103909190611ae6565b60405180910390f35b3480156103a4575f5ffd5b506103bf60048036038101906103ba9190611a38565b610f5e565b005b6001602052805f5260405f205f915090505481565b60055f9054906101000a900473ffffffffffffffffffffffffffffffffffffffff1673ffffffffffffffffffffffffffffffffffffffff163373ffffffffffffffffffffffffffffffffffffffff161461045c576040517f7bfa4b9f00000000000000000000000000000000000000000000000000000000815260040160405180910390fd5b5f73ffffffffffffffffffffffffffffffffffffffff168273ffffffffffffffffffffffffffffffffffffffff16036104ca576040517f08c379a00000000000000000000000000000000000000000000000000000000081526004016104c190611bc1565b60405180910390fd5b8060075f8473ffffffffffffffffffffffffffffffffffffffff1673ffffffffffffffffffffffffffffffffffffffff1681526020019081526020015f205f6101000a81548160ff0219169083151502179055507fad6dbebee1460bc7dc438c3201e2ebf7fbb594750b1cc49795d929a8f28d8775828260405161054f929190611bdf565b60405180910390a15050565b6105636112a0565b8060015f3373ffffffffffffffffffffffffffffffffffffffff1673ffffffffffffffffffffffffffffffffffffffff1681526020019081526020015f205410156105e3576040517f08c379a00000000000000000000000000000000000000000000000000000000081526004016105da90611c50565b60405180910390fd5b8060015f3373ffffffffffffffffffffffffffffffffffffffff1673ffffffffffffffffffffffffffffffffffffffff1681526020019081526020015f205f82825461062f9190611c9b565b925050819055508060025f8282546106479190611c9b565b9250508190555061069a338260035f9054906101000a900473ffffffffffffffffffffffffffffffffffffffff1673ffffffffffffffffffffffffffffffffffffffff166112ed9092919063ffffffff16565b3373ffffffffffffffffffffffffffffffffffffffff167ff4f855c53853d0277a9ff688aadbfe4cb795ca1d5af41704b62cb539f89939ec826040516106e09190611982565b60405180910390a26106f0611373565b50565b60035f9054906101000a900473ffffffffffffffffffffffffffffffffffffffff1681565b60065f9054906101000a900473ffffffffffffffffffffffffffffffffffffffff1681565b5f60015f3373ffffffffffffffffffffffffffffffffffffffff1673ffffffffffffffffffffffffffffffffffffffff1681526020019081526020015f2054905090565b60045f9054906101000a900473ffffffffffffffffffffffffffffffffffffffff1681565b5f600254905090565b6107b76112a0565b5f81116107f9576040517f08c379a00000000000000000000000000000000000000000000000000000000081526004016107f090611d18565b60405180910390fd5b61084733308360045f9054906101000a900473ffffffffffffffffffffffffffffffffffffffff1673ffffffffffffffffffffffffffffffffffffffff1661137c909392919063ffffffff16565b60045f9054906101000a900473ffffffffffffffffffffffffffffffffffffffff1673ffffffffffffffffffffffffffffffffffffffff1663095ea7b360065f9054906101000a900473ffffffffffffffffffffffffffffffffffffffff16836040518363ffffffff1660e01b81526004016108c4929190611d36565b6020604051808303815f875af11580156108e0573d5f5f3e3d5ffd5b505050506040513d601f19601f820116820180604052508101906109049190611d71565b505f60065f9054906101000a900473ffffffffffffffffffffffffffffffffffffffff1673ffffffffffffffffffffffffffffffffffffffff1663fa45c732836040518263ffffffff1660e01b81526004016109609190611982565b6020604051808303815f875af115801561097c573d5f5f3e3d5ffd5b505050506040513d601f19601f820116820180604052508101906109a09190611db0565b90508060015f3373ffffffffffffffffffffffffffffffffffffffff1673ffffffffffffffffffffffffffffffffffffffff1681526020019081526020015f205f8282546109ee9190611ddb565b925050819055508060025f828254610a069190611ddb565b925050819055503373ffffffffffffffffffffffffffffffffffffffff167fb3ef81558ed1a50072a492984535a009da8b129c749500b387f1e5f4886bdde582604051610a539190611982565b60405180910390a250610a64611373565b50565b6007602052805f5260405f205f915054906101000a900460ff1681565b60055f9054906101000a900473ffffffffffffffffffffffffffffffffffffffff1673ffffffffffffffffffffffffffffffffffffffff163373ffffffffffffffffffffffffffffffffffffffff1614610b0a576040517f7bfa4b9f00000000000000000000000000000000000000000000000000000000815260040160405180910390fd5b610b126112a0565b8160015f8573ffffffffffffffffffffffffffffffffffffffff1673ffffffffffffffffffffffffffffffffffffffff1681526020019081526020015f20541015610b92576040517f08c379a0000000000000000000000000000000000000000000000000000000008152600401610b8990611c50565b60405180910390fd5b60075f8273ffffffffffffffffffffffffffffffffffffffff1673ffffffffffffffffffffffffffffffffffffffff1681526020019081526020015f205f9054906101000a900460ff16610c1b576040517f08c379a0000000000000000000000000000000000000000000000000000000008152600401610c1290611e58565b60405180910390fd5b5f813b90505f8163ffffffff1611610c68576040517f08c379a0000000000000000000000000000000000000000000000000000000008152600401610c5f90611ec0565b60405180910390fd5b8260015f8673ffffffffffffffffffffffffffffffffffffffff1673ffffffffffffffffffffffffffffffffffffffff1681526020019081526020015f205f828254610cb49190611c9b565b925050819055508260025f828254610ccc9190611c9b565b925050819055505f60035f9054906101000a900473ffffffffffffffffffffffffffffffffffffffff1690508073ffffffffffffffffffffffffffffffffffffffff1663095ea7b3845f6040518363ffffffff1660e01b8152600401610d33929190611f17565b6020604051808303815f875af1158015610d4f573d5f5f3e3d5ffd5b505050506040513d601f19601f82011682018060405250810190610d739190611d71565b610db2576040517f08c379a0000000000000000000000000000000000000000000000000000000008152600401610da990611f88565b60405180910390fd5b8073ffffffffffffffffffffffffffffffffffffffff1663095ea7b384866040518363ffffffff1660e01b8152600401610ded929190611d36565b6020604051808303815f875af1158015610e09573d5f5f3e3d5ffd5b505050506040513d601f19601f82011682018060405250810190610e2d9190611d71565b610e6c576040517f08c379a0000000000000000000000000000000000000000000000000000000008152600401610e6390611ff0565b60405180910390fd5b8273ffffffffffffffffffffffffffffffffffffffff16633b89bb8686866040518363ffffffff1660e01b8152600401610ea7929190611d36565b5f604051808303815f87803b158015610ebe575f5ffd5b505af1158015610ed0573d5f5f3e3d5ffd5b505050508473ffffffffffffffffffffffffffffffffffffffff167f5aabe59a94326cbf612b52ddc5ffd665415ed13728203f670d72f07d6dd5db948486604051610f1c929190611d36565b60405180910390a25050610f2e611373565b505050565b60025481565b60055f9054906101000a900473ffffffffffffffffffffffffffffffffffffffff1681565b610f666112a0565b5f8111610fa8576040517f08c379a0000000000000000000000000000000000000000000000000000000008152600401610f9f90612058565b60405180910390fd5b8060045f9054906101000a900473ffffffffffffffffffffffffffffffffffffffff1673ffffffffffffffffffffffffffffffffffffffff166370a08231336040518263ffffffff1660e01b81526004016110039190611ae6565b602060405180830381865afa15801561101e573d5f5f3e3d5ffd5b505050506040513d601f19601f820116820180604052508101906110429190611db0565b1015611083576040517f08c379a000000000000000000000000000000000000000000000000000000000815260040161107a906120c0565b60405180910390fd5b6110d133308360045f9054906101000a900473ffffffffffffffffffffffffffffffffffffffff1673ffffffffffffffffffffffffffffffffffffffff1661137c909392919063ffffffff16565b61113e60065f9054906101000a900473ffffffffffffffffffffffffffffffffffffffff168260045f9054906101000a900473ffffffffffffffffffffffffffffffffffffffff1673ffffffffffffffffffffffffffffffffffffffff166114059092919063ffffffff16565b5f60065f9054906101000a900473ffffffffffffffffffffffffffffffffffffffff1673ffffffffffffffffffffffffffffffffffffffff1663fa45c732836040518263ffffffff1660e01b81526004016111999190611982565b6020604051808303815f875af11580156111b5573d5f5f3e3d5ffd5b505050506040513d601f19601f820116820180604052508101906111d99190611db0565b90508060015f3373ffffffffffffffffffffffffffffffffffffffff1673ffffffffffffffffffffffffffffffffffffffff1681526020019081526020015f205f8282546112279190611ddb565b925050819055508060025f82825461123f9190611ddb565b925050819055503373ffffffffffffffffffffffffffffffffffffffff167fb3ef81558ed1a50072a492984535a009da8b129c749500b387f1e5f4886bdde58260405161128c9190611982565b60405180910390a25061129d611373565b50565b60025f54036112e4576040517f08c379a00000000000000000000000000000000000000000000000000000000081526004016112db90612128565b60405180910390fd5b60025f81905550565b61136e8363a9059cbb60e01b848460405160240161130c929190611d36565b604051602081830303815290604052907bffffffffffffffffffffffffffffffffffffffffffffffffffffffff19166020820180517bffffffffffffffffffffffffffffffffffffffffffffffffffffffff8381831617835250505050611550565b505050565b60015f81905550565b6113ff846323b872dd60e01b85858560405160240161139d93929190612146565b604051602081830303815290604052907bffffffffffffffffffffffffffffffffffffffffffffffffffffffff19166020820180517bffffffffffffffffffffffffffffffffffffffffffffffffffffffff8381831617835250505050611550565b50505050565b5f81148061148b57505f8373ffffffffffffffffffffffffffffffffffffffff1663dd62ed3e30856040518363ffffffff1660e01b815260040161144a92919061217b565b602060405180830381865afa158015611465573d5f5f3e3d5ffd5b505050506040513d601f19601f820116820180604052508101906114899190611db0565b145b6114ca576040517f08c379a00000000000000000000000000000000000000000000000000000000081526004016114c190612212565b60405180910390fd5b61154b8363095ea7b360e01b84846040516024016114e9929190611d36565b604051602081830303815290604052907bffffffffffffffffffffffffffffffffffffffffffffffffffffffff19166020820180517bffffffffffffffffffffffffffffffffffffffffffffffffffffffff8381831617835250505050611550565b505050565b5f6115b1826040518060400160405280602081526020017f5361666545524332303a206c6f772d6c6576656c2063616c6c206661696c65648152508573ffffffffffffffffffffffffffffffffffffffff166116169092919063ffffffff16565b90505f815114806115d25750808060200190518101906115d19190611d71565b5b611611576040517f08c379a0000000000000000000000000000000000000000000000000000000008152600401611608906122a0565b60405180910390fd5b505050565b606061162484845f8561162d565b90509392505050565b606082471015611672576040517f08c379a00000000000000000000000000000000000000000000000000000000081526004016116699061232e565b60405180910390fd5b5f5f8673ffffffffffffffffffffffffffffffffffffffff16858760405161169a919061239e565b5f6040518083038185875af1925050503d805f81146116d4576040519150601f19603f3d011682016040523d82523d5f602084013e6116d9565b606091505b50915091506116ea878383876116f6565b92505050949350505050565b60608315611757575f83510361174f5761170f8561176a565b61174e576040517f08c379a0000000000000000000000000000000000000000000000000000000008152600401611745906123fe565b60405180910390fd5b5b829050611762565b611761838361178c565b5b949350505050565b5f5f8273ffffffffffffffffffffffffffffffffffffffff163b119050919050565b5f8251111561179e5781518083602001fd5b806040517f08c379a00000000000000000000000000000000000000000000000000000000081526004016117d2919061246e565b60405180910390fd5b5f82825260208201905092915050565b7f5661756c7420646f6573206e6f742061636365707420455448000000000000005f82015250565b5f61181f6019836117db565b915061182a826117eb565b602082019050919050565b5f6020820190508181035f83015261184c81611813565b9050919050565b7f46616c6c6261636b3a205661756c7420646f6573206e6f7420616363657074205f8201527f4554480000000000000000000000000000000000000000000000000000000000602082015250565b5f6118ad6023836117db565b91506118b882611853565b604082019050919050565b5f6020820190508181035f8301526118da816118a1565b9050919050565b5f5ffd5b5f73ffffffffffffffffffffffffffffffffffffffff82169050919050565b5f61190e826118e5565b9050919050565b61191e81611904565b8114611928575f5ffd5b50565b5f8135905061193981611915565b92915050565b5f60208284031215611954576119536118e1565b5b5f6119618482850161192b565b91505092915050565b5f819050919050565b61197c8161196a565b82525050565b5f6020820190506119955f830184611973565b92915050565b5f8115159050919050565b6119af8161199b565b81146119b9575f5ffd5b50565b5f813590506119ca816119a6565b92915050565b5f5f604083850312156119e6576119e56118e1565b5b5f6119f38582860161192b565b9250506020611a04858286016119bc565b9150509250929050565b611a178161196a565b8114611a21575f5ffd5b50565b5f81359050611a3281611a0e565b92915050565b5f60208284031215611a4d57611a4c6118e1565b5b5f611a5a84828501611a24565b91505092915050565b5f819050919050565b5f611a86611a81611a7c846118e5565b611a63565b6118e5565b9050919050565b5f611a9782611a6c565b9050919050565b5f611aa882611a8d565b9050919050565b611ab881611a9e565b82525050565b5f602082019050611ad15f830184611aaf565b92915050565b611ae081611904565b82525050565b5f602082019050611af95f830184611ad7565b92915050565b611b088161199b565b82525050565b5f602082019050611b215f830184611aff565b92915050565b5f5f5f60608486031215611b3e57611b3d6118e1565b5b5f611b4b8682870161192b565b9350506020611b5c86828701611a24565b9250506040611b6d8682870161192b565b9150509250925092565b7f496e76616c6964207374726174656779206164647265737300000000000000005f82015250565b5f611bab6018836117db565b9150611bb682611b77565b602082019050919050565b5f6020820190508181035f830152611bd881611b9f565b9050919050565b5f604082019050611bf25f830185611ad7565b611bff6020830184611aff565b9392505050565b7f496e73756666696369656e742062616c616e63650000000000000000000000005f82015250565b5f611c3a6014836117db565b9150611c4582611c06565b602082019050919050565b5f6020820190508181035f830152611c6781611c2e565b9050919050565b7f4e487b71000000000000000000000000000000000000000000000000000000005f52601160045260245ffd5b5f611ca58261196a565b9150611cb08361196a565b9250828203905081811115611cc857611cc7611c6e565b5b92915050565b7f416d6f756e74206d7573742062652067726561746572207468616e207a65726f5f82015250565b5f611d026020836117db565b9150611d0d82611cce565b602082019050919050565b5f6020820190508181035f830152611d2f81611cf6565b9050919050565b5f604082019050611d495f830185611ad7565b611d566020830184611973565b9392505050565b5f81519050611d6b816119a6565b92915050565b5f60208284031215611d8657611d856118e1565b5b5f611d9384828501611d5d565b91505092915050565b5f81519050611daa81611a0e565b92915050565b5f60208284031215611dc557611dc46118e1565b5b5f611dd284828501611d9c565b91505092915050565b5f611de58261196a565b9150611df08361196a565b9250828201905080821115611e0857611e07611c6e565b5b92915050565b7f5374726174656779206e6f7420617070726f76656400000000000000000000005f82015250565b5f611e426015836117db565b9150611e4d82611e0e565b602082019050919050565b5f6020820190508181035f830152611e6f81611e36565b9050919050565b7f5374726174656779206d757374206265206120636f6e747261637400000000005f82015250565b5f611eaa601b836117db565b9150611eb582611e76565b602082019050919050565b5f6020820190508181035f830152611ed781611e9e565b9050919050565b5f819050919050565b5f611f01611efc611ef784611ede565b611a63565b61196a565b9050919050565b611f1181611ee7565b82525050565b5f604082019050611f2a5f830185611ad7565b611f376020830184611f08565b9392505050565b7f5265736574206661696c656400000000000000000000000000000000000000005f82015250565b5f611f72600c836117db565b9150611f7d82611f3e565b602082019050919050565b5f6020820190508181035f830152611f9f81611f66565b9050919050565b7f417070726f7665206661696c65640000000000000000000000000000000000005f82015250565b5f611fda600e836117db565b9150611fe582611fa6565b602082019050919050565b5f6020820190508181035f83015261200781611fce565b9050919050565b7f416d6f756e74206d7573742062652067726561746572207468616e20300000005f82015250565b5f612042601d836117db565b915061204d8261200e565b602082019050919050565b5f6020820190508181035f83015261206f81612036565b9050919050565b7f496e73756666696369656e7420555344592062616c616e6365000000000000005f82015250565b5f6120aa6019836117db565b91506120b582612076565b602082019050919050565b5f6020820190508181035f8301526120d78161209e565b9050919050565b7f5265656e7472616e637947756172643a207265656e7472616e742063616c6c005f82015250565b5f612112601f836117db565b915061211d826120de565b602082019050919050565b5f6020820190508181035f83015261213f81612106565b9050919050565b5f6060820190506121595f830186611ad7565b6121666020830185611ad7565b6121736040830184611973565b949350505050565b5f60408201905061218e5f830185611ad7565b61219b6020830184611ad7565b9392505050565b7f5361666545524332303a20617070726f76652066726f6d206e6f6e2d7a65726f5f8201527f20746f206e6f6e2d7a65726f20616c6c6f77616e636500000000000000000000602082015250565b5f6121fc6036836117db565b9150612207826121a2565b604082019050919050565b5f6020820190508181035f830152612229816121f0565b9050919050565b7f5361666545524332303a204552433230206f7065726174696f6e20646964206e5f8201527f6f74207375636365656400000000000000000000000000000000000000000000602082015250565b5f61228a602a836117db565b915061229582612230565b604082019050919050565b5f6020820190508181035f8301526122b78161227e565b9050919050565b7f416464726573733a20696e73756666696369656e742062616c616e636520666f5f8201527f722063616c6c0000000000000000000000000000000000000000000000000000602082015250565b5f6123186026836117db565b9150612323826122be565b604082019050919050565b5f6020820190508181035f8301526123458161230c565b9050919050565b5f81519050919050565b5f81905092915050565b8281835e5f83830152505050565b5f6123788261234c565b6123828185612356565b9350612392818560208601612360565b80840191505092915050565b5f6123a9828461236e565b915081905092915050565b7f416464726573733a2063616c6c20746f206e6f6e2d636f6e74726163740000005f82015250565b5f6123e8601d836117db565b91506123f3826123b4565b602082019050919050565b5f6020820190508181035f830152612415816123dc565b9050919050565b5f81519050919050565b5f601f19601f8301169050919050565b5f6124408261241c565b61244a81856117db565b935061245a818560208601612360565b61246381612426565b840191505092915050565b5f6020820190508181035f8301526124868184612436565b90509291505056fea26469706673582212203cd20295f721b8db00f1727e06a4b67cedef6f1edd983bcd346bd5471f4e2d1764736f6c634300081e0033","linkReferences":{}},"methodIdentifiers":{"admin()":"f851a440","allocateFunds(address,uint256,address)":"dd46f9d5","approvedStrategies(address)":"c613aec0","deposit(uint256)":"b6b55f25","getTotalValueLocked()":"b26025aa","getUserDeposits()":"94951944","mockSwap()":"50181e86","setApprovedStrategy(address,bool)":"12a7bd4c","swapUSDYtoUSDC(uint256)":"fa45c732","totalValueLocked()":"ec18154e","usdc()":"3e413bee","usdy()":"98d506e9","userDeposits(address)":"0ba36dcd","withdraw(uint256)":"2e1a7d4d"},"id":10}