{"abi":[{"type":"constructor","inputs":[{"name":"_usdcAddress","type":"address","internalType":"address"},{"name":"_usdyAddress","type":"address","internalType":"address"},{"name":"_mockSwap","type":"address","internalType":"address"},{"name":"_admin","type":"address","internalType":"address"}],"stateMutability":"nonpayable"},{"type":"fallback","stateMutability":"payable"},{"type":"receive","stateMutability":"payable"},{"type":"function","name":"acceptAdminOwnership","inputs":[],"outputs":[],"stateMutability":"nonpayable"},{"type":"function","name":"admin","inputs":[],"outputs":[{"name":"","type":"address","internalType":"address"}],"stateMutability":"view"},{"type":"function","name":"allocateFunds","inputs":[{"name":"user","type":"address","internalType":"address"},{"name":"amount","type":"uint256","internalType":"uint256"},{"name":"strategy","type":"address","internalType":"address"}],"outputs":[],"stateMutability":"nonpayable"},{"type":"function","name":"approvedStrategies","inputs":[{"name":"","type":"address","internalType":"address"}],"outputs":[{"name":"","type":"bool","internalType":"bool"}],"stateMutability":"view"},{"type":"function","name":"deposit","inputs":[{"name":"amount","type":"uint256","internalType":"uint256"}],"outputs":[],"stateMutability":"nonpayable"},{"type":"function","name":"getTotalValueLocked","inputs":[],"outputs":[{"name":"","type":"uint256","internalType":"uint256"}],"stateMutability":"view"},{"type":"function","name":"getUserDeposits","inputs":[],"outputs":[{"name":"","type":"uint256","internalType":"uint256"}],"stateMutability":"view"},{"type":"function","name":"mockSwap","inputs":[],"outputs":[{"name":"","type":"address","internalType":"address"}],"stateMutability":"view"},{"type":"function","name":"pause","inputs":[],"outputs":[],"stateMutability":"nonpayable"},{"type":"function","name":"paused","inputs":[],"outputs":[{"name":"","type":"bool","internalType":"bool"}],"stateMutability":"view"},{"type":"function","name":"pendingAdmin","inputs":[],"outputs":[{"name":"","type":"address","internalType":"address"}],"stateMutability":"view"},{"type":"function","name":"recoverERC20","inputs":[{"name":"tokenAddress","type":"address","internalType":"contract IERC20"},{"name":"amount","type":"uint256","internalType":"uint256"}],"outputs":[],"stateMutability":"nonpayable"},{"type":"function","name":"setApprovedStrategy","inputs":[{"name":"strategy","type":"address","internalType":"address"},{"name":"approved","type":"bool","internalType":"bool"}],"outputs":[],"stateMutability":"nonpayable"},{"type":"function","name":"swapUSDYtoUSDC","inputs":[{"name":"amount","type":"uint256","internalType":"uint256"}],"outputs":[],"stateMutability":"nonpayable"},{"type":"function","name":"totalValueLocked","inputs":[],"outputs":[{"name":"","type":"uint256","internalType":"uint256"}],"stateMutability":"view"},{"type":"function","name":"transferAdminOwnership","inputs":[{"name":"newAdmin","type":"address","internalType":"address"}],"outputs":[],"stateMutability":"nonpayable"},{"type":"function","name":"unpause","inputs":[],"outputs":[],"stateMutability":"nonpayable"},{"type":"function","name":"usdc","inputs":[],"outputs":[{"name":"","type":"address","internalType":"contract IERC20"}],"stateMutability":"view"},{"type":"function","name":"usdy","inputs":[],"outputs":[{"name":"","type":"address","internalType":"contract IERC20"}],"stateMutability":"view"},{"type":"function","name":"userDeposits","inputs":[{"name":"","type":"address","internalType":"address"}],"outputs":[{"name":"","type":"uint256","internalType":"uint256"}],"stateMutability":"view"},{"type":"function","name":"withdraw","inputs":[{"name":"amount","type":"uint256","internalType":"uint256"}],"outputs":[],"stateMutability":"nonpayable"},{"type":"event","name":"AdminTransferAccepted","inputs":[{"name":"newAdmin","type":"address","indexed":true,"internalType":"address"}],"anonymous":false},{"type":"event","name":"AdminTransferProposed","inputs":[{"name":"newAdmin","type":"address","indexed":true,"internalType":"address"}],"anonymous":false},{"type":"event","name":"DepositSuccessful","inputs":[{"name":"user","type":"address","indexed":true,"internalType":"address"},{"name":"amount","type":"uint256","indexed":false,"internalType":"uint256"}],"anonymous":false},{"type":"event","name":"FundsAllocated","inputs":[{"name":"user","type":"address","indexed":true,"internalType":"address"},{"name":"strategy","type":"address","indexed":true,"internalType":"address"},{"name":"amount","type":"uint256","indexed":false,"internalType":"uint256"}],"anonymous":false},{"type":"event","name":"Paused","inputs":[{"name":"account","type":"address","indexed":false,"internalType":"address"}],"anonymous":false},{"type":"event","name":"StrategyApprovalUpdated","inputs":[{"name":"strategy","type":"address","indexed":true,"internalType":"address"},{"name":"approved","type":"bool","indexed":false,"internalType":"bool"}],"anonymous":false},{"type":"event","name":"TokensRecovered","inputs":[{"name":"tokenAddress","type":"address","indexed":true,"internalType":"address"},{"name":"recipient","type":"address","indexed":true,"internalType":"address"},{"name":"amount","type":"uint256","indexed":false,"internalType":"uint256"}],"anonymous":false},{"type":"event","name":"Unpaused","inputs":[{"name":"account","type":"address","indexed":false,"internalType":"address"}],"anonymous":false},{"type":"event","name":"WithdrawalSuccessful","inputs":[{"name":"user","type":"address","indexed":true,"internalType":"address"},{"name":"amount","type":"uint256","indexed":false,"internalType":"uint256"}],"anonymous":false},{"type":"error","name":"NotAdmin","inputs":[]}],"bytecode":{"object":"0x60e03461024857601f61180238819003918201601f19168301916001600160401b0383118484101761024c578084926080946040528339810103126102485761004781610260565b9061005460208201610260565b9161006d606061006660408501610260565b9301610260565b60015f819055805460ff191690556001600160a01b03909116928315610203576001600160a01b03169081156101be576001600160a01b03831615610179576001600160a01b03169283156101345760805260a05260c052600480546001600160a01b03191691909117905560405161158d90816102758239608051818181610685015281816108c3015281816109df01528181610e250152610eca015260a0518181816101dc0152818161094b0152610a0f015260c0518181816102650152610d790152f35b60405162461bcd60e51b815260206004820152601560248201527f496e76616c69642061646d696e206164647265737300000000000000000000006044820152606490fd5b60405162461bcd60e51b815260206004820152601860248201527f496e76616c6964204d6f636b53776170206164647265737300000000000000006044820152606490fd5b60405162461bcd60e51b815260206004820152601460248201527f496e76616c6964205553445920616464726573730000000000000000000000006044820152606490fd5b60405162461bcd60e51b815260206004820152601460248201527f496e76616c6964205553444320616464726573730000000000000000000000006044820152606490fd5b5f80fd5b634e487b7160e01b5f52604160045260245ffd5b51906001600160a01b03821682036102485756fe60808060405260043610156100ac575b5036156100675760405162461bcd60e51b815260206004820152602360248201527f46616c6c6261636b3a205661756c7420646f6573206e6f74206163636570742060448201526208aa8960eb1b6064820152608490fd5b60405162461bcd60e51b815260206004820152601960248201527f5661756c7420646f6573206e6f742061636365707420455448000000000000006044820152606490fd5b5f905f3560e01c90816308a80ff51461105b575080630ba36dcd1461102357806312a7bd4c14610f485780632678224714610f205780632e1a7d4d14610e545780633e413bee14610e105780633f4ba83a14610da857806350181e8614610d645780635c975abb14610d42578063645b0ed514610c985780638456cb5914610c2e5780638980f11f146109a1578063949519441461097a57806398d506e914610936578063b26025aa14610919578063b6b55f2514610864578063c613aec014610827578063dd46f9d5146105c6578063ec18154e146105a8578063f851a4401461057f5763fa45c7320361000f573461057c57602036600319011261057c576004356101b761125d565b6101bf611219565b80159081610537576040516370a0823160e01b81523360048201527f000000000000000000000000000000000000000000000000000000000000000091906001600160a01b03831690602081602481855afa80156104b25783918791610502575b50106104bd5761023282303386611335565b64e8d4a5100082049333865260026020526040862061025286825461120c565b90556102608560035461120c565b6003557f0000000000000000000000000000000000000000000000000000000000000000915f911561043a575b50156103d65760246020926102e687956040519063095ea7b360e01b878301526102e1826102d3868989840160209093929193604081019460018060a01b031681520152565b03601f1981018452836111d6565b611379565b604051637d22e39960e11b815260048101919091529384928391906001600160a01b03165af180156103cb5782918491610392575b5003610354576040519081527fb3ef81558ed1a50072a492984535a009da8b129c749500b387f1e5f4886bdde560203392a26001815580f35b60405162461bcd60e51b8152602060048201526016602482015275155b995e1c1958dd1959081cddd85c081bdd5d1c1d5d60521b6044820152606490fd5b9150506020813d6020116103c3575b816103ae602093836111d6565b810103126103bf578190515f61031b565b5f80fd5b3d91506103a1565b6040513d85823e3d90fd5b60405162461bcd60e51b815260206004820152603660248201527f5361666545524332303a20617070726f76652066726f6d206e6f6e2d7a65726f60448201527520746f206e6f6e2d7a65726f20616c6c6f77616e636560501b6064820152608490fd5b604051636eb1769f60e11b81523060048201526001600160a01b03841660248201529150602090829060449082905afa9081156104b2578691610480575b50155f61028d565b90506020813d6020116104aa575b8161049b602093836111d6565b810103126103bf57515f610478565b3d915061048e565b6040513d88823e3d90fd5b60405162461bcd60e51b815260206004820152601960248201527f496e73756666696369656e7420555344592062616c616e6365000000000000006044820152606490fd5b9150506020813d60201161052f575b8161051e602093836111d6565b810103126103bf578290515f610220565b3d9150610511565b60405162461bcd60e51b815260206004820152601d60248201527f416d6f756e74206d7573742062652067726561746572207468616e20300000006044820152606490fd5b80fd5b503461057c578060031936011261057c576004546040516001600160a01b039091168152602090f35b503461057c578060031936011261057c576020600354604051908152f35b50346103bf5760603660031901126103bf576105e0611111565b6044356001600160a01b03811691602435908383036103bf576004546001600160a01b031633036108185761061361125d565b61061b611219565b81156107bf5760018060a01b03811692835f5260026020526106438360405f20541015611172565b845f52600660205260ff60405f205416156107825763ffffffff813b161561073d57826106a991855f52600260205260405f206106818382546111b5565b90557f00000000000000000000000000000000000000000000000000000000000000006112b1565b833b156103bf57604051631dc4ddc360e11b81526001600160a01b03919091166004820152602481018290525f8160448183885af180156107325761071c575b5060207f5aabe59a94326cbf612b52ddc5ffd665415ed13728203f670d72f07d6dd5db9491604051908152a36001815580f35b6107299194505f906111d6565b5f9260206106e9565b6040513d5f823e3d90fd5b60405162461bcd60e51b815260206004820152601b60248201527f5374726174656779206d757374206265206120636f6e747261637400000000006044820152606490fd5b60405162461bcd60e51b815260206004820152601560248201527414dd1c985d1959de481b9bdd08185c1c1c9bdd9959605a1b6044820152606490fd5b60405162461bcd60e51b815260206004820152602b60248201527f416c6c6f636174696f6e20616d6f756e74206d7573742062652067726561746560448201526a72207468616e207a65726f60a81b6064820152608490fd5b637bfa4b9f60e01b5f5260045ffd5b346103bf5760203660031901126103bf576001600160a01b03610848611111565b165f526006602052602060ff60405f2054166040519015158152f35b346103bf5760203660031901126103bf5760043561088061125d565b610888611219565b610893811515611127565b335f52600260205260405f206108aa82825461120c565b90556108b88160035461120c565b6003556108e78130337f0000000000000000000000000000000000000000000000000000000000000000611335565b6040519081527fb3ef81558ed1a50072a492984535a009da8b129c749500b387f1e5f4886bdde560203392a260015f55005b346103bf575f3660031901126103bf576020600354604051908152f35b346103bf575f3660031901126103bf576040517f00000000000000000000000000000000000000000000000000000000000000006001600160a01b03168152602090f35b346103bf575f3660031901126103bf57335f526002602052602060405f2054604051908152f35b346103bf5760403660031901126103bf576004356001600160a01b0381168082036103bf576024359160018060a01b036004541690813303610818577f00000000000000000000000000000000000000000000000000000000000000006001600160a01b03168314610be9577f00000000000000000000000000000000000000000000000000000000000000006001600160a01b03168314610ba4578315610b4d576040516370a0823160e01b8152306004820152602081602481875afa80156107325785915f91610b18575b5010610aba57610a7f9184916112b1565b6004546040519283526001600160a01b0316917f401f439d865a766757ec78675925bd67198d5e78805aa41691b34b5d6a6cbbe690602090a3005b60405162461bcd60e51b815260206004820152603060248201527f496e73756666696369656e7420746f6b656e2062616c616e636520696e20566160448201526f756c7420666f72207265636f7665727960801b6064820152608490fd5b9150506020813d602011610b45575b81610b34602093836111d6565b810103126103bf5784905186610a6e565b3d9150610b27565b60405162461bcd60e51b815260206004820152602960248201527f5265636f7665727920616d6f756e74206d7573742062652067726561746572206044820152687468616e207a65726f60b81b6064820152608490fd5b60405162461bcd60e51b815260206004820152601f60248201527f43616e6e6f74207265636f76657220555344593a206d61696e206173736574006044820152606490fd5b60405162461bcd60e51b815260206004820152601f60248201527f43616e6e6f74207265636f76657220555344433a206d61696e206173736574006044820152606490fd5b346103bf575f3660031901126103bf576004546001600160a01b0316330361081857610c58611219565b610c60611219565b600160ff19815416176001557f62e78cea01bee320cd4e420270b5ea74000d11b0c9f74754ebdbfc544b05a2586020604051338152a1005b346103bf575f3660031901126103bf576005546001600160a01b0381169033829003610cfd57600480546001600160a01b03199081168417909155166005557f24a7c28d8edc5ccd4ef428ebc1dce34762fe38b7fdcca1f3f20c818f04deb1565f80a2005b60405162461bcd60e51b815260206004820152601d60248201527f596f7520617265206e6f74207468652070656e64696e672061646d696e0000006044820152606490fd5b346103bf575f3660031901126103bf57602060ff600154166040519015158152f35b346103bf575f3660031901126103bf576040517f00000000000000000000000000000000000000000000000000000000000000006001600160a01b03168152602090f35b346103bf575f3660031901126103bf576004546001600160a01b0316330361081857610dd26112ec565b610dda6112ec565b60ff19600154166001557f5db9ee0a495bf2e6ff9c91a7834c1ba4fdd244a5e8aa4e537bd38aeae4b073aa6020604051338152a1005b346103bf575f3660031901126103bf576040517f00000000000000000000000000000000000000000000000000000000000000006001600160a01b03168152602090f35b346103bf5760203660031901126103bf57600435610e7061125d565b610e78611219565b610e83811515611127565b335f526002602052610e9b8160405f20541015611172565b335f52600260205260405f20610eb28282546111b5565b9055610ec0816003546111b5565b600355610eee81337f00000000000000000000000000000000000000000000000000000000000000006112b1565b6040519081527ff4f855c53853d0277a9ff688aadbfe4cb795ca1d5af41704b62cb539f89939ec60203392a260015f55005b346103bf575f3660031901126103bf576005546040516001600160a01b039091168152602090f35b346103bf5760403660031901126103bf57610f61611111565b602435908115158092036103bf576004546001600160a01b0316330361081857610f89611219565b6001600160a01b0316908115610fde5760207fad6dbebee1460bc7dc438c3201e2ebf7fbb594750b1cc49795d929a8f28d877591835f526006825260405f2060ff1981541660ff8316179055604051908152a2005b60405162461bcd60e51b815260206004820152601860248201527f496e76616c6964207374726174656779206164647265737300000000000000006044820152606490fd5b346103bf5760203660031901126103bf576001600160a01b03611044611111565b165f526002602052602060405f2054604051908152f35b346103bf5760203660031901126103bf57611074611111565b6004546001600160a01b03163303610818576001600160a01b03169081156110cf5750600580546001600160a01b031916821790557fd3695f12c05bea129b5971fed99014a4efd003a3a8b45d6952b74fbd31d85d8a5f80a2005b62461bcd60e51b815260206004820181905260248201527f4e65772061646d696e2063616e6e6f74206265207a65726f20616464726573736044820152606490fd5b600435906001600160a01b03821682036103bf57565b1561112e57565b606460405162461bcd60e51b815260206004820152602060248201527f416d6f756e74206d7573742062652067726561746572207468616e207a65726f6044820152fd5b1561117957565b60405162461bcd60e51b8152602060048201526014602482015273496e73756666696369656e742062616c616e636560601b6044820152606490fd5b919082039182116111c257565b634e487b7160e01b5f52601160045260245ffd5b90601f8019910116810190811067ffffffffffffffff8211176111f857604052565b634e487b7160e01b5f52604160045260245ffd5b919082018092116111c257565b60ff6001541661122557565b60405162461bcd60e51b815260206004820152601060248201526f14185d5cd8589b194e881c185d5cd95960821b6044820152606490fd5b60025f541461126c5760025f55565b60405162461bcd60e51b815260206004820152601f60248201527f5265656e7472616e637947756172643a207265656e7472616e742063616c6c006044820152606490fd5b60405163a9059cbb60e01b60208201526001600160a01b03909216602483015260448201929092526112ea916102e182606481016102d3565b565b60ff60015416156112f957565b60405162461bcd60e51b815260206004820152601460248201527314185d5cd8589b194e881b9bdd081c185d5cd95960621b6044820152606490fd5b6040516323b872dd60e01b60208201526001600160a01b0392831660248201529290911660448301526064808301939093529181526112ea916102e16084836111d6565b60018060a01b0316905f80604051926113936040856111d6565b602084527f5361666545524332303a206c6f772d6c6576656c2063616c6c206661696c6564602085015260208151910182865af13d1561149a573d9067ffffffffffffffff82116111f8576040516114099490926113fb601f8201601f1916602001856111d6565b83523d5f602085013e6114a3565b8051908115918215611477575b50501561141f57565b60405162461bcd60e51b815260206004820152602a60248201527f5361666545524332303a204552433230206f7065726174696f6e20646964206e6044820152691bdd081cdd58d8d9595960b21b6064820152608490fd5b81925090602091810103126103bf576020015180151581036103bf575f80611416565b91611409926060915b9192901561150557508151156114b7575090565b3b156114c05790565b60405162461bcd60e51b815260206004820152601d60248201527f416464726573733a2063616c6c20746f206e6f6e2d636f6e74726163740000006044820152606490fd5b8251909150156115185750805190602001fd5b604460209160405192839162461bcd60e51b83528160048401528051918291826024860152018484015e5f828201840152601f01601f19168101030190fdfea264697066735822122041a7e59b7d2eab6025241eaaa356bf6d9d0a3edaaf9406f75e17465c834d840f64736f6c634300081c0033","linkReferences":{}},"methodIdentifiers":{"acceptAdminOwnership()":"645b0ed5","admin()":"f851a440","allocateFunds(address,uint256,address)":"dd46f9d5","approvedStrategies(address)":"c613aec0","deposit(uint256)":"b6b55f25","getTotalValueLocked()":"b26025aa","getUserDeposits()":"94951944","mockSwap()":"50181e86","pause()":"8456cb59","paused()":"5c975abb","pendingAdmin()":"26782247","recoverERC20(address,uint256)":"8980f11f","setApprovedStrategy(address,bool)":"12a7bd4c","swapUSDYtoUSDC(uint256)":"fa45c732","totalValueLocked()":"ec18154e","transferAdminOwnership(address)":"08a80ff5","unpause()":"3f4ba83a","usdc()":"3e413bee","usdy()":"98d506e9","userDeposits(address)":"0ba36dcd","withdraw(uint256)":"2e1a7d4d"},"id":33}