{"abi":[{"type":"function","name":"execute","inputs":[{"name":"user","type":"address","internalType":"address"},{"name":"amount","type":"uint256","internalType":"uint256"}],"outputs":[],"stateMutability":"nonpayable"},{"type":"event","name":"StrategyExecuted","inputs":[{"name":"user","type":"address","indexed":false,"internalType":"address"},{"name":"amount","type":"uint256","indexed":false,"internalType":"uint256"}],"anonymous":false}],"bytecode":{"object":"0x608060405234801561000f575f80fd5b5060ea8061001c5f395ff3fe6080604052348015600e575f80fd5b50600436106026575f3560e01c80633b89bb8614602a575b5f80fd5b603960353660046081565b603b565b005b604080516001600160a01b0384168152602081018390527fb811d939986ff732fa5e25c43b2791456c5d775210b54de1b1c6ddce94f05129910160405180910390a15050565b5f80604083850312156091575f80fd5b82356001600160a01b038116811460a6575f80fd5b94602093909301359350505056fea2646970667358221220360479f3a20402f7a3c90f23be7b88f9d4500533b206053eb358891354a1178f64736f6c63430008140033","linkReferences":{}},"methodIdentifiers":{"execute(address,uint256)":"3b89bb86"},"id":41}