{"abi":[{"type":"constructor","inputs":[{"name":"_usdc","type":"address","internalType":"address"},{"name":"_vault","type":"address","internalType":"address"}],"stateMutability":"nonpayable"},{"type":"function","name":"USDC","inputs":[],"outputs":[{"name":"","type":"address","internalType":"address"}],"stateMutability":"view"},{"type":"function","name":"activePool","inputs":[],"outputs":[{"name":"","type":"address","internalType":"address"}],"stateMutability":"view"},{"type":"function","name":"execute","inputs":[{"name":"user","type":"address","internalType":"address"},{"name":"amount","type":"uint256","internalType":"uint256"}],"outputs":[],"stateMutability":"nonpayable"},{"type":"function","name":"owner","inputs":[],"outputs":[{"name":"","type":"address","internalType":"address"}],"stateMutability":"view"},{"type":"function","name":"renounceOwnership","inputs":[],"outputs":[],"stateMutability":"nonpayable"},{"type":"function","name":"setActivePool","inputs":[{"name":"_newPool","type":"address","internalType":"address"}],"outputs":[],"stateMutability":"nonpayable"},{"type":"function","name":"transferOwnership","inputs":[{"name":"newOwner","type":"address","internalType":"address"}],"outputs":[],"stateMutability":"nonpayable"},{"type":"function","name":"vault","inputs":[],"outputs":[{"name":"","type":"address","internalType":"address"}],"stateMutability":"view"},{"type":"event","name":"ActivePoolUpdated","inputs":[{"name":"newPool","type":"address","indexed":true,"internalType":"address"}],"anonymous":false},{"type":"event","name":"OwnershipTransferred","inputs":[{"name":"previousOwner","type":"address","indexed":true,"internalType":"address"},{"name":"newOwner","type":"address","indexed":true,"internalType":"address"}],"anonymous":false}],"bytecode":{"object":"0x60c03461017a57601f6108b838819003918201601f19168301916001600160401b0383118484101761017e57808492604094855283398101031261017a57610052602061004b83610192565b9201610192565b5f8054336001600160a01b03198216811783556040519394939290916001600160a01b0316907f8be0079c531659141344cd1fd0a4f28419497f9722a3daafe3b4186f6b6457e09080a3600180556001600160a01b0382161561013857506001600160a01b038216156100f35760805260a05260405161071190816101a782396080518181816102610152610399015260a051818181608b01526103440152f35b60405162461bcd60e51b815260206004820152601560248201527f496e76616c6964207661756c74206164647265737300000000000000000000006044820152606490fd5b62461bcd60e51b815260206004820152601460248201527f496e76616c6964205553444320616464726573730000000000000000000000006044820152606490fd5b5f80fd5b634e487b7160e01b5f52604160045260245ffd5b51906001600160a01b038216820361017a5756fe6080806040526004361015610012575f80fd5b5f905f3560e01c9081633b89bb861461031357508063715018a6146102b95780637f7dde4a1461029057806389a302711461024b5780638da5cb5b14610224578063f2fde38b1461015e578063f7883a8b146100bd5763fbfa77cf14610076575f80fd5b346100ba57806003193601126100ba576040517f00000000000000000000000000000000000000000000000000000000000000006001600160a01b03168152602090f35b80fd5b50346100ba5760203660031901126100ba576100d7610638565b6100df610684565b6001600160a01b0316801561012757600280546001600160a01b031916821790557fcb0801ff05ea668a5187538a8c85b4ec5e12e016f191e696f0acc19a68212c028280a280f35b60405162461bcd60e51b815260206004820152600f60248201526e496e76616c6964206164647265737360881b6044820152606490fd5b50346100ba5760203660031901126100ba57610178610638565b610180610684565b6001600160a01b031680156101d05781546001600160a01b03198116821783556001600160a01b03167f8be0079c531659141344cd1fd0a4f28419497f9722a3daafe3b4186f6b6457e08380a380f35b60405162461bcd60e51b815260206004820152602660248201527f4f776e61626c653a206e6577206f776e657220697320746865207a65726f206160448201526564647265737360d01b6064820152608490fd5b50346100ba57806003193601126100ba57546040516001600160a01b039091168152602090f35b50346100ba57806003193601126100ba576040517f00000000000000000000000000000000000000000000000000000000000000006001600160a01b03168152602090f35b50346100ba57806003193601126100ba576002546040516001600160a01b039091168152602090f35b50346100ba57806003193601126100ba576102d2610684565b80546001600160a01b03198116825581906001600160a01b03167f8be0079c531659141344cd1fd0a4f28419497f9722a3daafe3b4186f6b6457e08280a380f35b90503461049d57604036600319011261049d5761032e610638565b602435916002600154146105f6575060026001557f00000000000000000000000000000000000000000000000000000000000000006001600160a01b031633036105b8576002546001600160a01b0316801561057e576040516370a0823160e01b81523060048201527f00000000000000000000000000000000000000000000000000000000000000006001600160a01b031690602081602481855afa80156104925785915f91610549575b50106105125760405163095ea7b360e01b81526001600160a01b0392909216600483015260248201849052602090829060449082905f905af1908115610492575f916104d7575b50156104a1576002546001600160a01b031691823b1561049d57604051631dc4ddc360e11b81526001600160a01b039290921660048301526024820152905f908290604490829084905af180156104925761047f575b506001805580f35b61048b91505f9061064e565b5f5f610477565b6040513d5f823e3d90fd5b5f80fd5b60405162461bcd60e51b815260206004820152600e60248201526d105c1c1c9bdd994819985a5b195960921b6044820152606490fd5b90506020813d60201161050a575b816104f26020938361064e565b8101031261049d5751801515810361049d575f610421565b3d91506104e5565b60405162461bcd60e51b815260206004820152600f60248201526e4e6f7420656e6f756768205553444360881b6044820152606490fd5b9150506020813d602011610576575b816105656020938361064e565b8101031261049d578490515f6103da565b3d9150610558565b60405162461bcd60e51b8152602060048201526012602482015271139bc81858dd1a5d99481c1bdbdb081cd95d60721b6044820152606490fd5b60405162461bcd60e51b81526020600482015260166024820152754f6e6c79207661756c742063616e206578656375746560501b6044820152606490fd5b62461bcd60e51b815260206004820152601f60248201527f5265656e7472616e637947756172643a207265656e7472616e742063616c6c006044820152606490fd5b600435906001600160a01b038216820361049d57565b90601f8019910116810190811067ffffffffffffffff82111761067057604052565b634e487b7160e01b5f52604160045260245ffd5b5f546001600160a01b0316330361069757565b606460405162461bcd60e51b815260206004820152602060248201527f4f776e61626c653a2063616c6c6572206973206e6f7420746865206f776e65726044820152fdfea2646970667358221220c3198e6fbf653a050236cdc9b13cc2d65ffd7e3661b4a4785ffe5be0203e163064736f6c634300081c0033","linkReferences":{}},"methodIdentifiers":{"USDC()":"89a30271","activePool()":"7f7dde4a","execute(address,uint256)":"3b89bb86","owner()":"8da5cb5b","renounceOwnership()":"715018a6","setActivePool(address)":"f7883a8b","transferOwnership(address)":"f2fde38b","vault()":"fbfa77cf"},"id":31}