{"abi":[{"type":"function","name":"execute","inputs":[{"name":"user","type":"address","internalType":"address"},{"name":"amount","type":"uint256","internalType":"uint256"}],"outputs":[],"stateMutability":"nonpayable"},{"type":"event","name":"StrategyExecuted","inputs":[{"name":"user","type":"address","indexed":false,"internalType":"address"},{"name":"amount","type":"uint256","indexed":false,"internalType":"uint256"}],"anonymous":false}],"bytecode":{"object":"0x6080806040523460135760b2908160188239f35b5f80fdfe60808060405260043610156011575f80fd5b5f3560e01c633b89bb86146023575f80fd5b3460785760403660031901126078576004356001600160a01b03811690819003607857816040917fb811d939986ff732fa5e25c43b2791456c5d775210b54de1b1c6ddce94f0512993526024356020820152a1005b5f80fdfea2646970667358221220aaa82f4c952d1d1ab5355bd53ef33b9ced6b5f269db36ef048f45b71c095e03464736f6c634300081c0033","linkReferences":{}},"methodIdentifiers":{"execute(address,uint256)":"3b89bb86"},"id":44}