{"abi":[{"type":"constructor","inputs":[],"stateMutability":"nonpayable"},{"type":"function","name":"INITIAL_SUPPLY","inputs":[],"outputs":[{"name":"","type":"uint256","internalType":"uint256"}],"stateMutability":"view"},{"type":"function","name":"allowance","inputs":[{"name":"owner","type":"address","internalType":"address"},{"name":"spender","type":"address","internalType":"address"}],"outputs":[{"name":"","type":"uint256","internalType":"uint256"}],"stateMutability":"view"},{"type":"function","name":"approve","inputs":[{"name":"spender","type":"address","internalType":"address"},{"name":"amount","type":"uint256","internalType":"uint256"}],"outputs":[{"name":"","type":"bool","internalType":"bool"}],"stateMutability":"nonpayable"},{"type":"function","name":"balanceOf","inputs":[{"name":"account","type":"address","internalType":"address"}],"outputs":[{"name":"","type":"uint256","internalType":"uint256"}],"stateMutability":"view"},{"type":"function","name":"currentYield","inputs":[],"outputs":[{"name":"","type":"uint256","internalType":"uint256"}],"stateMutability":"view"},{"type":"function","name":"decimals","inputs":[],"outputs":[{"name":"","type":"uint8","internalType":"uint8"}],"stateMutability":"view"},{"type":"function","name":"decreaseAllowance","inputs":[{"name":"spender","type":"address","internalType":"address"},{"name":"subtractedValue","type":"uint256","internalType":"uint256"}],"outputs":[{"name":"","type":"bool","internalType":"bool"}],"stateMutability":"nonpayable"},{"type":"function","name":"getCurrentYield","inputs":[],"outputs":[{"name":"","type":"uint256","internalType":"uint256"}],"stateMutability":"view"},{"type":"function","name":"increaseAllowance","inputs":[{"name":"spender","type":"address","internalType":"address"},{"name":"addedValue","type":"uint256","internalType":"uint256"}],"outputs":[{"name":"","type":"bool","internalType":"bool"}],"stateMutability":"nonpayable"},{"type":"function","name":"mint","inputs":[{"name":"to","type":"address","internalType":"address"},{"name":"amount","type":"uint256","internalType":"uint256"}],"outputs":[],"stateMutability":"nonpayable"},{"type":"function","name":"name","inputs":[],"outputs":[{"name":"","type":"string","internalType":"string"}],"stateMutability":"view"},{"type":"function","name":"owner","inputs":[],"outputs":[{"name":"","type":"address","internalType":"address"}],"stateMutability":"view"},{"type":"function","name":"renounceOwnership","inputs":[],"outputs":[],"stateMutability":"nonpayable"},{"type":"function","name":"setCurrentYield","inputs":[{"name":"newYield","type":"uint256","internalType":"uint256"}],"outputs":[],"stateMutability":"nonpayable"},{"type":"function","name":"symbol","inputs":[],"outputs":[{"name":"","type":"string","internalType":"string"}],"stateMutability":"view"},{"type":"function","name":"totalSupply","inputs":[],"outputs":[{"name":"","type":"uint256","internalType":"uint256"}],"stateMutability":"view"},{"type":"function","name":"transfer","inputs":[{"name":"to","type":"address","internalType":"address"},{"name":"amount","type":"uint256","internalType":"uint256"}],"outputs":[{"name":"","type":"bool","internalType":"bool"}],"stateMutability":"nonpayable"},{"type":"function","name":"transferFrom","inputs":[{"name":"from","type":"address","internalType":"address"},{"name":"to","type":"address","internalType":"address"},{"name":"amount","type":"uint256","internalType":"uint256"}],"outputs":[{"name":"","type":"bool","internalType":"bool"}],"stateMutability":"nonpayable"},{"type":"function","name":"transferOwnership","inputs":[{"name":"newOwner","type":"address","internalType":"address"}],"outputs":[],"stateMutability":"nonpayable"},{"type":"event","name":"Approval","inputs":[{"name":"owner","type":"address","indexed":true,"internalType":"address"},{"name":"spender","type":"address","indexed":true,"internalType":"address"},{"name":"value","type":"uint256","indexed":false,"internalType":"uint256"}],"anonymous":false},{"type":"event","name":"OwnershipTransferred","inputs":[{"name":"previousOwner","type":"address","indexed":true,"internalType":"address"},{"name":"newOwner","type":"address","indexed":true,"internalType":"address"}],"anonymous":false},{"type":"event","name":"Transfer","inputs":[{"name":"from","type":"address","indexed":true,"internalType":"address"},{"name":"to","type":"address","indexed":true,"internalType":"address"},{"name":"value","type":"uint256","indexed":false,"internalType":"uint256"}],"anonymous":false}],"bytecode":{"object":"0x60806040523461042857604080519081016001600160401b0381118282101761033b57604090815260098252684d6f636b205553445960b81b602083015280519081016001600160401b0381118282101761033b5760405260048152635553445960e01b602082015281516001600160401b03811161033b57600354600181811c9116801561041e575b602082101461031d57601f81116103bb575b50602092601f821160011461035a57928192935f9261034f575b50508160011b915f199060031b1c1916176003555b80516001600160401b03811161033b57600454600181811c91168015610331575b602082101461031d57601f81116102ba575b50602091601f821160011461025a579181925f9261024f575b50508160011b915f199060031b1c1916176004555b60058054336001600160a01b03198216811790925560405191906001600160a01b03167f8be0079c531659141344cd1fd0a4f28419497f9722a3daafe3b4186f6b6457e05f80a36101f4600655331561020d5760025469d3c21bcecceda100000081018091116101f957600255335f525f60205260405f2069d3c21bcecceda1000000815401905560405169d3c21bcecceda100000081525f7fddf252ad1be2c89b69c2b068fc378daa952ba7f163c4a11628f55a4df523b3ef60203393a3604051610bdf908161042d8239f35b634e487b7160e01b5f52601160045260245ffd5b62461bcd60e51b815260206004820152601f60248201527f45524332303a206d696e7420746f20746865207a65726f2061646472657373006044820152606490fd5b015190505f80610116565b601f1982169260045f52805f20915f5b8581106102a25750836001951061028a575b505050811b0160045561012b565b01515f1960f88460031b161c191690555f808061027c565b9192602060018192868501518155019401920161026a565b60045f527f8a35acfbc15ff81a39ae7d344fd709f28e8600b4aa8c65c6b64bfe7fe36bd19b601f830160051c81019160208410610313575b601f0160051c01905b81811061030857506100fd565b5f81556001016102fb565b90915081906102f2565b634e487b7160e01b5f52602260045260245ffd5b90607f16906100eb565b634e487b7160e01b5f52604160045260245ffd5b015190505f806100b5565b601f1982169360035f52805f20915f5b8681106103a3575083600195961061038b575b505050811b016003556100ca565b01515f1960f88460031b161c191690555f808061037d565b9192602060018192868501518155019401920161036a565b60035f527fc2575a0e9e593c00f959f8c92f12db2869c3395a3b0502d05e2516446f71f85b601f830160051c81019160208410610414575b601f0160051c01905b818110610409575061009b565b5f81556001016103fc565b90915081906103f3565b90607f1690610089565b5f80fdfe6080806040526004361015610012575f80fd5b5f3560e01c90816306fdde031461079157508063095ea7b31461076b57806318160ddd1461074e57806323b872dd146106915780632ff2e9dc1461066d578063313ce56714610652578063395093511461060457806340c10f191461053d57806370a0823114610506578063715018a6146104ab57806378a642f2146102775780638da5cb5b1461048357806395d89b4114610368578063a457c2d7146102c5578063a9059cbb14610294578063b91503a614610277578063c0483ddb14610208578063dd62ed3e146101b85763f2fde38b146100ed575f80fd5b346101b45760203660031901126101b45761010661088a565b61010e610b51565b6001600160a01b0316801561016057600580546001600160a01b0319811683179091556001600160a01b03167f8be0079c531659141344cd1fd0a4f28419497f9722a3daafe3b4186f6b6457e05f80a3005b60405162461bcd60e51b815260206004820152602660248201527f4f776e61626c653a206e6577206f776e657220697320746865207a65726f206160448201526564647265737360d01b6064820152608490fd5b5f80fd5b346101b45760403660031901126101b4576101d161088a565b6101d96108a0565b6001600160a01b039182165f908152600160209081526040808320949093168252928352819020549051908152f35b346101b45760203660031901126101b457600435610224610b51565b612710811161023257600655005b60405162461bcd60e51b815260206004820152601860248201527f5969656c642063616e6e6f7420657863656564203130302500000000000000006044820152606490fd5b346101b4575f3660031901126101b4576020600654604051908152f35b346101b45760403660031901126101b4576102ba6102b061088a565b60243590336109db565b602060405160018152f35b346101b45760403660031901126101b4576102de61088a565b60243590335f52600160205260405f2060018060a01b0382165f5260205260405f205491808310610315576102ba920390336108d7565b60405162461bcd60e51b815260206004820152602560248201527f45524332303a2064656372656173656420616c6c6f77616e63652062656c6f77604482015264207a65726f60d81b6064820152608490fd5b346101b4575f3660031901126101b4576040515f6004548060011c90600181168015610479575b6020831081146104655782855290811561044957506001146103f4575b50819003601f01601f191681019067ffffffffffffffff8211818310176103e0576103dc82918260405282610860565b0390f35b634e487b7160e01b5f52604160045260245ffd5b905060045f527f8a35acfbc15ff81a39ae7d344fd709f28e8600b4aa8c65c6b64bfe7fe36bd19b5f905b828210610433575060209150820101826103ac565b600181602092548385880101520191019061041e565b90506020925060ff191682840152151560051b820101826103ac565b634e487b7160e01b5f52602260045260245ffd5b91607f169161038f565b346101b4575f3660031901126101b4576005546040516001600160a01b039091168152602090f35b346101b4575f3660031901126101b4576104c3610b51565b600580546001600160a01b031981169091555f906001600160a01b03167f8be0079c531659141344cd1fd0a4f28419497f9722a3daafe3b4186f6b6457e08280a3005b346101b45760203660031901126101b4576001600160a01b0361052761088a565b165f525f602052602060405f2054604051908152f35b346101b45760403660031901126101b45761055661088a565b60243590610562610b51565b6001600160a01b03169081156105bf577fddf252ad1be2c89b69c2b068fc378daa952ba7f163c4a11628f55a4df523b3ef6020826105a35f946002546108b6565b60025584845283825260408420818154019055604051908152a3005b60405162461bcd60e51b815260206004820152601f60248201527f45524332303a206d696e7420746f20746865207a65726f2061646472657373006044820152606490fd5b346101b45760403660031901126101b4576102ba61062061088a565b335f52600160205260405f2060018060a01b0382165f5260205261064b60405f2060243590546108b6565b90336108d7565b346101b4575f3660031901126101b457602060405160128152f35b346101b4575f3660031901126101b457602060405169d3c21bcecceda10000008152f35b346101b45760603660031901126101b4576106aa61088a565b6106b26108a0565b6001600160a01b0382165f9081526001602081815260408084203385529091529091205492604435929184016106ed575b6102ba93506109db565b82841061070957610704836102ba950333836108d7565b6106e3565b60405162461bcd60e51b815260206004820152601d60248201527f45524332303a20696e73756666696369656e7420616c6c6f77616e63650000006044820152606490fd5b346101b4575f3660031901126101b4576020600254604051908152f35b346101b45760403660031901126101b4576102ba61078761088a565b60243590336108d7565b346101b4575f3660031901126101b4575f6003548060011c90600181168015610856575b6020831081146104655782855290811561044957506001146108015750819003601f01601f191681019067ffffffffffffffff8211818310176103e0576103dc82918260405282610860565b905060035f527fc2575a0e9e593c00f959f8c92f12db2869c3395a3b0502d05e2516446f71f85b5f905b828210610840575060209150820101826103ac565b600181602092548385880101520191019061082b565b91607f16916107b5565b602060409281835280519182918282860152018484015e5f828201840152601f01601f1916010190565b600435906001600160a01b03821682036101b457565b602435906001600160a01b03821682036101b457565b919082018092116108c357565b634e487b7160e01b5f52601160045260245ffd5b6001600160a01b031690811561098a576001600160a01b031691821561093a5760207f8c5be1e5ebec7d5bd14f71427d1e84f3dd0314c0f7b2291e5b200ac8c7c3b92591835f526001825260405f20855f5282528060405f2055604051908152a3565b60405162461bcd60e51b815260206004820152602260248201527f45524332303a20617070726f766520746f20746865207a65726f206164647265604482015261737360f01b6064820152608490fd5b60405162461bcd60e51b8152602060048201526024808201527f45524332303a20617070726f76652066726f6d20746865207a65726f206164646044820152637265737360e01b6064820152608490fd5b6001600160a01b0316908115610afe576001600160a01b0316918215610aad57815f525f60205260405f2054818110610a5957817fddf252ad1be2c89b69c2b068fc378daa952ba7f163c4a11628f55a4df523b3ef92602092855f525f84520360405f2055845f525f825260405f20818154019055604051908152a3565b60405162461bcd60e51b815260206004820152602660248201527f45524332303a207472616e7366657220616d6f756e7420657863656564732062604482015265616c616e636560d01b6064820152608490fd5b60405162461bcd60e51b815260206004820152602360248201527f45524332303a207472616e7366657220746f20746865207a65726f206164647260448201526265737360e81b6064820152608490fd5b60405162461bcd60e51b815260206004820152602560248201527f45524332303a207472616e736665722066726f6d20746865207a65726f206164604482015264647265737360d81b6064820152608490fd5b6005546001600160a01b03163303610b6557565b606460405162461bcd60e51b815260206004820152602060248201527f4f776e61626c653a2063616c6c6572206973206e6f7420746865206f776e65726044820152fdfea264697066735822122035ab7db03cd95d5a95fa52750fec3f4968395537047acbc986a8f42db6f8472d64736f6c634300081c0033","linkReferences":{}},"methodIdentifiers":{"INITIAL_SUPPLY()":"2ff2e9dc","allowance(address,address)":"dd62ed3e","approve(address,uint256)":"095ea7b3","balanceOf(address)":"70a08231","currentYield()":"78a642f2","decimals()":"313ce567","decreaseAllowance(address,uint256)":"a457c2d7","getCurrentYield()":"b91503a6","increaseAllowance(address,uint256)":"39509351","mint(address,uint256)":"40c10f19","name()":"06fdde03","owner()":"8da5cb5b","renounceOwnership()":"715018a6","setCurrentYield(uint256)":"c0483ddb","symbol()":"95d89b41","totalSupply()":"18160ddd","transfer(address,uint256)":"a9059cbb","transferFrom(address,address,uint256)":"23b872dd","transferOwnership(address)":"f2fde38b"},"id":52}