{"abi":[{"type":"constructor","inputs":[],"stateMutability":"nonpayable"},{"type":"function","name":"INITIAL_SUPPLY","inputs":[],"outputs":[{"name":"","type":"uint256","internalType":"uint256"}],"stateMutability":"view"},{"type":"function","name":"allowance","inputs":[{"name":"owner","type":"address","internalType":"address"},{"name":"spender","type":"address","internalType":"address"}],"outputs":[{"name":"","type":"uint256","internalType":"uint256"}],"stateMutability":"view"},{"type":"function","name":"approve","inputs":[{"name":"spender","type":"address","internalType":"address"},{"name":"amount","type":"uint256","internalType":"uint256"}],"outputs":[{"name":"","type":"bool","internalType":"bool"}],"stateMutability":"nonpayable"},{"type":"function","name":"balanceOf","inputs":[{"name":"account","type":"address","internalType":"address"}],"outputs":[{"name":"","type":"uint256","internalType":"uint256"}],"stateMutability":"view"},{"type":"function","name":"currentYield","inputs":[],"outputs":[{"name":"","type":"uint256","internalType":"uint256"}],"stateMutability":"view"},{"type":"function","name":"decimals","inputs":[],"outputs":[{"name":"","type":"uint8","internalType":"uint8"}],"stateMutability":"view"},{"type":"function","name":"decreaseAllowance","inputs":[{"name":"spender","type":"address","internalType":"address"},{"name":"subtractedValue","type":"uint256","internalType":"uint256"}],"outputs":[{"name":"","type":"bool","internalType":"bool"}],"stateMutability":"nonpayable"},{"type":"function","name":"getCurrentYield","inputs":[],"outputs":[{"name":"","type":"uint256","internalType":"uint256"}],"stateMutability":"view"},{"type":"function","name":"increaseAllowance","inputs":[{"name":"spender","type":"address","internalType":"address"},{"name":"addedValue","type":"uint256","internalType":"uint256"}],"outputs":[{"name":"","type":"bool","internalType":"bool"}],"stateMutability":"nonpayable"},{"type":"function","name":"mint","inputs":[{"name":"to","type":"address","internalType":"address"},{"name":"amount","type":"uint256","internalType":"uint256"}],"outputs":[],"stateMutability":"nonpayable"},{"type":"function","name":"name","inputs":[],"outputs":[{"name":"","type":"string","internalType":"string"}],"stateMutability":"view"},{"type":"function","name":"owner","inputs":[],"outputs":[{"name":"","type":"address","internalType":"address"}],"stateMutability":"view"},{"type":"function","name":"renounceOwnership","inputs":[],"outputs":[],"stateMutability":"nonpayable"},{"type":"function","name":"setCurrentYield","inputs":[{"name":"newYield","type":"uint256","internalType":"uint256"}],"outputs":[],"stateMutability":"nonpayable"},{"type":"function","name":"symbol","inputs":[],"outputs":[{"name":"","type":"string","internalType":"string"}],"stateMutability":"view"},{"type":"function","name":"totalSupply","inputs":[],"outputs":[{"name":"","type":"uint256","internalType":"uint256"}],"stateMutability":"view"},{"type":"function","name":"transfer","inputs":[{"name":"to","type":"address","internalType":"address"},{"name":"amount","type":"uint256","internalType":"uint256"}],"outputs":[{"name":"","type":"bool","internalType":"bool"}],"stateMutability":"nonpayable"},{"type":"function","name":"transferFrom","inputs":[{"name":"from","type":"address","internalType":"address"},{"name":"to","type":"address","internalType":"address"},{"name":"amount","type":"uint256","internalType":"uint256"}],"outputs":[{"name":"","type":"bool","internalType":"bool"}],"stateMutability":"nonpayable"},{"type":"function","name":"transferOwnership","inputs":[{"name":"newOwner","type":"address","internalType":"address"}],"outputs":[],"stateMutability":"nonpayable"},{"type":"event","name":"Approval","inputs":[{"name":"owner","type":"address","indexed":true,"internalType":"address"},{"name":"spender","type":"address","indexed":true,"internalType":"address"},{"name":"value","type":"uint256","indexed":false,"internalType":"uint256"}],"anonymous":false},{"type":"event","name":"OwnershipTransferred","inputs":[{"name":"previousOwner","type":"address","indexed":true,"internalType":"address"},{"name":"newOwner","type":"address","indexed":true,"internalType":"address"}],"anonymous":false},{"type":"event","name":"Transfer","inputs":[{"name":"from","type":"address","indexed":true,"internalType":"address"},{"name":"to","type":"address","indexed":true,"internalType":"address"},{"name":"value","type":"uint256","indexed":false,"internalType":"uint256"}],"anonymous":false}],"bytecode":{"object":"0x60806040526101f4600655348015610015575f5ffd5b506040518060400160405280600981526020017f4d6f636b205553445900000000000000000000000000000000000000000000008152506040518060400160405280600481526020017f55534459000000000000000000000000000000000000000000000000000000008152508160039081610091919061054a565b5080600490816100a1919061054a565b5050506100c06100b56100df60201b60201c565b6100e660201b60201c565b6100da3369d3c21bcecceda10000006101a960201b60201c565b610719565b5f33905090565b5f60055f9054906101000a900473ffffffffffffffffffffffffffffffffffffffff1690508160055f6101000a81548173ffffffffffffffffffffffffffffffffffffffff021916908373ffffffffffffffffffffffffffffffffffffffff1602179055508173ffffffffffffffffffffffffffffffffffffffff168173ffffffffffffffffffffffffffffffffffffffff167f8be0079c531659141344cd1fd0a4f28419497f9722a3daafe3b4186f6b6457e060405160405180910390a35050565b5f73ffffffffffffffffffffffffffffffffffffffff168273ffffffffffffffffffffffffffffffffffffffff1603610217576040517f08c379a000000000000000000000000000000000000000000000000000000000815260040161020e90610673565b60405180910390fd5b6102285f838361030360201b60201c565b8060025f82825461023991906106be565b92505081905550805f5f8473ffffffffffffffffffffffffffffffffffffffff1673ffffffffffffffffffffffffffffffffffffffff1681526020019081526020015f205f82825401925050819055508173ffffffffffffffffffffffffffffffffffffffff165f73ffffffffffffffffffffffffffffffffffffffff167fddf252ad1be2c89b69c2b068fc378daa952ba7f163c4a11628f55a4df523b3ef836040516102e69190610700565b60405180910390a36102ff5f838361030860201b60201c565b5050565b505050565b505050565b5f81519050919050565b7f4e487b71000000000000000000000000000000000000000000000000000000005f52604160045260245ffd5b7f4e487b71000000000000000000000000000000000000000000000000000000005f52602260045260245ffd5b5f600282049050600182168061038857607f821691505b60208210810361039b5761039a610344565b5b50919050565b5f819050815f5260205f209050919050565b5f6020601f8301049050919050565b5f82821b905092915050565b5f600883026103fd7fffffffffffffffffffffffffffffffffffffffffffffffffffffffffffffffff826103c2565b61040786836103c2565b95508019841693508086168417925050509392505050565b5f819050919050565b5f819050919050565b5f61044b6104466104418461041f565b610428565b61041f565b9050919050565b5f819050919050565b61046483610431565b61047861047082610452565b8484546103ce565b825550505050565b5f5f905090565b61048f610480565b61049a81848461045b565b505050565b5b818110156104bd576104b25f82610487565b6001810190506104a0565b5050565b601f821115610502576104d3816103a1565b6104dc846103b3565b810160208510156104eb578190505b6104ff6104f7856103b3565b83018261049f565b50505b505050565b5f82821c905092915050565b5f6105225f1984600802610507565b1980831691505092915050565b5f61053a8383610513565b9150826002028217905092915050565b6105538261030d565b67ffffffffffffffff81111561056c5761056b610317565b5b6105768254610371565b6105818282856104c1565b5f60209050601f8311600181146105b2575f84156105a0578287015190505b6105aa858261052f565b865550610611565b601f1984166105c0866103a1565b5f5b828110156105e7578489015182556001820191506020850194506020810190506105c2565b868310156106045784890151610600601f891682610513565b8355505b6001600288020188555050505b505050505050565b5f82825260208201905092915050565b7f45524332303a206d696e7420746f20746865207a65726f2061646472657373005f82015250565b5f61065d601f83610619565b915061066882610629565b602082019050919050565b5f6020820190508181035f83015261068a81610651565b9050919050565b7f4e487b71000000000000000000000000000000000000000000000000000000005f52601160045260245ffd5b5f6106c88261041f565b91506106d38361041f565b92508282019050808211156106eb576106ea610691565b5b92915050565b6106fa8161041f565b82525050565b5f6020820190506107135f8301846106f1565b92915050565b6118e6806107265f395ff3fe608060405234801561000f575f5ffd5b506004361061011f575f3560e01c8063715018a6116100ab578063a9059cbb1161006f578063a9059cbb1461030b578063b91503a61461033b578063c0483ddb14610359578063dd62ed3e14610375578063f2fde38b146103a55761011f565b8063715018a61461027757806378a642f2146102815780638da5cb5b1461029f57806395d89b41146102bd578063a457c2d7146102db5761011f565b80632ff2e9dc116100f25780632ff2e9dc146101bf578063313ce567146101dd57806339509351146101fb57806340c10f191461022b57806370a08231146102475761011f565b806306fdde0314610123578063095ea7b31461014157806318160ddd1461017157806323b872dd1461018f575b5f5ffd5b61012b6103c1565b6040516101389190610fe7565b60405180910390f35b61015b60048036038101906101569190611098565b610451565b60405161016891906110f0565b60405180910390f35b610179610473565b6040516101869190611118565b60405180910390f35b6101a960048036038101906101a49190611131565b61047c565b6040516101b691906110f0565b60405180910390f35b6101c76104aa565b6040516101d49190611118565b60405180910390f35b6101e56104b8565b6040516101f2919061119c565b60405180910390f35b61021560048036038101906102109190611098565b6104c0565b60405161022291906110f0565b60405180910390f35b61024560048036038101906102409190611098565b6104f6565b005b610261600480360381019061025c91906111b5565b61050c565b60405161026e9190611118565b60405180910390f35b61027f610551565b005b610289610564565b6040516102969190611118565b60405180910390f35b6102a761056a565b6040516102b491906111ef565b60405180910390f35b6102c5610592565b6040516102d29190610fe7565b60405180910390f35b6102f560048036038101906102f09190611098565b610622565b60405161030291906110f0565b60405180910390f35b61032560048036038101906103209190611098565b610697565b60405161033291906110f0565b60405180910390f35b6103436106b9565b6040516103509190611118565b60405180910390f35b610373600480360381019061036e9190611208565b6106c2565b005b61038f600480360381019061038a9190611233565b610719565b60405161039c9190611118565b60405180910390f35b6103bf60048036038101906103ba91906111b5565b61079b565b005b6060600380546103d09061129e565b80601f01602080910402602001604051908101604052809291908181526020018280546103fc9061129e565b80156104475780601f1061041e57610100808354040283529160200191610447565b820191905f5260205f20905b81548152906001019060200180831161042a57829003601f168201915b5050505050905090565b5f5f61045b61081d565b9050610468818585610824565b600191505092915050565b5f600254905090565b5f5f61048661081d565b90506104938582856109e7565b61049e858585610a72565b60019150509392505050565b69d3c21bcecceda100000081565b5f6012905090565b5f5f6104ca61081d565b90506104eb8185856104dc8589610719565b6104e691906112fb565b610824565b600191505092915050565b6104fe610cde565b6105088282610d5c565b5050565b5f5f5f8373ffffffffffffffffffffffffffffffffffffffff1673ffffffffffffffffffffffffffffffffffffffff1681526020019081526020015f20549050919050565b610559610cde565b6105625f610eaa565b565b60065481565b5f60055f9054906101000a900473ffffffffffffffffffffffffffffffffffffffff16905090565b6060600480546105a19061129e565b80601f01602080910402602001604051908101604052809291908181526020018280546105cd9061129e565b80156106185780601f106105ef57610100808354040283529160200191610618565b820191905f5260205f20905b8154815290600101906020018083116105fb57829003601f168201915b5050505050905090565b5f5f61062c61081d565b90505f6106398286610719565b90508381101561067e576040517f08c379a00000000000000000000000000000000000000000000000000000000081526004016106759061139e565b60405180910390fd5b61068b8286868403610824565b60019250505092915050565b5f5f6106a161081d565b90506106ae818585610a72565b600191505092915050565b5f600654905090565b6106ca610cde565b61271081111561070f576040517f08c379a000000000000000000000000000000000000000000000000000000000815260040161070690611406565b60405180910390fd5b8060068190555050565b5f60015f8473ffffffffffffffffffffffffffffffffffffffff1673ffffffffffffffffffffffffffffffffffffffff1681526020019081526020015f205f8373ffffffffffffffffffffffffffffffffffffffff1673ffffffffffffffffffffffffffffffffffffffff1681526020019081526020015f2054905092915050565b6107a3610cde565b5f73ffffffffffffffffffffffffffffffffffffffff168173ffffffffffffffffffffffffffffffffffffffff1603610811576040517f08c379a000000000000000000000000000000000000000000000000000000000815260040161080890611494565b60405180910390fd5b61081a81610eaa565b50565b5f33905090565b5f73ffffffffffffffffffffffffffffffffffffffff168373ffffffffffffffffffffffffffffffffffffffff1603610892576040517f08c379a000000000000000000000000000000000000000000000000000000000815260040161088990611522565b60405180910390fd5b5f73ffffffffffffffffffffffffffffffffffffffff168273ffffffffffffffffffffffffffffffffffffffff1603610900576040517f08c379a00000000000000000000000000000000000000000000000000000000081526004016108f7906115b0565b60405180910390fd5b8060015f8573ffffffffffffffffffffffffffffffffffffffff1673ffffffffffffffffffffffffffffffffffffffff1681526020019081526020015f205f8473ffffffffffffffffffffffffffffffffffffffff1673ffffffffffffffffffffffffffffffffffffffff1681526020019081526020015f20819055508173ffffffffffffffffffffffffffffffffffffffff168373ffffffffffffffffffffffffffffffffffffffff167f8c5be1e5ebec7d5bd14f71427d1e84f3dd0314c0f7b2291e5b200ac8c7c3b925836040516109da9190611118565b60405180910390a3505050565b5f6109f28484610719565b90507fffffffffffffffffffffffffffffffffffffffffffffffffffffffffffffffff8114610a6c5781811015610a5e576040517f08c379a0000000000000000000000000000000000000000000000000000000008152600401610a5590611618565b60405180910390fd5b610a6b8484848403610824565b5b50505050565b5f73ffffffffffffffffffffffffffffffffffffffff168373ffffffffffffffffffffffffffffffffffffffff1603610ae0576040517f08c379a0000000000000000000000000000000000000000000000000000000008152600401610ad7906116a6565b60405180910390fd5b5f73ffffffffffffffffffffffffffffffffffffffff168273ffffffffffffffffffffffffffffffffffffffff1603610b4e576040517f08c379a0000000000000000000000000000000000000000000000000000000008152600401610b4590611734565b60405180910390fd5b610b59838383610f6d565b5f5f5f8573ffffffffffffffffffffffffffffffffffffffff1673ffffffffffffffffffffffffffffffffffffffff1681526020019081526020015f2054905081811015610bdc576040517f08c379a0000000000000000000000000000000000000000000000000000000008152600401610bd3906117c2565b60405180910390fd5b8181035f5f8673ffffffffffffffffffffffffffffffffffffffff1673ffffffffffffffffffffffffffffffffffffffff1681526020019081526020015f2081905550815f5f8573ffffffffffffffffffffffffffffffffffffffff1673ffffffffffffffffffffffffffffffffffffffff1681526020019081526020015f205f82825401925050819055508273ffffffffffffffffffffffffffffffffffffffff168473ffffffffffffffffffffffffffffffffffffffff167fddf252ad1be2c89b69c2b068fc378daa952ba7f163c4a11628f55a4df523b3ef84604051610cc59190611118565b60405180910390a3610cd8848484610f72565b50505050565b610ce661081d565b73ffffffffffffffffffffffffffffffffffffffff16610d0461056a565b73ffffffffffffffffffffffffffffffffffffffff1614610d5a576040517f08c379a0000000000000000000000000000000000000000000000000000000008152600401610d519061182a565b60405180910390fd5b565b5f73ffffffffffffffffffffffffffffffffffffffff168273ffffffffffffffffffffffffffffffffffffffff1603610dca576040517f08c379a0000000000000000000000000000000000000000000000000000000008152600401610dc190611892565b60405180910390fd5b610dd55f8383610f6d565b8060025f828254610de691906112fb565b92505081905550805f5f8473ffffffffffffffffffffffffffffffffffffffff1673ffffffffffffffffffffffffffffffffffffffff1681526020019081526020015f205f82825401925050819055508173ffffffffffffffffffffffffffffffffffffffff165f73ffffffffffffffffffffffffffffffffffffffff167fddf252ad1be2c89b69c2b068fc378daa952ba7f163c4a11628f55a4df523b3ef83604051610e939190611118565b60405180910390a3610ea65f8383610f72565b5050565b5f60055f9054906101000a900473ffffffffffffffffffffffffffffffffffffffff1690508160055f6101000a81548173ffffffffffffffffffffffffffffffffffffffff021916908373ffffffffffffffffffffffffffffffffffffffff1602179055508173ffffffffffffffffffffffffffffffffffffffff168173ffffffffffffffffffffffffffffffffffffffff167f8be0079c531659141344cd1fd0a4f28419497f9722a3daafe3b4186f6b6457e060405160405180910390a35050565b505050565b505050565b5f81519050919050565b5f82825260208201905092915050565b8281835e5f83830152505050565b5f601f19601f8301169050919050565b5f610fb982610f77565b610fc38185610f81565b9350610fd3818560208601610f91565b610fdc81610f9f565b840191505092915050565b5f6020820190508181035f830152610fff8184610faf565b905092915050565b5f5ffd5b5f73ffffffffffffffffffffffffffffffffffffffff82169050919050565b5f6110348261100b565b9050919050565b6110448161102a565b811461104e575f5ffd5b50565b5f8135905061105f8161103b565b92915050565b5f819050919050565b61107781611065565b8114611081575f5ffd5b50565b5f813590506110928161106e565b92915050565b5f5f604083850312156110ae576110ad611007565b5b5f6110bb85828601611051565b92505060206110cc85828601611084565b9150509250929050565b5f8115159050919050565b6110ea816110d6565b82525050565b5f6020820190506111035f8301846110e1565b92915050565b61111281611065565b82525050565b5f60208201905061112b5f830184611109565b92915050565b5f5f5f6060848603121561114857611147611007565b5b5f61115586828701611051565b935050602061116686828701611051565b925050604061117786828701611084565b9150509250925092565b5f60ff82169050919050565b61119681611181565b82525050565b5f6020820190506111af5f83018461118d565b92915050565b5f602082840312156111ca576111c9611007565b5b5f6111d784828501611051565b91505092915050565b6111e98161102a565b82525050565b5f6020820190506112025f8301846111e0565b92915050565b5f6020828403121561121d5761121c611007565b5b5f61122a84828501611084565b91505092915050565b5f5f6040838503121561124957611248611007565b5b5f61125685828601611051565b925050602061126785828601611051565b9150509250929050565b7f4e487b71000000000000000000000000000000000000000000000000000000005f52602260045260245ffd5b5f60028204905060018216806112b557607f821691505b6020821081036112c8576112c7611271565b5b50919050565b7f4e487b71000000000000000000000000000000000000000000000000000000005f52601160045260245ffd5b5f61130582611065565b915061131083611065565b9250828201905080821115611328576113276112ce565b5b92915050565b7f45524332303a2064656372656173656420616c6c6f77616e63652062656c6f775f8201527f207a65726f000000000000000000000000000000000000000000000000000000602082015250565b5f611388602583610f81565b91506113938261132e565b604082019050919050565b5f6020820190508181035f8301526113b58161137c565b9050919050565b7f5969656c642063616e6e6f7420657863656564203130302500000000000000005f82015250565b5f6113f0601883610f81565b91506113fb826113bc565b602082019050919050565b5f6020820190508181035f83015261141d816113e4565b9050919050565b7f4f776e61626c653a206e6577206f776e657220697320746865207a65726f20615f8201527f6464726573730000000000000000000000000000000000000000000000000000602082015250565b5f61147e602683610f81565b915061148982611424565b604082019050919050565b5f6020820190508181035f8301526114ab81611472565b9050919050565b7f45524332303a20617070726f76652066726f6d20746865207a65726f206164645f8201527f7265737300000000000000000000000000000000000000000000000000000000602082015250565b5f61150c602483610f81565b9150611517826114b2565b604082019050919050565b5f6020820190508181035f83015261153981611500565b9050919050565b7f45524332303a20617070726f766520746f20746865207a65726f2061646472655f8201527f7373000000000000000000000000000000000000000000000000000000000000602082015250565b5f61159a602283610f81565b91506115a582611540565b604082019050919050565b5f6020820190508181035f8301526115c78161158e565b9050919050565b7f45524332303a20696e73756666696369656e7420616c6c6f77616e63650000005f82015250565b5f611602601d83610f81565b915061160d826115ce565b602082019050919050565b5f6020820190508181035f83015261162f816115f6565b9050919050565b7f45524332303a207472616e736665722066726f6d20746865207a65726f2061645f8201527f6472657373000000000000000000000000000000000000000000000000000000602082015250565b5f611690602583610f81565b915061169b82611636565b604082019050919050565b5f6020820190508181035f8301526116bd81611684565b9050919050565b7f45524332303a207472616e7366657220746f20746865207a65726f20616464725f8201527f6573730000000000000000000000000000000000000000000000000000000000602082015250565b5f61171e602383610f81565b9150611729826116c4565b604082019050919050565b5f6020820190508181035f83015261174b81611712565b9050919050565b7f45524332303a207472616e7366657220616d6f756e74206578636565647320625f8201527f616c616e63650000000000000000000000000000000000000000000000000000602082015250565b5f6117ac602683610f81565b91506117b782611752565b604082019050919050565b5f6020820190508181035f8301526117d9816117a0565b9050919050565b7f4f776e61626c653a2063616c6c6572206973206e6f7420746865206f776e65725f82015250565b5f611814602083610f81565b915061181f826117e0565b602082019050919050565b5f6020820190508181035f83015261184181611808565b9050919050565b7f45524332303a206d696e7420746f20746865207a65726f2061646472657373005f82015250565b5f61187c601f83610f81565b915061188782611848565b602082019050919050565b5f6020820190508181035f8301526118a981611870565b905091905056fea26469706673582212200139465ac2cdbf4d58ad6e083f5fa2f40cc5aad322b0d819eec539e48c81d28964736f6c634300081c0033","linkReferences":{}},"methodIdentifiers":{"INITIAL_SUPPLY()":"2ff2e9dc","allowance(address,address)":"dd62ed3e","approve(address,uint256)":"095ea7b3","balanceOf(address)":"70a08231","currentYield()":"78a642f2","decimals()":"313ce567","decreaseAllowance(address,uint256)":"a457c2d7","getCurrentYield()":"b91503a6","increaseAllowance(address,uint256)":"39509351","mint(address,uint256)":"40c10f19","name()":"06fdde03","owner()":"8da5cb5b","renounceOwnership()":"715018a6","setCurrentYield(uint256)":"c0483ddb","symbol()":"95d89b41","totalSupply()":"18160ddd","transfer(address,uint256)":"a9059cbb","transferFrom(address,address,uint256)":"23b872dd","transferOwnership(address)":"f2fde38b"},"id":14}