{"abi":[{"type":"constructor","inputs":[{"name":"_usdc","type":"address","internalType":"address"}],"stateMutability":"nonpayable"},{"type":"function","name":"activePool","inputs":[],"outputs":[{"name":"","type":"address","internalType":"address"}],"stateMutability":"view"},{"type":"function","name":"execute","inputs":[{"name":"user","type":"address","internalType":"address"},{"name":"amount","type":"uint256","internalType":"uint256"}],"outputs":[],"stateMutability":"nonpayable"},{"type":"function","name":"owner","inputs":[],"outputs":[{"name":"","type":"address","internalType":"address"}],"stateMutability":"view"},{"type":"function","name":"renounceOwnership","inputs":[],"outputs":[],"stateMutability":"nonpayable"},{"type":"function","name":"setActivePool","inputs":[{"name":"newPool","type":"address","internalType":"address"}],"outputs":[],"stateMutability":"nonpayable"},{"type":"function","name":"transferOwnership","inputs":[{"name":"newOwner","type":"address","internalType":"address"}],"outputs":[],"stateMutability":"nonpayable"},{"type":"function","name":"usdc","inputs":[],"outputs":[{"name":"","type":"address","internalType":"address"}],"stateMutability":"view"},{"type":"event","name":"ActivePoolUpdated","inputs":[{"name":"newPool","type":"address","indexed":true,"internalType":"address"}],"anonymous":false},{"type":"event","name":"OwnershipTransferred","inputs":[{"name":"previousOwner","type":"address","indexed":true,"internalType":"address"},{"name":"newOwner","type":"address","indexed":true,"internalType":"address"}],"anonymous":false}],"bytecode":{"object":"0x60a03461010257601f61075a38819003918201601f19168301916001600160401b038311848410176101065780849260209460405283398101031261010257516001600160a01b038116808203610102575f8054336001600160a01b0319821681178355604051939290916001600160a01b0316907f8be0079c531659141344cd1fd0a4f28419497f9722a3daafe3b4186f6b6457e09080a3156100c0575060805260405161063f908161011b823960805181818161029401526103280152f35b62461bcd60e51b815260206004820152601b60248201527f5553444320616464726573732063616e6e6f74206265207a65726f00000000006044820152606490fd5b5f80fd5b634e487b7160e01b5f52604160045260245ffdfe6080806040526004361015610012575f80fd5b5f905f3560e01c9081633b89bb86146102c3575080633e413bee1461027e578063715018a6146102245780637f7dde4a146101fb5780638da5cb5b146101d4578063f2fde38b1461010e5763f7883a8b1461006b575f80fd5b3461010b57602036600319011261010b5761008461054e565b61008c6105b2565b6001600160a01b031680156100d457600180546001600160a01b031916821790557fcb0801ff05ea668a5187538a8c85b4ec5e12e016f191e696f0acc19a68212c028280a280f35b60405162461bcd60e51b815260206004820152600f60248201526e496e76616c6964206164647265737360881b6044820152606490fd5b80fd5b503461010b57602036600319011261010b5761012861054e565b6101306105b2565b6001600160a01b031680156101805781546001600160a01b03198116821783556001600160a01b03167f8be0079c531659141344cd1fd0a4f28419497f9722a3daafe3b4186f6b6457e08380a380f35b60405162461bcd60e51b815260206004820152602660248201527f4f776e61626c653a206e6577206f776e657220697320746865207a65726f206160448201526564647265737360d01b6064820152608490fd5b503461010b578060031936011261010b57546040516001600160a01b039091168152602090f35b503461010b578060031936011261010b576001546040516001600160a01b039091168152602090f35b503461010b578060031936011261010b5761023d6105b2565b80546001600160a01b03198116825581906001600160a01b03167f8be0079c531659141344cd1fd0a4f28419497f9722a3daafe3b4186f6b6457e08280a380f35b503461010b578060031936011261010b576040517f00000000000000000000000000000000000000000000000000000000000000006001600160a01b03168152602090f35b90503461041b57604036600319011261041b576102de61054e565b6024359190336001600160a01b039091160361051457506001546001600160a01b0316156104da576040516323b872dd60e01b8152336004820152306024820152604481018290527f00000000000000000000000000000000000000000000000000000000000000006001600160a01b0316906020816064815f865af1908115610410575f916104bb575b50156104845760015460405163095ea7b360e01b81526001600160a01b0390911660048201526024810183905290602090829060449082905f905af1908115610410575f91610455575b501561041f576001546001600160a01b0316803b1561041b57604051631dc4ddc360e11b815233600482015260248101929092525f908290604490829084905af1801561041057610402575080f35b61040e91505f90610564565b005b6040513d5f823e3d90fd5b5f80fd5b60405162461bcd60e51b815260206004820152600e60248201526d105c1c1c9bdd994819985a5b195960921b6044820152606490fd5b610477915060203d60201161047d575b61046f8183610564565b81019061059a565b5f6103b3565b503d610465565b60405162461bcd60e51b815260206004820152600f60248201526e151c985b9cd9995c8819985a5b1959608a1b6044820152606490fd5b6104d4915060203d60201161047d5761046f8183610564565b5f610369565b60405162461bcd60e51b8152602060048201526012602482015271139bc81858dd1a5d99481c1bdbdb081cd95d60721b6044820152606490fd5b62461bcd60e51b81526020600482015260156024820152744f6e6c7920757365722063616e206578656375746560581b6044820152606490fd5b600435906001600160a01b038216820361041b57565b90601f8019910116810190811067ffffffffffffffff82111761058657604052565b634e487b7160e01b5f52604160045260245ffd5b9081602091031261041b5751801515810361041b5790565b5f546001600160a01b031633036105c557565b606460405162461bcd60e51b815260206004820152602060248201527f4f776e61626c653a2063616c6c6572206973206e6f7420746865206f776e65726044820152fdfea2646970667358221220c367ba2a48135954be96480e522e88765dffa564fed72c3243cf57998876e4ef64736f6c634300081c0033","linkReferences":{}},"methodIdentifiers":{"activePool()":"7f7dde4a","execute(address,uint256)":"3b89bb86","owner()":"8da5cb5b","renounceOwnership()":"715018a6","setActivePool(address)":"f7883a8b","transferOwnership(address)":"f2fde38b","usdc()":"3e413bee"},"id":40}