{"abi":[{"type":"constructor","inputs":[{"name":"_usdc","type":"address","internalType":"address"}],"stateMutability":"nonpayable"},{"type":"function","name":"USDC","inputs":[],"outputs":[{"name":"","type":"address","internalType":"address"}],"stateMutability":"view"},{"type":"function","name":"activePool","inputs":[],"outputs":[{"name":"","type":"address","internalType":"address"}],"stateMutability":"view"},{"type":"function","name":"execute","inputs":[{"name":"user","type":"address","internalType":"address"},{"name":"amount","type":"uint256","internalType":"uint256"}],"outputs":[],"stateMutability":"nonpayable"},{"type":"function","name":"owner","inputs":[],"outputs":[{"name":"","type":"address","internalType":"address"}],"stateMutability":"view"},{"type":"function","name":"renounceOwnership","inputs":[],"outputs":[],"stateMutability":"nonpayable"},{"type":"function","name":"setActivePool","inputs":[{"name":"_newPool","type":"address","internalType":"address"}],"outputs":[],"stateMutability":"nonpayable"},{"type":"function","name":"transferOwnership","inputs":[{"name":"newOwner","type":"address","internalType":"address"}],"outputs":[],"stateMutability":"nonpayable"},{"type":"event","name":"ActivePoolUpdated","inputs":[{"name":"newPool","type":"address","indexed":true,"internalType":"address"}],"anonymous":false},{"type":"event","name":"OwnershipTransferred","inputs":[{"name":"previousOwner","type":"address","indexed":true,"internalType":"address"},{"name":"newOwner","type":"address","indexed":true,"internalType":"address"}],"anonymous":false}],"bytecode":{"object":"0x60a0346100b657601f61065a38819003918201601f19168301916001600160401b038311848410176100ba578084926020946040528339810103126100b657516001600160a01b03811681036100b6575f8054336001600160a01b0319821681178355604051939290916001600160a01b0316907f8be0079c531659141344cd1fd0a4f28419497f9722a3daafe3b4186f6b6457e09080a360805261058b90816100cf823960805181818161021101526103210152f35b5f80fd5b634e487b7160e01b5f52604160045260245ffdfe6080806040526004361015610012575f80fd5b5f905f3560e01c9081633b89bb86146102c357508063715018a6146102695780637f7dde4a1461024057806389a30271146101fb5780638da5cb5b146101d4578063f2fde38b1461010e5763f7883a8b1461006b575f80fd5b3461010b57602036600319011261010b5761008461049a565b61008c6104fe565b6001600160a01b031680156100d457600180546001600160a01b031916821790557fcb0801ff05ea668a5187538a8c85b4ec5e12e016f191e696f0acc19a68212c028280a280f35b60405162461bcd60e51b815260206004820152600f60248201526e496e76616c6964206164647265737360881b6044820152606490fd5b80fd5b503461010b57602036600319011261010b5761012861049a565b6101306104fe565b6001600160a01b031680156101805781546001600160a01b03198116821783556001600160a01b03167f8be0079c531659141344cd1fd0a4f28419497f9722a3daafe3b4186f6b6457e08380a380f35b60405162461bcd60e51b815260206004820152602660248201527f4f776e61626c653a206e6577206f776e657220697320746865207a65726f206160448201526564647265737360d01b6064820152608490fd5b503461010b578060031936011261010b57546040516001600160a01b039091168152602090f35b503461010b578060031936011261010b576040517f00000000000000000000000000000000000000000000000000000000000000006001600160a01b03168152602090f35b503461010b578060031936011261010b576001546040516001600160a01b039091168152602090f35b503461010b578060031936011261010b576102826104fe565b80546001600160a01b03198116825581906001600160a01b03167f8be0079c531659141344cd1fd0a4f28419497f9722a3daafe3b4186f6b6457e08280a380f35b905034610417576040366003190112610417576102de61049a565b60015460243592906001600160a01b03161561046357506040516323b872dd60e01b81526001600160a01b038281166004830152306024830152604482018490527f000000000000000000000000000000000000000000000000000000000000000016906020816064815f865af1801561040c5761039b926020928692610448575b5060015460405163095ea7b360e01b81526001600160a01b0390911660048201526024810192909252909283919082905f9082906044820190565b03925af1801561040c5761041b575b506001546001600160a01b031691823b1561041757604051631dc4ddc360e11b81526001600160a01b039290921660048301526024820152905f908290604490829084905af1801561040c576103fe575080f35b61040a91505f906104b0565b005b6040513d5f823e3d90fd5b5f80fd5b61043c9060203d602011610441575b61043481836104b0565b8101906104e6565b6103aa565b503d61042a565b61045e90843d86116104415761043481836104b0565b610360565b62461bcd60e51b8152602060048201526012602482015271139bc81858dd1a5d99481c1bdbdb081cd95d60721b6044820152606490fd5b600435906001600160a01b038216820361041757565b90601f8019910116810190811067ffffffffffffffff8211176104d257604052565b634e487b7160e01b5f52604160045260245ffd5b90816020910312610417575180151581036104175790565b5f546001600160a01b0316330361051157565b606460405162461bcd60e51b815260206004820152602060248201527f4f776e61626c653a2063616c6c6572206973206e6f7420746865206f776e65726044820152fdfea26469706673582212205e9596d6aca742a797b3f2b42145298bb44c37eac744bab7f9c5c00fc5932f0964736f6c634300081c0033","linkReferences":{}},"methodIdentifiers":{"USDC()":"89a30271","activePool()":"7f7dde4a","execute(address,uint256)":"3b89bb86","owner()":"8da5cb5b","renounceOwnership()":"715018a6","setActivePool(address)":"f7883a8b","transferOwnership(address)":"f2fde38b"},"id":37}