{"abi":[{"type":"constructor","inputs":[{"name":"_lowRisk","type":"address","internalType":"address"},{"name":"_highRisk","type":"address","internalType":"address"},{"name":"_admin","type":"address","internalType":"address"}],"stateMutability":"nonpayable"},{"type":"function","name":"admin","inputs":[],"outputs":[{"name":"","type":"address","internalType":"address"}],"stateMutability":"view"},{"type":"function","name":"executeHighRiskStrategy","inputs":[{"name":"user","type":"address","internalType":"address"},{"name":"amount","type":"uint256","internalType":"uint256"}],"outputs":[],"stateMutability":"nonpayable"},{"type":"function","name":"executeLowRiskStrategy","inputs":[{"name":"user","type":"address","internalType":"address"},{"name":"amount","type":"uint256","internalType":"uint256"}],"outputs":[],"stateMutability":"nonpayable"},{"type":"function","name":"getUserStrategy","inputs":[{"name":"user","type":"address","internalType":"address"}],"outputs":[{"name":"","type":"address","internalType":"address"}],"stateMutability":"view"},{"type":"function","name":"highRiskStrategy","inputs":[],"outputs":[{"name":"","type":"address","internalType":"address"}],"stateMutability":"view"},{"type":"function","name":"lowRiskStrategy","inputs":[],"outputs":[{"name":"","type":"address","internalType":"address"}],"stateMutability":"view"},{"type":"function","name":"setUserStrategy","inputs":[{"name":"strategy","type":"address","internalType":"address"}],"outputs":[],"stateMutability":"nonpayable"},{"type":"function","name":"userStrategyChoice","inputs":[{"name":"","type":"address","internalType":"address"}],"outputs":[{"name":"","type":"address","internalType":"address"}],"stateMutability":"view"},{"type":"event","name":"StrategyChosen","inputs":[{"name":"user","type":"address","indexed":true,"internalType":"address"},{"name":"strategy","type":"address","indexed":false,"internalType":"address"}],"anonymous":false}],"bytecode":{"object":"0x608060405234801561000f575f5ffd5b50604051610ea0380380610ea083398181016040528101906100319190610236565b5f73ffffffffffffffffffffffffffffffffffffffff168373ffffffffffffffffffffffffffffffffffffffff161415801561009957505f73ffffffffffffffffffffffffffffffffffffffff168273ffffffffffffffffffffffffffffffffffffffff1614155b80156100d157505f73ffffffffffffffffffffffffffffffffffffffff168173ffffffffffffffffffffffffffffffffffffffff1614155b610110576040517f08c379a0000000000000000000000000000000000000000000000000000000008152600401610107906102e0565b60405180910390fd5b8260015f6101000a81548173ffffffffffffffffffffffffffffffffffffffff021916908373ffffffffffffffffffffffffffffffffffffffff1602179055508160025f6101000a81548173ffffffffffffffffffffffffffffffffffffffff021916908373ffffffffffffffffffffffffffffffffffffffff1602179055508060035f6101000a81548173ffffffffffffffffffffffffffffffffffffffff021916908373ffffffffffffffffffffffffffffffffffffffff1602179055505050506102fe565b5f5ffd5b5f73ffffffffffffffffffffffffffffffffffffffff82169050919050565b5f610205826101dc565b9050919050565b610215816101fb565b811461021f575f5ffd5b50565b5f815190506102308161020c565b92915050565b5f5f5f6060848603121561024d5761024c6101d8565b5b5f61025a86828701610222565b935050602061026b86828701610222565b925050604061027c86828701610222565b9150509250925092565b5f82825260208201905092915050565b7f496e76616c6964206164647265737300000000000000000000000000000000005f82015250565b5f6102ca600f83610286565b91506102d582610296565b602082019050919050565b5f6020820190508181035f8301526102f7816102be565b9050919050565b610b958061030b5f395ff3fe608060405234801561000f575f5ffd5b5060043610610086575f3560e01c8063b6b2d15b11610059578063b6b2d15b146100fe578063c09d22b91461011a578063dc5c7d311461014a578063f851a4401461017a57610086565b80633c7e445a1461008a5780635a06b448146100a85780638698f678146100c657806397892944146100e2575b5f5ffd5b610092610198565b60405161009f9190610896565b60405180910390f35b6100b06101bd565b6040516100bd9190610896565b60405180910390f35b6100e060048036038101906100db9190610910565b6101e2565b005b6100fc60048036038101906100f7919061094e565b6103e8565b005b61011860048036038101906101139190610910565b610599565b005b610134600480360381019061012f919061094e565b61079f565b6040516101419190610896565b60405180910390f35b610164600480360381019061015f919061094e565b6107ce565b6040516101719190610896565b60405180910390f35b610182610832565b60405161018f9190610896565b60405180910390f35b60015f9054906101000a900473ffffffffffffffffffffffffffffffffffffffff1681565b60025f9054906101000a900473ffffffffffffffffffffffffffffffffffffffff1681565b60035f9054906101000a900473ffffffffffffffffffffffffffffffffffffffff1673ffffffffffffffffffffffffffffffffffffffff163373ffffffffffffffffffffffffffffffffffffffff1614610271576040517f08c379a0000000000000000000000000000000000000000000000000000000008152600401610268906109d3565b60405180910390fd5b60025f9054906101000a900473ffffffffffffffffffffffffffffffffffffffff1673ffffffffffffffffffffffffffffffffffffffff165f5f8473ffffffffffffffffffffffffffffffffffffffff1673ffffffffffffffffffffffffffffffffffffffff1681526020019081526020015f205f9054906101000a900473ffffffffffffffffffffffffffffffffffffffff1673ffffffffffffffffffffffffffffffffffffffff161461035b576040517f08c379a000000000000000000000000000000000000000000000000000000000815260040161035290610a3b565b60405180910390fd5b60025f9054906101000a900473ffffffffffffffffffffffffffffffffffffffff1673ffffffffffffffffffffffffffffffffffffffff16633b89bb8683836040518363ffffffff1660e01b81526004016103b7929190610a68565b5f604051808303815f87803b1580156103ce575f5ffd5b505af11580156103e0573d5f5f3e3d5ffd5b505050505050565b60015f9054906101000a900473ffffffffffffffffffffffffffffffffffffffff1673ffffffffffffffffffffffffffffffffffffffff168173ffffffffffffffffffffffffffffffffffffffff16148061048f575060025f9054906101000a900473ffffffffffffffffffffffffffffffffffffffff1673ffffffffffffffffffffffffffffffffffffffff168173ffffffffffffffffffffffffffffffffffffffff16145b6104ce576040517f08c379a00000000000000000000000000000000000000000000000000000000081526004016104c590610ad9565b60405180910390fd5b805f5f3373ffffffffffffffffffffffffffffffffffffffff1673ffffffffffffffffffffffffffffffffffffffff1681526020019081526020015f205f6101000a81548173ffffffffffffffffffffffffffffffffffffffff021916908373ffffffffffffffffffffffffffffffffffffffff1602179055503373ffffffffffffffffffffffffffffffffffffffff167fa07be318e33281b8ca452a8fb509791f926ff926075247d5802d78e5b8de82c48260405161058e9190610896565b60405180910390a250565b60035f9054906101000a900473ffffffffffffffffffffffffffffffffffffffff1673ffffffffffffffffffffffffffffffffffffffff163373ffffffffffffffffffffffffffffffffffffffff1614610628576040517f08c379a000000000000000000000000000000000000000000000000000000000815260040161061f906109d3565b60405180910390fd5b60015f9054906101000a900473ffffffffffffffffffffffffffffffffffffffff1673ffffffffffffffffffffffffffffffffffffffff165f5f8473ffffffffffffffffffffffffffffffffffffffff1673ffffffffffffffffffffffffffffffffffffffff1681526020019081526020015f205f9054906101000a900473ffffffffffffffffffffffffffffffffffffffff1673ffffffffffffffffffffffffffffffffffffffff1614610712576040517f08c379a000000000000000000000000000000000000000000000000000000000815260040161070990610b41565b60405180910390fd5b60015f9054906101000a900473ffffffffffffffffffffffffffffffffffffffff1673ffffffffffffffffffffffffffffffffffffffff16633b89bb8683836040518363ffffffff1660e01b815260040161076e929190610a68565b5f604051808303815f87803b158015610785575f5ffd5b505af1158015610797573d5f5f3e3d5ffd5b505050505050565b5f602052805f5260405f205f915054906101000a900473ffffffffffffffffffffffffffffffffffffffff1681565b5f5f5f8373ffffffffffffffffffffffffffffffffffffffff1673ffffffffffffffffffffffffffffffffffffffff1681526020019081526020015f205f9054906101000a900473ffffffffffffffffffffffffffffffffffffffff169050919050565b60035f9054906101000a900473ffffffffffffffffffffffffffffffffffffffff1681565b5f73ffffffffffffffffffffffffffffffffffffffff82169050919050565b5f61088082610857565b9050919050565b61089081610876565b82525050565b5f6020820190506108a95f830184610887565b92915050565b5f5ffd5b6108bc81610876565b81146108c6575f5ffd5b50565b5f813590506108d7816108b3565b92915050565b5f819050919050565b6108ef816108dd565b81146108f9575f5ffd5b50565b5f8135905061090a816108e6565b92915050565b5f5f60408385031215610926576109256108af565b5b5f610933858286016108c9565b9250506020610944858286016108fc565b9150509250929050565b5f60208284031215610963576109626108af565b5b5f610970848285016108c9565b91505092915050565b5f82825260208201905092915050565b7f4e6f742061646d696e00000000000000000000000000000000000000000000005f82015250565b5f6109bd600983610979565b91506109c882610989565b602082019050919050565b5f6020820190508181035f8301526109ea816109b1565b9050919050565b7f55736572206e6f74206f7074656420666f722068696768207269736b000000005f82015250565b5f610a25601c83610979565b9150610a30826109f1565b602082019050919050565b5f6020820190508181035f830152610a5281610a19565b9050919050565b610a62816108dd565b82525050565b5f604082019050610a7b5f830185610887565b610a886020830184610a59565b9392505050565b7f496e76616c6964207374726174656779000000000000000000000000000000005f82015250565b5f610ac3601083610979565b9150610ace82610a8f565b602082019050919050565b5f6020820190508181035f830152610af081610ab7565b9050919050565b7f55736572206e6f74206f7074656420666f72206c6f77207269736b00000000005f82015250565b5f610b2b601b83610979565b9150610b3682610af7565b602082019050919050565b5f6020820190508181035f830152610b5881610b1f565b905091905056fea264697066735822122043e291cf2fdd893c7ce806e303974e5cbde113287f65a83b7431f7c6158d904b64736f6c634300081c0033","linkReferences":{}},"methodIdentifiers":{"admin()":"f851a440","executeHighRiskStrategy(address,uint256)":"8698f678","executeLowRiskStrategy(address,uint256)":"b6b2d15b","getUserStrategy(address)":"dc5c7d31","highRiskStrategy()":"5a06b448","lowRiskStrategy()":"3c7e445a","setUserStrategy(address)":"97892944","userStrategyChoice(address)":"c09d22b9"},"id":9}