{"abi":[{"type":"constructor","inputs":[{"name":"_lowRisk","type":"address","internalType":"address"},{"name":"_highRisk","type":"address","internalType":"address"},{"name":"_admin","type":"address","internalType":"address"}],"stateMutability":"nonpayable"},{"type":"function","name":"getUserStrategy","inputs":[{"name":"user","type":"address","internalType":"address"}],"outputs":[{"name":"","type":"address","internalType":"address"}],"stateMutability":"view"},{"type":"function","name":"highRiskStrategy","inputs":[],"outputs":[{"name":"","type":"address","internalType":"address"}],"stateMutability":"view"},{"type":"function","name":"lowRiskStrategy","inputs":[],"outputs":[{"name":"","type":"address","internalType":"address"}],"stateMutability":"view"},{"type":"function","name":"owner","inputs":[],"outputs":[{"name":"","type":"address","internalType":"address"}],"stateMutability":"view"},{"type":"function","name":"renounceOwnership","inputs":[],"outputs":[],"stateMutability":"nonpayable"},{"type":"function","name":"setHighRiskStrategy","inputs":[{"name":"_newHighRiskStrategy","type":"address","internalType":"address"}],"outputs":[],"stateMutability":"nonpayable"},{"type":"function","name":"setLowRiskStrategy","inputs":[{"name":"_newLowRiskStrategy","type":"address","internalType":"address"}],"outputs":[],"stateMutability":"nonpayable"},{"type":"function","name":"setUserStrategy","inputs":[{"name":"strategy","type":"address","internalType":"address"}],"outputs":[],"stateMutability":"nonpayable"},{"type":"function","name":"transferOwnership","inputs":[{"name":"newOwner","type":"address","internalType":"address"}],"outputs":[],"stateMutability":"nonpayable"},{"type":"function","name":"userStrategyChoice","inputs":[{"name":"","type":"address","internalType":"address"}],"outputs":[{"name":"","type":"address","internalType":"address"}],"stateMutability":"view"},{"type":"event","name":"HighRiskStrategyUpdated","inputs":[{"name":"oldStrategy","type":"address","indexed":true,"internalType":"address"},{"name":"newStrategy","type":"address","indexed":true,"internalType":"address"}],"anonymous":false},{"type":"event","name":"LowRiskStrategyUpdated","inputs":[{"name":"oldStrategy","type":"address","indexed":true,"internalType":"address"},{"name":"newStrategy","type":"address","indexed":true,"internalType":"address"}],"anonymous":false},{"type":"event","name":"OwnershipTransferred","inputs":[{"name":"previousOwner","type":"address","indexed":true,"internalType":"address"},{"name":"newOwner","type":"address","indexed":true,"internalType":"address"}],"anonymous":false},{"type":"event","name":"StrategyChosen","inputs":[{"name":"user","type":"address","indexed":true,"internalType":"address"},{"name":"strategy","type":"address","indexed":false,"internalType":"address"}],"anonymous":false}],"bytecode":{"object":"0x60803461012657601f61075538819003918201601f19168301916001600160401b0383118484101761012a57808492606094604052833981010312610126576100478161013e565b61005f60406100586020850161013e565b930161013e565b9061006933610152565b61007282610152565b6001600160a01b0316908115159081610113575b81610100575b50156100c95760018060a01b0319600254161760025560018060a01b031660018060a01b031960035416176003556040516105bc90816101998239f35b60405162461bcd60e51b815260206004820152600f60248201526e496e76616c6964206164647265737360881b6044820152606490fd5b6001600160a01b0316151590505f61008c565b6001600160a01b03841615159150610086565b5f80fd5b634e487b7160e01b5f52604160045260245ffd5b51906001600160a01b038216820361012657565b5f80546001600160a01b039283166001600160a01b03198216811783559216907f8be0079c531659141344cd1fd0a4f28419497f9722a3daafe3b4186f6b6457e09080a356fe6080806040526004361015610012575f80fd5b5f3560e01c9081633c7e445a146104ce575080635a06b448146104a6578063715018a61461044f5780637856c21b146103725780638da5cb5b1461034b578063978929441461026e578063c09d22b91461022a578063dc5c7d311461022a578063e7335a16146101585763f2fde38b1461008a575f80fd5b34610154576020366003190112610154576004356001600160a01b03811690819003610154576100b861052f565b8015610100575f80546001600160a01b03198116831782556001600160a01b0316907f8be0079c531659141344cd1fd0a4f28419497f9722a3daafe3b4186f6b6457e09080a3005b60405162461bcd60e51b815260206004820152602660248201527f4f776e61626c653a206e6577206f776e657220697320746865207a65726f206160448201526564647265737360d01b6064820152608490fd5b5f80fd5b34610154576020366003190112610154576004356001600160a01b038116908190036101545761018661052f565b6101918115156104f1565b6002546001600160a01b031681146101e657600380546001600160a01b0319811683179091556001600160a01b03167fcefab63ee5f663f49aac12baf6739fed0d1d801c43ef3316fc31b027ecd13f525f80a3005b606460405162461bcd60e51b815260206004820152602060248201527f537472617465677920616c726561647920736574206173206c6f77207269736b6044820152fd5b34610154576020366003190112610154576004356001600160a01b03811690819003610154575f526001602052602060018060a01b0360405f205416604051908152f35b34610154576020366003190112610154576004356001600160a01b03811690819003610154576002546001600160a01b031681148015610337575b156102ff57335f52600160205260405f20816bffffffffffffffffffffffff60a01b8254161790556040519081527fa07be318e33281b8ca452a8fb509791f926ff926075247d5802d78e5b8de82c460203392a2005b60405162461bcd60e51b815260206004820152601060248201526f496e76616c696420737472617465677960801b6044820152606490fd5b506003546001600160a01b031681146102a9565b34610154575f366003190112610154575f546040516001600160a01b039091168152602090f35b34610154576020366003190112610154576004356001600160a01b03811690819003610154576103a061052f565b6103ab8115156104f1565b6003546001600160a01b0316811461040057600280546001600160a01b0319811683179091556001600160a01b03167f4e5819d717e3e2611cc3ad65ce0f167211a3510179692227b07eb6474bf53c2b5f80a3005b60405162461bcd60e51b815260206004820152602160248201527f537472617465677920616c7265616479207365742061732068696768207269736044820152606b60f81b6064820152608490fd5b34610154575f3660031901126101545761046761052f565b5f80546001600160a01b0319811682556001600160a01b03167f8be0079c531659141344cd1fd0a4f28419497f9722a3daafe3b4186f6b6457e08280a3005b34610154575f366003190112610154576003546040516001600160a01b039091168152602090f35b34610154575f366003190112610154576002546001600160a01b03168152602090f35b156104f857565b60405162461bcd60e51b815260206004820152600f60248201526e496e76616c6964206164647265737360881b6044820152606490fd5b5f546001600160a01b0316330361054257565b606460405162461bcd60e51b815260206004820152602060248201527f4f776e61626c653a2063616c6c6572206973206e6f7420746865206f776e65726044820152fdfea264697066735822122047da8706e0367c0d2a3f7aeb2c11f75eb54801499463a8c0578a287b25f2842d64736f6c634300081c0033","linkReferences":{}},"methodIdentifiers":{"getUserStrategy(address)":"dc5c7d31","highRiskStrategy()":"5a06b448","lowRiskStrategy()":"3c7e445a","owner()":"8da5cb5b","renounceOwnership()":"715018a6","setHighRiskStrategy(address)":"e7335a16","setLowRiskStrategy(address)":"7856c21b","setUserStrategy(address)":"97892944","transferOwnership(address)":"f2fde38b","userStrategyChoice(address)":"c09d22b9"},"id":32}