{"abi":[{"type":"constructor","inputs":[{"name":"_lowRisk","type":"address","internalType":"address"},{"name":"_highRisk","type":"address","internalType":"address"},{"name":"_admin","type":"address","internalType":"address"}],"stateMutability":"nonpayable"},{"type":"function","name":"admin","inputs":[],"outputs":[{"name":"","type":"address","internalType":"address"}],"stateMutability":"view"},{"type":"function","name":"executeHighRiskStrategy","inputs":[{"name":"user","type":"address","internalType":"address"},{"name":"amount","type":"uint256","internalType":"uint256"}],"outputs":[],"stateMutability":"nonpayable"},{"type":"function","name":"executeLowRiskStrategy","inputs":[{"name":"user","type":"address","internalType":"address"},{"name":"amount","type":"uint256","internalType":"uint256"}],"outputs":[],"stateMutability":"nonpayable"},{"type":"function","name":"getUserStrategy","inputs":[{"name":"user","type":"address","internalType":"address"}],"outputs":[{"name":"","type":"address","internalType":"address"}],"stateMutability":"view"},{"type":"function","name":"highRiskStrategy","inputs":[],"outputs":[{"name":"","type":"address","internalType":"address"}],"stateMutability":"view"},{"type":"function","name":"lowRiskStrategy","inputs":[],"outputs":[{"name":"","type":"address","internalType":"address"}],"stateMutability":"view"},{"type":"function","name":"setUserStrategy","inputs":[{"name":"strategy","type":"address","internalType":"address"}],"outputs":[],"stateMutability":"nonpayable"},{"type":"function","name":"userStrategyChoice","inputs":[{"name":"","type":"address","internalType":"address"}],"outputs":[{"name":"","type":"address","internalType":"address"}],"stateMutability":"view"},{"type":"event","name":"StrategyChosen","inputs":[{"name":"user","type":"address","indexed":true,"internalType":"address"},{"name":"strategy","type":"address","indexed":false,"internalType":"address"}],"anonymous":false}],"bytecode":{"object":"0x608060405234801561000f575f80fd5b5060405161062438038061062483398101604081905261002e91610101565b6001600160a01b0383161580159061004e57506001600160a01b03821615155b801561006257506001600160a01b03811615155b6100a45760405162461bcd60e51b815260206004820152600f60248201526e496e76616c6964206164647265737360881b604482015260640160405180910390fd5b600180546001600160a01b039485166001600160a01b031991821617909155600280549385169382169390931790925560038054919093169116179055610141565b80516001600160a01b03811681146100fc575f80fd5b919050565b5f805f60608486031215610113575f80fd5b61011c846100e6565b925061012a602085016100e6565b9150610138604085016100e6565b90509250925092565b6104d68061014e5f395ff3fe608060405234801561000f575f80fd5b5060043610610085575f3560e01c8063b6b2d15b11610058578063b6b2d15b146100f3578063c09d22b914610106578063dc5c7d311461012e578063f851a44014610159575f80fd5b80633c7e445a146100895780635a06b448146100b85780638698f678146100cb57806397892944146100e0575b5f80fd5b60015461009c906001600160a01b031681565b6040516001600160a01b03909116815260200160405180910390f35b60025461009c906001600160a01b031681565b6100de6100d9366004610458565b61016c565b005b6100de6100ee366004610480565b61028a565b6100de610101366004610458565b610351565b61009c610114366004610480565b5f602081905290815260409020546001600160a01b031681565b61009c61013c366004610480565b6001600160a01b039081165f908152602081905260409020541690565b60035461009c906001600160a01b031681565b6003546001600160a01b031633146101b75760405162461bcd60e51b81526020600482015260096024820152682737ba1030b236b4b760b91b60448201526064015b60405180910390fd5b6002546001600160a01b038381165f9081526020819052604090205481169116146102245760405162461bcd60e51b815260206004820152601c60248201527f55736572206e6f74206f7074656420666f722068696768207269736b0000000060448201526064016101ae565b600254604051631dc4ddc360e11b81526001600160a01b0384811660048301526024820184905290911690633b89bb86906044015b5f604051808303815f87803b158015610270575f80fd5b505af1158015610282573d5f803e3d5ffd5b505050505050565b6001546001600160a01b03828116911614806102b357506002546001600160a01b038281169116145b6102f25760405162461bcd60e51b815260206004820152601060248201526f496e76616c696420737472617465677960801b60448201526064016101ae565b335f818152602081815260409182902080546001600160a01b0319166001600160a01b03861690811790915591519182527fa07be318e33281b8ca452a8fb509791f926ff926075247d5802d78e5b8de82c4910160405180910390a250565b6003546001600160a01b031633146103975760405162461bcd60e51b81526020600482015260096024820152682737ba1030b236b4b760b91b60448201526064016101ae565b6001546001600160a01b038381165f9081526020819052604090205481169116146104045760405162461bcd60e51b815260206004820152601b60248201527f55736572206e6f74206f7074656420666f72206c6f77207269736b000000000060448201526064016101ae565b600154604051631dc4ddc360e11b81526001600160a01b0384811660048301526024820184905290911690633b89bb8690604401610259565b80356001600160a01b0381168114610453575f80fd5b919050565b5f8060408385031215610469575f80fd5b6104728361043d565b946020939093013593505050565b5f60208284031215610490575f80fd5b6104998261043d565b939250505056fea264697066735822122066c7f0b1df47dedb48289709885712e65f91cb7d38905f4b55ec6ec9af32977d64736f6c63430008140033","linkReferences":{}},"methodIdentifiers":{"admin()":"f851a440","executeHighRiskStrategy(address,uint256)":"8698f678","executeLowRiskStrategy(address,uint256)":"b6b2d15b","getUserStrategy(address)":"dc5c7d31","highRiskStrategy()":"5a06b448","lowRiskStrategy()":"3c7e445a","setUserStrategy(address)":"97892944","userStrategyChoice(address)":"c09d22b9"},"id":32}