{"abi":[{"type":"constructor","inputs":[{"name":"_usdc","type":"address","internalType":"address"},{"name":"_usdy","type":"address","internalType":"address"}],"stateMutability":"nonpayable"},{"type":"function","name":"USDC_DECIMALS","inputs":[],"outputs":[{"name":"","type":"uint256","internalType":"uint256"}],"stateMutability":"view"},{"type":"function","name":"USDY_DECIMALS","inputs":[],"outputs":[{"name":"","type":"uint256","internalType":"uint256"}],"stateMutability":"view"},{"type":"function","name":"getLatestPrice","inputs":[],"outputs":[{"name":"","type":"uint256","internalType":"uint256"}],"stateMutability":"view"},{"type":"function","name":"swapUSDYtoUSDC","inputs":[{"name":"usdyAmount","type":"uint256","internalType":"uint256"}],"outputs":[{"name":"","type":"uint256","internalType":"uint256"}],"stateMutability":"nonpayable"},{"type":"function","name":"usdc","inputs":[],"outputs":[{"name":"","type":"address","internalType":"contract IERC20"}],"stateMutability":"view"},{"type":"function","name":"usdy","inputs":[],"outputs":[{"name":"","type":"address","internalType":"contract IERC20"}],"stateMutability":"view"}],"bytecode":{"object":"0x608060405234801561000f575f5ffd5b506040516114d93803806114d983398181016040528101906100319190610245565b5f73ffffffffffffffffffffffffffffffffffffffff168273ffffffffffffffffffffffffffffffffffffffff160361009f576040517f08c379a0000000000000000000000000000000000000000000000000000000008152600401610096906102dd565b60405180910390fd5b5f73ffffffffffffffffffffffffffffffffffffffff168173ffffffffffffffffffffffffffffffffffffffff160361010d576040517f08c379a000000000000000000000000000000000000000000000000000000000815260040161010490610345565b60405180910390fd5b815f5f6101000a81548173ffffffffffffffffffffffffffffffffffffffff021916908373ffffffffffffffffffffffffffffffffffffffff1602179055508060015f6101000a81548173ffffffffffffffffffffffffffffffffffffffff021916908373ffffffffffffffffffffffffffffffffffffffff16021790555073a2f78ab2355fe2f984d808b5cee7fd0a93d5270e60025f6101000a81548173ffffffffffffffffffffffffffffffffffffffff021916908373ffffffffffffffffffffffffffffffffffffffff1602179055505050610363565b5f5ffd5b5f73ffffffffffffffffffffffffffffffffffffffff82169050919050565b5f610214826101eb565b9050919050565b6102248161020a565b811461022e575f5ffd5b50565b5f8151905061023f8161021b565b92915050565b5f5f6040838503121561025b5761025a6101e7565b5b5f61026885828601610231565b925050602061027985828601610231565b9150509250929050565b5f82825260208201905092915050565b7f496e76616c6964205553444320616464726573730000000000000000000000005f82015250565b5f6102c7601483610283565b91506102d282610293565b602082019050919050565b5f6020820190508181035f8301526102f4816102bb565b9050919050565b7f496e76616c6964205553445920616464726573730000000000000000000000005f82015250565b5f61032f601483610283565b915061033a826102fb565b602082019050919050565b5f6020820190508181035f83015261035c81610323565b9050919050565b611169806103705f395ff3fe608060405234801561000f575f5ffd5b5060043610610060575f3560e01c80633e413bee146100645780638e15f4731461008257806398d506e9146100a0578063c1419def146100be578063cffc734c146100dc578063fa45c732146100fa575b5f5ffd5b61006c61012a565b6040516100799190610889565b60405180910390f35b61008a61014e565b60405161009791906108ba565b60405180910390f35b6100a861022d565b6040516100b59190610889565b60405180910390f35b6100c6610252565b6040516100d391906108ba565b60405180910390f35b6100e4610257565b6040516100f191906108ba565b60405180910390f35b610114600480360381019061010f9190610901565b61025c565b60405161012191906108ba565b60405180910390f35b5f5f9054906101000a900473ffffffffffffffffffffffffffffffffffffffff1681565b5f5f60025f9054906101000a900473ffffffffffffffffffffffffffffffffffffffff1673ffffffffffffffffffffffffffffffffffffffff1663feaf968c6040518163ffffffff1660e01b815260040160a060405180830381865afa1580156101ba573d5f5f3e3d5ffd5b505050506040513d601f19601f820116820180604052508101906101de91906109b2565b5050509150505f8113610226576040517f08c379a000000000000000000000000000000000000000000000000000000000815260040161021d90610a83565b60405180910390fd5b8091505090565b60015f9054906101000a900473ffffffffffffffffffffffffffffffffffffffff1681565b600681565b601281565b5f5f821161029f576040517f08c379a000000000000000000000000000000000000000000000000000000000815260040161029690610aeb565b60405180910390fd5b6102ed33308460015f9054906101000a900473ffffffffffffffffffffffffffffffffffffffff1673ffffffffffffffffffffffffffffffffffffffff16610475909392919063ffffffff16565b5f6102f661014e565b90505f6305f5e1006012600a61030c9190610c65565b6103169190610caf565b6006600a6103249190610c65565b83866103309190610caf565b61033a9190610caf565b6103449190610d1d565b9050805f5f9054906101000a900473ffffffffffffffffffffffffffffffffffffffff1673ffffffffffffffffffffffffffffffffffffffff166370a08231306040518263ffffffff1660e01b81526004016103a09190610d6d565b602060405180830381865afa1580156103bb573d5f5f3e3d5ffd5b505050506040513d601f19601f820116820180604052508101906103df9190610d86565b1015610420576040517f08c379a000000000000000000000000000000000000000000000000000000000815260040161041790610dfb565b60405180910390fd5b61046b33825f5f9054906101000a900473ffffffffffffffffffffffffffffffffffffffff1673ffffffffffffffffffffffffffffffffffffffff166104fe9092919063ffffffff16565b8092505050919050565b6104f8846323b872dd60e01b85858560405160240161049693929190610e19565b604051602081830303815290604052907bffffffffffffffffffffffffffffffffffffffffffffffffffffffff19166020820180517bffffffffffffffffffffffffffffffffffffffffffffffffffffffff8381831617835250505050610584565b50505050565b61057f8363a9059cbb60e01b848460405160240161051d929190610e4e565b604051602081830303815290604052907bffffffffffffffffffffffffffffffffffffffffffffffffffffffff19166020820180517bffffffffffffffffffffffffffffffffffffffffffffffffffffffff8381831617835250505050610584565b505050565b5f6105e5826040518060400160405280602081526020017f5361666545524332303a206c6f772d6c6576656c2063616c6c206661696c65648152508573ffffffffffffffffffffffffffffffffffffffff1661064a9092919063ffffffff16565b90505f815114806106065750808060200190518101906106059190610eaa565b5b610645576040517f08c379a000000000000000000000000000000000000000000000000000000000815260040161063c90610f45565b60405180910390fd5b505050565b606061065884845f85610661565b90509392505050565b6060824710156106a6576040517f08c379a000000000000000000000000000000000000000000000000000000000815260040161069d90610fd3565b60405180910390fd5b5f5f8673ffffffffffffffffffffffffffffffffffffffff1685876040516106ce9190611043565b5f6040518083038185875af1925050503d805f8114610708576040519150601f19603f3d011682016040523d82523d5f602084013e61070d565b606091505b509150915061071e8783838761072a565b92505050949350505050565b6060831561078b575f835103610783576107438561079e565b610782576040517f08c379a0000000000000000000000000000000000000000000000000000000008152600401610779906110a3565b60405180910390fd5b5b829050610796565b61079583836107c0565b5b949350505050565b5f5f8273ffffffffffffffffffffffffffffffffffffffff163b119050919050565b5f825111156107d25781518083602001fd5b806040517f08c379a00000000000000000000000000000000000000000000000000000000081526004016108069190611113565b60405180910390fd5b5f73ffffffffffffffffffffffffffffffffffffffff82169050919050565b5f819050919050565b5f61085161084c6108478461080f565b61082e565b61080f565b9050919050565b5f61086282610837565b9050919050565b5f61087382610858565b9050919050565b61088381610869565b82525050565b5f60208201905061089c5f83018461087a565b92915050565b5f819050919050565b6108b4816108a2565b82525050565b5f6020820190506108cd5f8301846108ab565b92915050565b5f5ffd5b6108e0816108a2565b81146108ea575f5ffd5b50565b5f813590506108fb816108d7565b92915050565b5f60208284031215610916576109156108d3565b5b5f610923848285016108ed565b91505092915050565b5f69ffffffffffffffffffff82169050919050565b61094a8161092c565b8114610954575f5ffd5b50565b5f8151905061096581610941565b92915050565b5f819050919050565b61097d8161096b565b8114610987575f5ffd5b50565b5f8151905061099881610974565b92915050565b5f815190506109ac816108d7565b92915050565b5f5f5f5f5f60a086880312156109cb576109ca6108d3565b5b5f6109d888828901610957565b95505060206109e98882890161098a565b94505060406109fa8882890161099e565b9350506060610a0b8882890161099e565b9250506080610a1c88828901610957565b9150509295509295909350565b5f82825260208201905092915050565b7f496e76616c6964207072696365000000000000000000000000000000000000005f82015250565b5f610a6d600d83610a29565b9150610a7882610a39565b602082019050919050565b5f6020820190508181035f830152610a9a81610a61565b9050919050565b7f416d6f756e74206d7573742062652067726561746572207468616e20300000005f82015250565b5f610ad5601d83610a29565b9150610ae082610aa1565b602082019050919050565b5f6020820190508181035f830152610b0281610ac9565b9050919050565b7f4e487b71000000000000000000000000000000000000000000000000000000005f52601160045260245ffd5b5f8160011c9050919050565b5f5f8291508390505b6001851115610b8b57808604811115610b6757610b66610b09565b5b6001851615610b765780820291505b8081029050610b8485610b36565b9450610b4b565b94509492505050565b5f82610ba35760019050610c5e565b81610bb0575f9050610c5e565b8160018114610bc65760028114610bd057610bff565b6001915050610c5e565b60ff841115610be257610be1610b09565b5b8360020a915084821115610bf957610bf8610b09565b5b50610c5e565b5060208310610133831016604e8410600b8410161715610c345782820a905083811115610c2f57610c2e610b09565b5b610c5e565b610c418484846001610b42565b92509050818404811115610c5857610c57610b09565b5b81810290505b9392505050565b5f610c6f826108a2565b9150610c7a836108a2565b9250610ca77fffffffffffffffffffffffffffffffffffffffffffffffffffffffffffffffff8484610b94565b905092915050565b5f610cb9826108a2565b9150610cc4836108a2565b9250828202610cd2816108a2565b91508282048414831517610ce957610ce8610b09565b5b5092915050565b7f4e487b71000000000000000000000000000000000000000000000000000000005f52601260045260245ffd5b5f610d27826108a2565b9150610d32836108a2565b925082610d4257610d41610cf0565b5b828204905092915050565b5f610d578261080f565b9050919050565b610d6781610d4d565b82525050565b5f602082019050610d805f830184610d5e565b92915050565b5f60208284031215610d9b57610d9a6108d3565b5b5f610da88482850161099e565b91505092915050565b7f496e73756666696369656e742055534443206c697175696469747900000000005f82015250565b5f610de5601b83610a29565b9150610df082610db1565b602082019050919050565b5f6020820190508181035f830152610e1281610dd9565b9050919050565b5f606082019050610e2c5f830186610d5e565b610e396020830185610d5e565b610e4660408301846108ab565b949350505050565b5f604082019050610e615f830185610d5e565b610e6e60208301846108ab565b9392505050565b5f8115159050919050565b610e8981610e75565b8114610e93575f5ffd5b50565b5f81519050610ea481610e80565b92915050565b5f60208284031215610ebf57610ebe6108d3565b5b5f610ecc84828501610e96565b91505092915050565b7f5361666545524332303a204552433230206f7065726174696f6e20646964206e5f8201527f6f74207375636365656400000000000000000000000000000000000000000000602082015250565b5f610f2f602a83610a29565b9150610f3a82610ed5565b604082019050919050565b5f6020820190508181035f830152610f5c81610f23565b9050919050565b7f416464726573733a20696e73756666696369656e742062616c616e636520666f5f8201527f722063616c6c0000000000000000000000000000000000000000000000000000602082015250565b5f610fbd602683610a29565b9150610fc882610f63565b604082019050919050565b5f6020820190508181035f830152610fea81610fb1565b9050919050565b5f81519050919050565b5f81905092915050565b8281835e5f83830152505050565b5f61101d82610ff1565b6110278185610ffb565b9350611037818560208601611005565b80840191505092915050565b5f61104e8284611013565b915081905092915050565b7f416464726573733a2063616c6c20746f206e6f6e2d636f6e74726163740000005f82015250565b5f61108d601d83610a29565b915061109882611059565b602082019050919050565b5f6020820190508181035f8301526110ba81611081565b9050919050565b5f81519050919050565b5f601f19601f8301169050919050565b5f6110e5826110c1565b6110ef8185610a29565b93506110ff818560208601611005565b611108816110cb565b840191505092915050565b5f6020820190508181035f83015261112b81846110db565b90509291505056fea264697066735822122052414d5315b6f2ba688d30af0fd191dabea48d4627e62d1adee794d29ce2e2a464736f6c634300081e0033","linkReferences":{}},"methodIdentifiers":{"USDC_DECIMALS()":"c1419def","USDY_DECIMALS()":"cffc734c","getLatestPrice()":"8e15f473","swapUSDYtoUSDC(uint256)":"fa45c732","usdc()":"3e413bee","usdy()":"98d506e9"},"id":5}