{"abi":[{"type":"constructor","inputs":[{"name":"_usdc","type":"address","internalType":"address"},{"name":"_usdy","type":"address","internalType":"address"},{"name":"_priceFeed","type":"address","internalType":"address"}],"stateMutability":"nonpayable"},{"type":"function","name":"USDC_DECIMALS","inputs":[],"outputs":[{"name":"","type":"uint256","internalType":"uint256"}],"stateMutability":"view"},{"type":"function","name":"USDY_DECIMALS","inputs":[],"outputs":[{"name":"","type":"uint256","internalType":"uint256"}],"stateMutability":"view"},{"type":"function","name":"getLatestPrice","inputs":[],"outputs":[{"name":"","type":"uint256","internalType":"uint256"}],"stateMutability":"view"},{"type":"function","name":"swapUSDYtoUSDC","inputs":[{"name":"usdyAmount","type":"uint256","internalType":"uint256"}],"outputs":[{"name":"","type":"uint256","internalType":"uint256"}],"stateMutability":"nonpayable"},{"type":"function","name":"usdc","inputs":[],"outputs":[{"name":"","type":"address","internalType":"contract IERC20"}],"stateMutability":"view"},{"type":"function","name":"usdy","inputs":[],"outputs":[{"name":"","type":"address","internalType":"contract IERC20"}],"stateMutability":"view"}],"bytecode":{"object":"0x60803461019d57601f6107d838819003918201601f19168301916001600160401b038311848410176101a15780849260609460405283398101031261019d57610047816101b5565b61005f6040610058602085016101b5565b93016101b5565b6001600160a01b03909116918215610158576001600160a01b0316908115610113576001600160a01b03169182156100ce5760018060a01b03195f5416175f5560018060a01b0319600154161760015560018060a01b0319600254161760025560405161060e90816101ca8239f35b60405162461bcd60e51b815260206004820152601a60248201527f496e76616c6964207072696365206665656420616464726573730000000000006044820152606490fd5b60405162461bcd60e51b815260206004820152601460248201527f496e76616c6964205553445920616464726573730000000000000000000000006044820152606490fd5b60405162461bcd60e51b815260206004820152601460248201527f496e76616c6964205553444320616464726573730000000000000000000000006044820152606490fd5b5f80fd5b634e487b7160e01b5f52604160045260245ffd5b51906001600160a01b038216820361019d5756fe6080806040526004361015610012575f80fd5b5f3560e01c9081633e413bee146102c9575080638e15f473146102af57806398d506e914610287578063c1419def1461026c578063cffc734c146102515763fa45c7321461005e575f80fd5b346101e15760203660031901126101e157600435801561020c576001546040516323b872dd60e01b6020820152336024820152306044820152606480820184905281526100be916001600160a01b03166100b96084836102eb565b6103fa565b6100c6610338565b808202918204036101f857620f4240810290808204620f424014901517156101f8575f546040516370a0823160e01b81523060048201526001600160a01b03909116916a52b7d2dcc80cd2e4000000900490602081602481865afa80156101ed5782915f916101b4575b501061016f576101676020926040519063a9059cbb60e01b85830152336024830152836044830152604482526100b96064836102eb565b604051908152f35b60405162461bcd60e51b815260206004820152601b60248201527f496e73756666696369656e742055534443206c697175696469747900000000006044820152606490fd5b9150506020813d6020116101e5575b816101d0602093836102eb565b810103126101e1578190515f610130565b5f80fd5b3d91506101c3565b6040513d5f823e3d90fd5b634e487b7160e01b5f52601160045260245ffd5b60405162461bcd60e51b815260206004820152601d60248201527f416d6f756e74206d7573742062652067726561746572207468616e20300000006044820152606490fd5b346101e1575f3660031901126101e157602060405160128152f35b346101e1575f3660031901126101e157602060405160068152f35b346101e1575f3660031901126101e1576001546040516001600160a01b039091168152602090f35b346101e1575f3660031901126101e1576020610167610338565b346101e1575f3660031901126101e1575f546001600160a01b03168152602090f35b90601f8019910116810190811067ffffffffffffffff82111761030d57604052565b634e487b7160e01b5f52604160045260245ffd5b519069ffffffffffffffffffff821682036101e157565b600254604051633fabe5a360e21b81529060a090829060049082906001600160a01b03165afa9081156101ed575f916103ad575b505f8113156103785790565b60405162461bcd60e51b815260206004820152600d60248201526c496e76616c696420707269636560981b6044820152606490fd5b905060a0813d60a0116103f2575b816103c860a093836102eb565b810103126101e1576103d981610321565b506103eb608060208301519201610321565b505f61036c565b3d91506103bb565b60018060a01b0316905f80604051926104146040856102eb565b602084527f5361666545524332303a206c6f772d6c6576656c2063616c6c206661696c6564602085015260208151910182865af13d1561051b573d9067ffffffffffffffff821161030d5760405161048a94909261047c601f8201601f1916602001856102eb565b83523d5f602085013e610524565b80519081159182156104f8575b5050156104a057565b60405162461bcd60e51b815260206004820152602a60248201527f5361666545524332303a204552433230206f7065726174696f6e20646964206e6044820152691bdd081cdd58d8d9595960b21b6064820152608490fd5b81925090602091810103126101e1576020015180151581036101e1575f80610497565b9161048a926060915b919290156105865750815115610538575090565b3b156105415790565b60405162461bcd60e51b815260206004820152601d60248201527f416464726573733a2063616c6c20746f206e6f6e2d636f6e74726163740000006044820152606490fd5b8251909150156105995750805190602001fd5b604460209160405192839162461bcd60e51b83528160048401528051918291826024860152018484015e5f828201840152601f01601f19168101030190fdfea2646970667358221220aefd64a1709dfcb4db02e489749ea1f29199617c704d11b9c9c5bf6a3a1080dd64736f6c634300081c0033","linkReferences":{}},"methodIdentifiers":{"USDC_DECIMALS()":"c1419def","USDY_DECIMALS()":"cffc734c","getLatestPrice()":"8e15f473","swapUSDYtoUSDC(uint256)":"fa45c732","usdc()":"3e413bee","usdy()":"98d506e9"},"id":50}