{"abi":[{"type":"constructor","inputs":[],"stateMutability":"nonpayable"},{"type":"function","name":"owner","inputs":[],"outputs":[{"name":"","type":"address","internalType":"address"}],"stateMutability":"view"},{"type":"function","name":"rates","inputs":[{"name":"","type":"address","internalType":"address"}],"outputs":[{"name":"","type":"uint256","internalType":"uint256"}],"stateMutability":"view"},{"type":"function","name":"setRate","inputs":[{"name":"token","type":"address","internalType":"address"},{"name":"rate","type":"uint256","internalType":"uint256"}],"outputs":[],"stateMutability":"nonpayable"},{"type":"function","name":"swap","inputs":[{"name":"fromToken","type":"address","internalType":"address"},{"name":"toToken","type":"address","internalType":"address"},{"name":"amountIn","type":"uint256","internalType":"uint256"}],"outputs":[{"name":"amountOut","type":"uint256","internalType":"uint256"}],"stateMutability":"nonpayable"},{"type":"function","name":"withdrawToken","inputs":[{"name":"token","type":"address","internalType":"address"},{"name":"amount","type":"uint256","internalType":"uint256"}],"outputs":[],"stateMutability":"nonpayable"},{"type":"event","name":"Swap","inputs":[{"name":"fromToken","type":"address","indexed":true,"internalType":"address"},{"name":"toToken","type":"address","indexed":true,"internalType":"address"},{"name":"user","type":"address","indexed":true,"internalType":"address"},{"name":"amountIn","type":"uint256","indexed":false,"internalType":"uint256"},{"name":"amountOut","type":"uint256","indexed":false,"internalType":"uint256"}],"anonymous":false}],"bytecode":{"object":"0x6080604052348015600e575f5ffd5b5060015f819055503360025f6101000a81548173ffffffffffffffffffffffffffffffffffffffff021916908373ffffffffffffffffffffffffffffffffffffffff160217905550610d88806100635f395ff3fe608060405234801561000f575f5ffd5b5060043610610055575f3560e01c80632bdb7097146100595780638da5cb5b146100755780639e281a9814610093578063a8734f0b146100af578063df791e50146100df575b5f5ffd5b610073600480360381019061006e919061081b565b61010f565b005b61007d610226565b60405161008a9190610868565b60405180910390f35b6100ad60048036038101906100a8919061081b565b61024b565b005b6100c960048036038101906100c49190610881565b6103b9565b6040516100d691906108bb565b60405180910390f35b6100f960048036038101906100f491906108d4565b6103ce565b60405161010691906108bb565b60405180910390f35b60025f9054906101000a900473ffffffffffffffffffffffffffffffffffffffff1673ffffffffffffffffffffffffffffffffffffffff163373ffffffffffffffffffffffffffffffffffffffff161461019e576040517f08c379a00000000000000000000000000000000000000000000000000000000081526004016101959061097e565b60405180910390fd5b5f81116101e0576040517f08c379a00000000000000000000000000000000000000000000000000000000081526004016101d7906109e6565b60405180910390fd5b8060015f8473ffffffffffffffffffffffffffffffffffffffff1673ffffffffffffffffffffffffffffffffffffffff1681526020019081526020015f20819055505050565b60025f9054906101000a900473ffffffffffffffffffffffffffffffffffffffff1681565b60025f9054906101000a900473ffffffffffffffffffffffffffffffffffffffff1673ffffffffffffffffffffffffffffffffffffffff163373ffffffffffffffffffffffffffffffffffffffff16146102da576040517f08c379a00000000000000000000000000000000000000000000000000000000081526004016102d19061097e565b60405180910390fd5b8173ffffffffffffffffffffffffffffffffffffffff1663a9059cbb60025f9054906101000a900473ffffffffffffffffffffffffffffffffffffffff16836040518363ffffffff1660e01b8152600401610336929190610a04565b6020604051808303815f875af1158015610352573d5f5f3e3d5ffd5b505050506040513d601f19601f820116820180604052508101906103769190610a60565b6103b5576040517f08c379a00000000000000000000000000000000000000000000000000000000081526004016103ac90610ad5565b60405180910390fd5b5050565b6001602052805f5260405f205f915090505481565b5f6103d7610734565b5f60015f8673ffffffffffffffffffffffffffffffffffffffff1673ffffffffffffffffffffffffffffffffffffffff1681526020019081526020015f205411801561045f57505f60015f8573ffffffffffffffffffffffffffffffffffffffff1673ffffffffffffffffffffffffffffffffffffffff1681526020019081526020015f2054115b61049e576040517f08c379a000000000000000000000000000000000000000000000000000000000815260040161049590610b3d565b60405180910390fd5b60015f8573ffffffffffffffffffffffffffffffffffffffff1673ffffffffffffffffffffffffffffffffffffffff1681526020019081526020015f205460015f8573ffffffffffffffffffffffffffffffffffffffff1673ffffffffffffffffffffffffffffffffffffffff1681526020019081526020015f2054836105259190610b88565b61052f9190610bf6565b90508373ffffffffffffffffffffffffffffffffffffffff166323b872dd3330856040518463ffffffff1660e01b815260040161056e93929190610c26565b6020604051808303815f875af115801561058a573d5f5f3e3d5ffd5b505050506040513d601f19601f820116820180604052508101906105ae9190610a60565b6105ed576040517f08c379a00000000000000000000000000000000000000000000000000000000081526004016105e490610ca5565b60405180910390fd5b8273ffffffffffffffffffffffffffffffffffffffff1663a9059cbb33836040518363ffffffff1660e01b8152600401610628929190610a04565b6020604051808303815f875af1158015610644573d5f5f3e3d5ffd5b505050506040513d601f19601f820116820180604052508101906106689190610a60565b6106a7576040517f08c379a000000000000000000000000000000000000000000000000000000000815260040161069e90610ca5565b60405180910390fd5b3373ffffffffffffffffffffffffffffffffffffffff168373ffffffffffffffffffffffffffffffffffffffff168573ffffffffffffffffffffffffffffffffffffffff167fcd3829a3813dc3cdd188fd3d01dcf3268c16be2fdd2dd21d0665418816e46062858560405161071d929190610cc3565b60405180910390a461072d610781565b9392505050565b60025f5403610778576040517f08c379a000000000000000000000000000000000000000000000000000000000815260040161076f90610d34565b60405180910390fd5b60025f81905550565b60015f81905550565b5f5ffd5b5f73ffffffffffffffffffffffffffffffffffffffff82169050919050565b5f6107b78261078e565b9050919050565b6107c7816107ad565b81146107d1575f5ffd5b50565b5f813590506107e2816107be565b92915050565b5f819050919050565b6107fa816107e8565b8114610804575f5ffd5b50565b5f81359050610815816107f1565b92915050565b5f5f604083850312156108315761083061078a565b5b5f61083e858286016107d4565b925050602061084f85828601610807565b9150509250929050565b610862816107ad565b82525050565b5f60208201905061087b5f830184610859565b92915050565b5f602082840312156108965761089561078a565b5b5f6108a3848285016107d4565b91505092915050565b6108b5816107e8565b82525050565b5f6020820190506108ce5f8301846108ac565b92915050565b5f5f5f606084860312156108eb576108ea61078a565b5b5f6108f8868287016107d4565b9350506020610909868287016107d4565b925050604061091a86828701610807565b9150509250925092565b5f82825260208201905092915050565b7f4e6f74206f776e657200000000000000000000000000000000000000000000005f82015250565b5f610968600983610924565b915061097382610934565b602082019050919050565b5f6020820190508181035f8301526109958161095c565b9050919050565b7f496e76616c6964207261746500000000000000000000000000000000000000005f82015250565b5f6109d0600c83610924565b91506109db8261099c565b602082019050919050565b5f6020820190508181035f8301526109fd816109c4565b9050919050565b5f604082019050610a175f830185610859565b610a2460208301846108ac565b9392505050565b5f8115159050919050565b610a3f81610a2b565b8114610a49575f5ffd5b50565b5f81519050610a5a81610a36565b92915050565b5f60208284031215610a7557610a7461078a565b5b5f610a8284828501610a4c565b91505092915050565b7f5769746864726177616c206661696c65640000000000000000000000000000005f82015250565b5f610abf601183610924565b9150610aca82610a8b565b602082019050919050565b5f6020820190508181035f830152610aec81610ab3565b9050919050565b7f496e76616c696420746f6b656e730000000000000000000000000000000000005f82015250565b5f610b27600e83610924565b9150610b3282610af3565b602082019050919050565b5f6020820190508181035f830152610b5481610b1b565b9050919050565b7f4e487b71000000000000000000000000000000000000000000000000000000005f52601160045260245ffd5b5f610b92826107e8565b9150610b9d836107e8565b9250828202610bab816107e8565b91508282048414831517610bc257610bc1610b5b565b5b5092915050565b7f4e487b71000000000000000000000000000000000000000000000000000000005f52601260045260245ffd5b5f610c00826107e8565b9150610c0b836107e8565b925082610c1b57610c1a610bc9565b5b828204905092915050565b5f606082019050610c395f830186610859565b610c466020830185610859565b610c5360408301846108ac565b949350505050565b7f5472616e73666572206661696c656400000000000000000000000000000000005f82015250565b5f610c8f600f83610924565b9150610c9a82610c5b565b602082019050919050565b5f6020820190508181035f830152610cbc81610c83565b9050919050565b5f604082019050610cd65f8301856108ac565b610ce360208301846108ac565b9392505050565b7f5265656e7472616e637947756172643a207265656e7472616e742063616c6c005f82015250565b5f610d1e601f83610924565b9150610d2982610cea565b602082019050919050565b5f6020820190508181035f830152610d4b81610d12565b905091905056fea26469706673582212202cb4055f88d5a56784897b380b1d36aceece9e49caff03a2ec1bf81881f5db8064736f6c634300081c0033","linkReferences":{}},"methodIdentifiers":{"owner()":"8da5cb5b","rates(address)":"a8734f0b","setRate(address,uint256)":"2bdb7097","swap(address,address,uint256)":"df791e50","withdrawToken(address,uint256)":"9e281a98"},"id":13}